{
  "address": "0xE4b2B68F4A29d2A8Cbc0A3Ab1600EA6Df1210FA8",
  "abi": [
    {
      "anonymous": false,
      "inputs": [
        {
          "indexed": true,
          "internalType": "address",
          "name": "owner",
          "type": "address"
        },
        {
          "indexed": true,
          "internalType": "address",
          "name": "spender",
          "type": "address"
        },
        {
          "indexed": false,
          "internalType": "uint256",
          "name": "value",
          "type": "uint256"
        }
      ],
      "name": "Approval",
      "type": "event"
    },
    {
      "anonymous": false,
      "inputs": [
        {
          "indexed": true,
          "internalType": "address",
          "name": "who",
          "type": "address"
        },
        {
          "indexed": false,
          "internalType": "address",
          "name": "configAddress",
          "type": "address"
        }
      ],
      "name": "GoldfinchConfigUpdated",
      "type": "event"
    },
    {
      "anonymous": false,
      "inputs": [
        {
          "indexed": false,
          "internalType": "address",
          "name": "account",
          "type": "address"
        }
      ],
      "name": "Paused",
      "type": "event"
    },
    {
      "anonymous": false,
      "inputs": [
        {
          "indexed": true,
          "internalType": "bytes32",
          "name": "role",
          "type": "bytes32"
        },
        {
          "indexed": true,
          "internalType": "address",
          "name": "account",
          "type": "address"
        },
        {
          "indexed": true,
          "internalType": "address",
          "name": "sender",
          "type": "address"
        }
      ],
      "name": "RoleGranted",
      "type": "event"
    },
    {
      "anonymous": false,
      "inputs": [
        {
          "indexed": true,
          "internalType": "bytes32",
          "name": "role",
          "type": "bytes32"
        },
        {
          "indexed": true,
          "internalType": "address",
          "name": "account",
          "type": "address"
        },
        {
          "indexed": true,
          "internalType": "address",
          "name": "sender",
          "type": "address"
        }
      ],
      "name": "RoleRevoked",
      "type": "event"
    },
    {
      "anonymous": false,
      "inputs": [
        {
          "indexed": true,
          "internalType": "address",
          "name": "from",
          "type": "address"
        },
        {
          "indexed": true,
          "internalType": "address",
          "name": "to",
          "type": "address"
        },
        {
          "indexed": false,
          "internalType": "uint256",
          "name": "value",
          "type": "uint256"
        }
      ],
      "name": "Transfer",
      "type": "event"
    },
    {
      "anonymous": false,
      "inputs": [
        {
          "indexed": false,
          "internalType": "address",
          "name": "account",
          "type": "address"
        }
      ],
      "name": "Unpaused",
      "type": "event"
    },
    {
      "inputs": [],
      "name": "ASSET_LIABILITY_MATCH_THRESHOLD",
      "outputs": [
        {
          "internalType": "uint256",
          "name": "",
          "type": "uint256"
        }
      ],
      "stateMutability": "view",
      "type": "function"
    },
    {
      "inputs": [],
      "name": "DEFAULT_ADMIN_ROLE",
      "outputs": [
        {
          "internalType": "bytes32",
          "name": "",
          "type": "bytes32"
        }
      ],
      "stateMutability": "view",
      "type": "function"
    },
    {
      "inputs": [],
      "name": "MINTER_ROLE",
      "outputs": [
        {
          "internalType": "bytes32",
          "name": "",
          "type": "bytes32"
        }
      ],
      "stateMutability": "view",
      "type": "function"
    },
    {
      "inputs": [],
      "name": "OWNER_ROLE",
      "outputs": [
        {
          "internalType": "bytes32",
          "name": "",
          "type": "bytes32"
        }
      ],
      "stateMutability": "view",
      "type": "function"
    },
    {
      "inputs": [],
      "name": "PAUSER_ROLE",
      "outputs": [
        {
          "internalType": "bytes32",
          "name": "",
          "type": "bytes32"
        }
      ],
      "stateMutability": "view",
      "type": "function"
    },
    {
      "inputs": [
        {
          "internalType": "address",
          "name": "owner",
          "type": "address"
        },
        {
          "internalType": "string",
          "name": "name",
          "type": "string"
        },
        {
          "internalType": "string",
          "name": "symbol",
          "type": "string"
        },
        {
          "internalType": "contract GoldfinchConfig",
          "name": "_config",
          "type": "address"
        }
      ],
      "name": "__initialize__",
      "outputs": [],
      "stateMutability": "nonpayable",
      "type": "function"
    },
    {
      "inputs": [
        {
          "internalType": "address",
          "name": "owner",
          "type": "address"
        },
        {
          "internalType": "address",
          "name": "spender",
          "type": "address"
        }
      ],
      "name": "allowance",
      "outputs": [
        {
          "internalType": "uint256",
          "name": "",
          "type": "uint256"
        }
      ],
      "stateMutability": "view",
      "type": "function"
    },
    {
      "inputs": [
        {
          "internalType": "address",
          "name": "spender",
          "type": "address"
        },
        {
          "internalType": "uint256",
          "name": "amount",
          "type": "uint256"
        }
      ],
      "name": "approve",
      "outputs": [
        {
          "internalType": "bool",
          "name": "",
          "type": "bool"
        }
      ],
      "stateMutability": "nonpayable",
      "type": "function"
    },
    {
      "inputs": [
        {
          "internalType": "address",
          "name": "account",
          "type": "address"
        }
      ],
      "name": "balanceOf",
      "outputs": [
        {
          "internalType": "uint256",
          "name": "",
          "type": "uint256"
        }
      ],
      "stateMutability": "view",
      "type": "function"
    },
    {
      "inputs": [
        {
          "internalType": "uint256",
          "name": "amount",
          "type": "uint256"
        }
      ],
      "name": "burn",
      "outputs": [],
      "stateMutability": "nonpayable",
      "type": "function"
    },
    {
      "inputs": [
        {
          "internalType": "address",
          "name": "from",
          "type": "address"
        },
        {
          "internalType": "uint256",
          "name": "amount",
          "type": "uint256"
        }
      ],
      "name": "burnFrom",
      "outputs": [],
      "stateMutability": "nonpayable",
      "type": "function"
    },
    {
      "inputs": [],
      "name": "config",
      "outputs": [
        {
          "internalType": "contract GoldfinchConfig",
          "name": "",
          "type": "address"
        }
      ],
      "stateMutability": "view",
      "type": "function"
    },
    {
      "inputs": [],
      "name": "decimals",
      "outputs": [
        {
          "internalType": "uint8",
          "name": "",
          "type": "uint8"
        }
      ],
      "stateMutability": "view",
      "type": "function"
    },
    {
      "inputs": [
        {
          "internalType": "address",
          "name": "spender",
          "type": "address"
        },
        {
          "internalType": "uint256",
          "name": "subtractedValue",
          "type": "uint256"
        }
      ],
      "name": "decreaseAllowance",
      "outputs": [
        {
          "internalType": "bool",
          "name": "",
          "type": "bool"
        }
      ],
      "stateMutability": "nonpayable",
      "type": "function"
    },
    {
      "inputs": [
        {
          "internalType": "bytes32",
          "name": "role",
          "type": "bytes32"
        }
      ],
      "name": "getRoleAdmin",
      "outputs": [
        {
          "internalType": "bytes32",
          "name": "",
          "type": "bytes32"
        }
      ],
      "stateMutability": "view",
      "type": "function"
    },
    {
      "inputs": [
        {
          "internalType": "bytes32",
          "name": "role",
          "type": "bytes32"
        },
        {
          "internalType": "uint256",
          "name": "index",
          "type": "uint256"
        }
      ],
      "name": "getRoleMember",
      "outputs": [
        {
          "internalType": "address",
          "name": "",
          "type": "address"
        }
      ],
      "stateMutability": "view",
      "type": "function"
    },
    {
      "inputs": [
        {
          "internalType": "bytes32",
          "name": "role",
          "type": "bytes32"
        }
      ],
      "name": "getRoleMemberCount",
      "outputs": [
        {
          "internalType": "uint256",
          "name": "",
          "type": "uint256"
        }
      ],
      "stateMutability": "view",
      "type": "function"
    },
    {
      "inputs": [
        {
          "internalType": "bytes32",
          "name": "role",
          "type": "bytes32"
        },
        {
          "internalType": "address",
          "name": "account",
          "type": "address"
        }
      ],
      "name": "grantRole",
      "outputs": [],
      "stateMutability": "nonpayable",
      "type": "function"
    },
    {
      "inputs": [
        {
          "internalType": "bytes32",
          "name": "role",
          "type": "bytes32"
        },
        {
          "internalType": "address",
          "name": "account",
          "type": "address"
        }
      ],
      "name": "hasRole",
      "outputs": [
        {
          "internalType": "bool",
          "name": "",
          "type": "bool"
        }
      ],
      "stateMutability": "view",
      "type": "function"
    },
    {
      "inputs": [
        {
          "internalType": "address",
          "name": "spender",
          "type": "address"
        },
        {
          "internalType": "uint256",
          "name": "addedValue",
          "type": "uint256"
        }
      ],
      "name": "increaseAllowance",
      "outputs": [
        {
          "internalType": "bool",
          "name": "",
          "type": "bool"
        }
      ],
      "stateMutability": "nonpayable",
      "type": "function"
    },
    {
      "inputs": [
        {
          "internalType": "string",
          "name": "name",
          "type": "string"
        },
        {
          "internalType": "string",
          "name": "symbol",
          "type": "string"
        }
      ],
      "name": "initialize",
      "outputs": [],
      "stateMutability": "nonpayable",
      "type": "function"
    },
    {
      "inputs": [
        {
          "internalType": "address",
          "name": "to",
          "type": "address"
        },
        {
          "internalType": "uint256",
          "name": "amount",
          "type": "uint256"
        }
      ],
      "name": "mint",
      "outputs": [],
      "stateMutability": "nonpayable",
      "type": "function"
    },
    {
      "inputs": [
        {
          "internalType": "address",
          "name": "to",
          "type": "address"
        },
        {
          "internalType": "uint256",
          "name": "amount",
          "type": "uint256"
        }
      ],
      "name": "mintTo",
      "outputs": [],
      "stateMutability": "nonpayable",
      "type": "function"
    },
    {
      "inputs": [],
      "name": "name",
      "outputs": [
        {
          "internalType": "string",
          "name": "",
          "type": "string"
        }
      ],
      "stateMutability": "view",
      "type": "function"
    },
    {
      "inputs": [],
      "name": "pause",
      "outputs": [],
      "stateMutability": "nonpayable",
      "type": "function"
    },
    {
      "inputs": [],
      "name": "paused",
      "outputs": [
        {
          "internalType": "bool",
          "name": "",
          "type": "bool"
        }
      ],
      "stateMutability": "view",
      "type": "function"
    },
    {
      "inputs": [
        {
          "internalType": "bytes32",
          "name": "role",
          "type": "bytes32"
        },
        {
          "internalType": "address",
          "name": "account",
          "type": "address"
        }
      ],
      "name": "renounceRole",
      "outputs": [],
      "stateMutability": "nonpayable",
      "type": "function"
    },
    {
      "inputs": [
        {
          "internalType": "bytes32",
          "name": "role",
          "type": "bytes32"
        },
        {
          "internalType": "address",
          "name": "account",
          "type": "address"
        }
      ],
      "name": "revokeRole",
      "outputs": [],
      "stateMutability": "nonpayable",
      "type": "function"
    },
    {
      "inputs": [],
      "name": "symbol",
      "outputs": [
        {
          "internalType": "string",
          "name": "",
          "type": "string"
        }
      ],
      "stateMutability": "view",
      "type": "function"
    },
    {
      "inputs": [],
      "name": "totalSupply",
      "outputs": [
        {
          "internalType": "uint256",
          "name": "",
          "type": "uint256"
        }
      ],
      "stateMutability": "view",
      "type": "function"
    },
    {
      "inputs": [
        {
          "internalType": "address",
          "name": "recipient",
          "type": "address"
        },
        {
          "internalType": "uint256",
          "name": "amount",
          "type": "uint256"
        }
      ],
      "name": "transfer",
      "outputs": [
        {
          "internalType": "bool",
          "name": "",
          "type": "bool"
        }
      ],
      "stateMutability": "nonpayable",
      "type": "function"
    },
    {
      "inputs": [
        {
          "internalType": "address",
          "name": "sender",
          "type": "address"
        },
        {
          "internalType": "address",
          "name": "recipient",
          "type": "address"
        },
        {
          "internalType": "uint256",
          "name": "amount",
          "type": "uint256"
        }
      ],
      "name": "transferFrom",
      "outputs": [
        {
          "internalType": "bool",
          "name": "",
          "type": "bool"
        }
      ],
      "stateMutability": "nonpayable",
      "type": "function"
    },
    {
      "inputs": [],
      "name": "unpause",
      "outputs": [],
      "stateMutability": "nonpayable",
      "type": "function"
    }
  ],
  "transactionHash": "0x6426bb4854fab895bf2b27e3e5e7df48db6621a3af896279b4e14f357b3c42d4",
  "args": [],
  "solcInputHash": "bf6f46dcbe6f600dbdc728698b461228",
  "bytecode": "0x608060405234801561001057600080fd5b5061256c806100206000396000f3fe608060405234801561001057600080fd5b50600436106101bb5760003560e01c806370a08231116100fa578063a457c2d71161009d578063a457c2d714610366578063a9059cbb14610379578063ca15c8731461038c578063d53913931461039f578063d547741f146103a7578063dd62ed3e146103ba578063e58378bb146103cd578063e63ab1e9146103d5578063f77356f0146103dd576101bb565b806370a08231146102ed57806379502c551461030057806379cc6790146103155780638456cb59146103285780639010d07c1461033057806391d148541461034357806395d89b4114610356578063a217fddf1461035e576101bb565b8063395093511161016257806339509351146102765780633f4ba83a1461028957806340c10f191461029157806342966c68146102a4578063449a52f8146102b75780634cd88b76146102ca5780635c975abb146102dd57806363be2030146102e5576101bb565b806306fdde03146101c0578063095ea7b3146101de57806318160ddd146101fe57806323b872dd14610213578063248a9ca3146102265780632f2ff15d14610239578063313ce5671461024e57806336568abe14610263575b600080fd5b6101c86103f0565b6040516101d59190611d97565b60405180910390f35b6101f16101ec366004611c6e565b610486565b6040516101d59190611d83565b6102066104a4565b6040516101d59190611d8e565b6101f1610221366004611b9c565b6104aa565b610206610234366004611c99565b610531565b61024c610247366004611cb1565b610549565b005b61025661059a565b6040516101d591906123de565b61024c610271366004611cb1565b6105a3565b6101f1610284366004611c6e565b6105e5565b61024c610633565b61024c61029f366004611c6e565b610673565b61024c6102b2366004611c99565b6106b3565b61024c6102c5366004611c6e565b6106c7565b61024c6102d8366004611cf6565b6106f6565b6101f1610700565b610206610709565b6102066102fb366004611b2c565b610710565b61030861072b565b6040516101d59190611d6f565b61024c610323366004611c6e565b61073b565b61024c6107a0565b61030861033e366004611cd5565b6107de565b6101f1610351366004611cb1565b6107fd565b6101c8610815565b610206610876565b6101f1610374366004611c6e565b61087b565b6101f1610387366004611c6e565b6108e3565b61020661039a366004611c99565b6108f7565b61020661090e565b61024c6103b5366004611cb1565b610920565b6102066103c8366004611b64565b61095a565b610206610985565b610206610997565b61024c6103eb366004611bdc565b6109a9565b609a8054604080516020601f600260001961010060018816150201909516949094049384018190048102820181019092528281526060939092909183018282801561047c5780601f106104515761010080835404028352916020019161047c565b820191906000526020600020905b81548152906001019060200180831161045f57829003601f168201915b5050505050905090565b600061049a610493610b95565b8484610b99565b5060015b92915050565b60995490565b60006104b7848484610c4d565b610527846104c3610b95565b6105228560405180606001604052806028815260200161248a602891396001600160a01b038a16600090815260986020526040812090610501610b95565b6001600160a01b031681526020810191909152604001600020549190610d50565b610b99565b5060019392505050565b6000818152606560205260409020600201545b919050565b60008281526065602052604090206002015461056790610351610b95565b61058c5760405162461bcd60e51b815260040161058390611e6f565b60405180910390fd5b6105968282610d7c565b5050565b609c5460ff1690565b6105ab610b95565b6001600160a01b0316816001600160a01b0316146105db5760405162461bcd60e51b81526004016105839061230e565b6105968282610de5565b600061049a6105f2610b95565b846105228560986000610603610b95565b6001600160a01b03908116825260208083019390935260409182016000908120918c168152925290205490610e4e565b61064d6000805160206124b2833981519152610351610b95565b6106695760405162461bcd60e51b815260040161058390611eec565b610671610e73565b565b61068d6000805160206124d2833981519152610351610b95565b6106a95760405162461bcd60e51b8152600401610583906120bf565b6105968282610edf565b6106c46106be610b95565b82610f8d565b50565b6106d081611051565b6106ec5760405162461bcd60e51b8152600401610583906122b6565b6105968282610673565b61059682826111c0565b60fb5460ff1690565b620f424081565b6001600160a01b031660009081526097602052604090205490565b610191546001600160a01b031681565b6107556000805160206124d2833981519152610351610b95565b6107715760405162461bcd60e51b8152600401610583906121d7565b61077a81611281565b6107965760405162461bcd60e51b815260040161058390612067565b6105968282610f8d565b6107ba6000805160206124b2833981519152610351610b95565b6107d65760405162461bcd60e51b815260040161058390612271565b610671611331565b60008281526065602052604081206107f6908361138a565b9392505050565b60008281526065602052604081206107f69083611396565b609b8054604080516020601f600260001961010060018816150201909516949094049384018190048102820181019092528281526060939092909183018282801561047c5780601f106104515761010080835404028352916020019161047c565b600081565b600061049a610888610b95565b846105228560405180606001604052806025815260200161251260259139609860006108b2610b95565b6001600160a01b03908116825260208083019390935260409182016000908120918d16815292529020549190610d50565b600061049a6108f0610b95565b8484610c4d565b600081815260656020526040812061049e906113ab565b6000805160206124d283398151915281565b60008281526065602052604090206002015461093e90610351610b95565b6105db5760405162461bcd60e51b815260040161058390611fac565b6001600160a01b03918216600090815260986020908152604080832093909416825291909152205490565b60008051602061246a83398151915281565b6000805160206124b283398151915281565b600054610100900460ff16806109c257506109c26113b6565b806109d0575060005460ff16155b6109ec5760405162461bcd60e51b815260040161058390612103565b600054610100900460ff16158015610a17576000805460ff1961ff0019909116610100171660011790555b610a1f6113bc565b610a276113bc565b610a9a86868080601f01602080910402602001604051908101604052809392919081815260200183838082843760009201919091525050604080516020601f8a01819004810282018101909252888152925088915087908190840183828082843760009201919091525061143e92505050565b610aa26113bc565b610aaa6114f7565b610ab26113bc565b61019180546001600160a01b0319166001600160a01b038416179055610ae66000805160206124d28339815191528861058c565b610afe6000805160206124b28339815191528861058c565b610b1660008051602061246a8339815191528861058c565b610b3c6000805160206124d283398151915260008051602061246a833981519152611583565b610b626000805160206124b283398151915260008051602061246a833981519152611583565b610b7a60008051602061246a83398151915280611583565b8015610b8c576000805461ff00191690555b50505050505050565b3390565b6001600160a01b038316610bbf5760405162461bcd60e51b81526004016105839061222d565b6001600160a01b038216610be55760405162461bcd60e51b815260040161058390611f33565b6001600160a01b0380841660008181526098602090815260408083209487168084529490915290819020849055517f8c5be1e5ebec7d5bd14f71427d1e84f3dd0314c0f7b2291e5b200ac8c7c3b92590610c40908590611d8e565b60405180910390a3505050565b6001600160a01b038316610c735760405162461bcd60e51b815260040161058390612192565b6001600160a01b038216610c995760405162461bcd60e51b815260040161058390611e2c565b610ca4838383611598565b610ce181604051806060016040528060268152602001612444602691396001600160a01b0386166000908152609760205260409020549190610d50565b6001600160a01b038085166000908152609760205260408082209390935590841681522054610d109082610e4e565b6001600160a01b0380841660008181526097602052604090819020939093559151908516906000805160206124f283398151915290610c40908590611d8e565b60008184841115610d745760405162461bcd60e51b81526004016105839190611d97565b505050900390565b6000828152606560205260409020610d9490826115a3565b1561059657610da1610b95565b6001600160a01b0316816001600160a01b0316837f2f8788117e7eff1d82e926ec794901d17c78024a50270940304540a733656f0d60405160405180910390a45050565b6000828152606560205260409020610dfd90826115b8565b1561059657610e0a610b95565b6001600160a01b0316816001600160a01b0316837ff6391f5c32d9c69d2a47ea670b442974b53935d1edc7fd64eb21e047a839171b60405160405180910390a45050565b6000828201838110156107f65760405162461bcd60e51b815260040161058390611f75565b60fb5460ff16610e955760405162461bcd60e51b815260040161058390611ebe565b60fb805460ff191690557f5db9ee0a495bf2e6ff9c91a7834c1ba4fdd244a5e8aa4e537bd38aeae4b073aa610ec8610b95565b604051610ed59190611d6f565b60405180910390a1565b6001600160a01b038216610f055760405162461bcd60e51b81526004016105839061235d565b610f1160008383611598565b609954610f1e9082610e4e565b6099556001600160a01b038216600090815260976020526040902054610f449082610e4e565b6001600160a01b0383166000818152609760205260408082209390935591519091906000805160206124f283398151915290610f81908590611d8e565b60405180910390a35050565b6001600160a01b038216610fb35760405162461bcd60e51b815260040161058390612151565b610fbf82600083611598565b610ffc81604051806060016040528060228152602001612402602291396001600160a01b0385166000908152609760205260409020549190610d50565b6001600160a01b03831660009081526097602052604090205560995461102290826115cd565b6099556040516000906001600160a01b038416906000805160206124f283398151915290610f81908590611d8e565b61019154600090819061106c906001600160a01b031661160f565b9050600061110d61107b61161a565b611107846001600160a01b031663872697296040518163ffffffff1660e01b815260040160206040518083038186803b1580156110b757600080fd5b505afa1580156110cb573d6000803e3d6000fd5b505050506040513d601f19601f820116820180604052508101906110ef9190611d57565b611101886110fb6104a4565b90610e4e565b90611626565b90611660565b9050600061111a826116a2565b90506000836001600160a01b03166371a973056040518163ffffffff1660e01b815260040160206040518083038186803b15801561115757600080fd5b505afa15801561116b573d6000803e3d6000fd5b505050506040513d601f19601f8201168201806040525081019061118f9190611d57565b90508181106111a5576001945050505050610544565b620f42406111b383836115cd565b1115945050505050610544565b600054610100900460ff16806111d957506111d96113b6565b806111e7575060005460ff16155b6112035760405162461bcd60e51b815260040161058390612103565b600054610100900460ff1615801561122e576000805460ff1961ff0019909116610100171660011790555b6112366113bc565b61123e6113bc565b611248838361143e565b6112506113bc565b6112586114f7565b6112606113bc565b61126a83836116c1565b801561127c576000805461ff00191690555b505050565b61019154600090819061129c906001600160a01b031661160f565b9050600061110d6112ab61161a565b611107846001600160a01b031663872697296040518163ffffffff1660e01b815260040160206040518083038186803b1580156112e757600080fd5b505afa1580156112fb573d6000803e3d6000fd5b505050506040513d601f19601f8201168201806040525081019061131f9190611d57565b6111018861132b6104a4565b906115cd565b60fb5460ff16156113545760405162461bcd60e51b815260040161058390611ffc565b60fb805460ff191660011790557f62e78cea01bee320cd4e420270b5ea74000d11b0c9f74754ebdbfc544b05a258610ec8610b95565b60006107f68383611775565b60006107f6836001600160a01b0384166117ba565b600061049e826117d2565b303b1590565b600054610100900460ff16806113d557506113d56113b6565b806113e3575060005460ff16155b6113ff5760405162461bcd60e51b815260040161058390612103565b600054610100900460ff1615801561142a576000805460ff1961ff0019909116610100171660011790555b80156106c4576000805461ff001916905550565b600054610100900460ff168061145757506114576113b6565b80611465575060005460ff16155b6114815760405162461bcd60e51b815260040161058390612103565b600054610100900460ff161580156114ac576000805460ff1961ff0019909116610100171660011790555b82516114bf90609a9060208601906119d4565b5081516114d390609b9060208501906119d4565b50609c805460ff19166012179055801561127c576000805461ff0019169055505050565b600054610100900460ff168061151057506115106113b6565b8061151e575060005460ff16155b61153a5760405162461bcd60e51b815260040161058390612103565b600054610100900460ff16158015611565576000805460ff1961ff0019909116610100171660011790555b60fb805460ff1916905580156106c4576000805461ff001916905550565b60009182526065602052604090912060020155565b61127c8383836117d6565b60006107f6836001600160a01b038416611806565b60006107f6836001600160a01b038416611850565b60006107f683836040518060400160405280601e81526020017f536166654d6174683a207375627472616374696f6e206f766572666c6f770000815250610d50565b600061049e82611916565b670de0b6b3a764000090565b6000826116355750600061049e565b8282028284828161164257fe5b04146107f65760405162461bcd60e51b815260040161058390612026565b60006107f683836040518060400160405280601a81526020017f536166654d6174683a206469766973696f6e206279207a65726f000000000000815250611996565b600061049e6116ba6116b26119cd565b61110761161a565b8390611660565b600054610100900460ff16806116da57506116da6113b6565b806116e8575060005460ff16155b6117045760405162461bcd60e51b815260040161058390612103565b600054610100900460ff1615801561172f576000805460ff1961ff0019909116610100171660011790555b611741600061173c610b95565b61058c565b61175b6000805160206124d283398151915261173c610b95565b61126a6000805160206124b283398151915261173c610b95565b815460009082106117985760405162461bcd60e51b815260040161058390611dea565b8260000182815481106117a757fe5b9060005260206000200154905092915050565b60009081526001919091016020526040902054151590565b5490565b6117e183838361127c565b6117e9610700565b1561127c5760405162461bcd60e51b815260040161058390612394565b600061181283836117ba565b6118485750815460018181018455600084815260208082209093018490558454848252828601909352604090209190915561049e565b50600061049e565b6000818152600183016020526040812054801561190c578354600019808301919081019060009087908390811061188357fe5b90600052602060002001549050808760000184815481106118a057fe5b6000918252602080832090910192909255828152600189810190925260409020908401905586548790806118d057fe5b6001900381819060005260206000200160009055905586600101600087815260200190815260200160002060009055600194505050505061049e565b600091505061049e565b604051635c9fcd8560e11b81526000906001600160a01b0383169063b93f9b0a9061194690600e90600401611d8e565b60206040518083038186803b15801561195e57600080fd5b505afa158015611972573d6000803e3d6000fd5b505050506040513d601f19601f8201168201806040525081019061049e9190611b48565b600081836119b75760405162461bcd60e51b81526004016105839190611d97565b5060008385816119c357fe5b0495945050505050565b620f424090565b828054600181600116156101000203166002900490600052602060002090601f016020900481019282601f10611a1557805160ff1916838001178555611a42565b82800160010185558215611a42579182015b82811115611a42578251825591602001919060010190611a27565b50611a4e929150611a52565b5090565b5b80821115611a4e5760008155600101611a53565b60008083601f840112611a78578182fd5b50813567ffffffffffffffff811115611a8f578182fd5b602083019150836020828501011115611aa757600080fd5b9250929050565b600082601f830112611abe578081fd5b813567ffffffffffffffff80821115611ad5578283fd5b604051601f8301601f191681016020018281118282101715611af5578485fd5b604052828152925082848301602001861015611b1057600080fd5b8260208601602083013760006020848301015250505092915050565b600060208284031215611b3d578081fd5b81356107f6816123ec565b600060208284031215611b59578081fd5b81516107f6816123ec565b60008060408385031215611b76578081fd5b8235611b81816123ec565b91506020830135611b91816123ec565b809150509250929050565b600080600060608486031215611bb0578081fd5b8335611bbb816123ec565b92506020840135611bcb816123ec565b929592945050506040919091013590565b60008060008060008060808789031215611bf4578182fd5b8635611bff816123ec565b9550602087013567ffffffffffffffff80821115611c1b578384fd5b611c278a838b01611a67565b90975095506040890135915080821115611c3f578384fd5b50611c4c89828a01611a67565b9094509250506060870135611c60816123ec565b809150509295509295509295565b60008060408385031215611c80578182fd5b8235611c8b816123ec565b946020939093013593505050565b600060208284031215611caa578081fd5b5035919050565b60008060408385031215611cc3578182fd5b823591506020830135611b91816123ec565b60008060408385031215611ce7578182fd5b50508035926020909101359150565b60008060408385031215611d08578182fd5b823567ffffffffffffffff80821115611d1f578384fd5b611d2b86838701611aae565b93506020850135915080821115611d40578283fd5b50611d4d85828601611aae565b9150509250929050565b600060208284031215611d68578081fd5b5051919050565b6001600160a01b0391909116815260200190565b901515815260200190565b90815260200190565b6000602080835283518082850152825b81811015611dc357858101830151858201604001528201611da7565b81811115611dd45783604083870101525b50601f01601f1916929092016040019392505050565b60208082526022908201527f456e756d657261626c655365743a20696e646578206f7574206f6620626f756e604082015261647360f01b606082015260800190565b60208082526023908201527f45524332303a207472616e7366657220746f20746865207a65726f206164647260408201526265737360e81b606082015260800190565b6020808252602f908201527f416363657373436f6e74726f6c3a2073656e646572206d75737420626520616e60408201526e0818591b5a5b881d1bc819dc985b9d608a1b606082015260800190565b60208082526014908201527314185d5cd8589b194e881b9bdd081c185d5cd95960621b604082015260600190565b602080825260399082015260008051602061242483398151915260408201527876652070617573657220726f6c6520746f20756e706175736560381b606082015260800190565b60208082526022908201527f45524332303a20617070726f766520746f20746865207a65726f206164647265604082015261737360f01b606082015260800190565b6020808252601b908201527f536166654d6174683a206164646974696f6e206f766572666c6f770000000000604082015260600190565b60208082526030908201527f416363657373436f6e74726f6c3a2073656e646572206d75737420626520616e60408201526f2061646d696e20746f207265766f6b6560801b606082015260800190565b60208082526010908201526f14185d5cd8589b194e881c185d5cd95960821b604082015260600190565b60208082526021908201527f536166654d6174683a206d756c7469706c69636174696f6e206f766572666c6f6040820152607760f81b606082015260800190565b60208082526038908201527f43616e6e6f74206275726e3a20697420776f756c642063726561746520616e206040820152770c2e6e6cae85ed8d2c2c4d2d8d2e8f240dad2e6dac2e8c6d60431b606082015260800190565b60208082526036908201526000805160206124248339815191526040820152751d99481b5a5b9d195c881c9bdb19481d1bc81b5a5b9d60521b606082015260800190565b6020808252602e908201527f436f6e747261637420696e7374616e63652068617320616c726561647920626560408201526d195b881a5b9a5d1a585b1a5e995960921b606082015260800190565b60208082526021908201527f45524332303a206275726e2066726f6d20746865207a65726f206164647265736040820152607360f81b606082015260800190565b60208082526025908201527f45524332303a207472616e736665722066726f6d20746865207a65726f206164604082015264647265737360d81b606082015260800190565b60208082526036908201527f45524332305072657365744d696e7465725061757365723a204d7573742068616040820152753b329036b4b73a32b9103937b632903a3790313ab93760511b606082015260800190565b60208082526024908201527f45524332303a20617070726f76652066726f6d20746865207a65726f206164646040820152637265737360e01b606082015260800190565b602080825260379082015260008051602061242483398151915260408201527676652070617573657220726f6c6520746f20706175736560481b606082015260800190565b60208082526038908201527f43616e6e6f74206d696e743a20697420776f756c642063726561746520616e206040820152770c2e6e6cae85ed8d2c2c4d2d8d2e8f240dad2e6dac2e8c6d60431b606082015260800190565b6020808252602f908201527f416363657373436f6e74726f6c3a2063616e206f6e6c792072656e6f756e636560408201526e103937b632b9903337b91039b2b63360891b606082015260800190565b6020808252601f908201527f45524332303a206d696e7420746f20746865207a65726f206164647265737300604082015260600190565b6020808252602a908201527f45524332305061757361626c653a20746f6b656e207472616e736665722077686040820152691a5b19481c185d5cd95960b21b606082015260800190565b60ff91909116815260200190565b6001600160a01b03811681146106c457600080fdfe45524332303a206275726e20616d6f756e7420657863656564732062616c616e636545524332305072657365744d696e7465725061757365723a206d75737420686145524332303a207472616e7366657220616d6f756e7420657863656564732062616c616e6365b19546dff01e856fb3f010c267a7b1c60363cf8a4664e21cc89c26224620214e45524332303a207472616e7366657220616d6f756e74206578636565647320616c6c6f77616e636565d7a28e3265b37a6474929f336521b332c1681b933f6cb9f3376673440d862a9f2df0fed2c77648de5860a4cc508cd0818c85b8b8a1ab4ceeef8d981c8956a6ddf252ad1be2c89b69c2b068fc378daa952ba7f163c4a11628f55a4df523b3ef45524332303a2064656372656173656420616c6c6f77616e63652062656c6f77207a65726fa2646970667358221220ae55de5ee69c5db64c132869f49cf4f29ba89418a84860212b92adbf6c5b2e5964736f6c634300060c0033",
  "devdoc": {
    "author": "Goldfinch",
    "kind": "dev",
    "methods": {
      "allowance(address,address)": {
        "details": "See {IERC20-allowance}."
      },
      "approve(address,uint256)": {
        "details": "See {IERC20-approve}. Requirements: - `spender` cannot be the zero address."
      },
      "balanceOf(address)": {
        "details": "See {IERC20-balanceOf}."
      },
      "burn(uint256)": {
        "details": "Destroys `amount` tokens from the caller. See {ERC20-_burn}."
      },
      "burnFrom(address,uint256)": {
        "details": "Destroys `amount` tokens from `account`, deducting from the caller's allowance. See {ERC20-_burn} and {ERC20-allowance}. Requirements: - the caller must have the MINTER_ROLE"
      },
      "decimals()": {
        "details": "Returns the number of decimals used to get its user representation. For example, if `decimals` equals `2`, a balance of `505` tokens should be displayed to a user as `5,05` (`505 / 10 ** 2`). Tokens usually opt for a value of 18, imitating the relationship between Ether and Wei. This is the value {ERC20} uses, unless {_setupDecimals} is called. NOTE: This information is only used for _display_ purposes: it in no way affects any of the arithmetic of the contract, including {IERC20-balanceOf} and {IERC20-transfer}."
      },
      "decreaseAllowance(address,uint256)": {
        "details": "Atomically decreases the allowance granted to `spender` by the caller. This is an alternative to {approve} that can be used as a mitigation for problems described in {IERC20-approve}. Emits an {Approval} event indicating the updated allowance. Requirements: - `spender` cannot be the zero address. - `spender` must have allowance for the caller of at least `subtractedValue`."
      },
      "getRoleAdmin(bytes32)": {
        "details": "Returns the admin role that controls `role`. See {grantRole} and {revokeRole}. To change a role's admin, use {_setRoleAdmin}."
      },
      "getRoleMember(bytes32,uint256)": {
        "details": "Returns one of the accounts that have `role`. `index` must be a value between 0 and {getRoleMemberCount}, non-inclusive. Role bearers are not sorted in any particular way, and their ordering may change at any point. WARNING: When using {getRoleMember} and {getRoleMemberCount}, make sure you perform all queries on the same block. See the following https://forum.openzeppelin.com/t/iterating-over-elements-on-enumerableset-in-openzeppelin-contracts/2296[forum post] for more information."
      },
      "getRoleMemberCount(bytes32)": {
        "details": "Returns the number of accounts that have `role`. Can be used together with {getRoleMember} to enumerate all bearers of a role."
      },
      "grantRole(bytes32,address)": {
        "details": "Grants `role` to `account`. If `account` had not been already granted `role`, emits a {RoleGranted} event. Requirements: - the caller must have ``role``'s admin role."
      },
      "hasRole(bytes32,address)": {
        "details": "Returns `true` if `account` has been granted `role`."
      },
      "increaseAllowance(address,uint256)": {
        "details": "Atomically increases the allowance granted to `spender` by the caller. This is an alternative to {approve} that can be used as a mitigation for problems described in {IERC20-approve}. Emits an {Approval} event indicating the updated allowance. Requirements: - `spender` cannot be the zero address."
      },
      "initialize(string,string)": {
        "details": "Grants `DEFAULT_ADMIN_ROLE`, `MINTER_ROLE` and `PAUSER_ROLE` to the account that deploys the contract. See {ERC20-constructor}."
      },
      "mint(address,uint256)": {
        "details": "Creates `amount` new tokens for `to`. See {ERC20-_mint}. Requirements: - the caller must have the `MINTER_ROLE`."
      },
      "mintTo(address,uint256)": {
        "details": "Creates `amount` new tokens for `to`. See {ERC20-_mint}. Requirements: - the caller must have the `MINTER_ROLE`."
      },
      "name()": {
        "details": "Returns the name of the token."
      },
      "pause()": {
        "details": "Pauses all token transfers. See {ERC20Pausable} and {Pausable-_pause}. Requirements: - the caller must have the `PAUSER_ROLE`."
      },
      "paused()": {
        "details": "Returns true if the contract is paused, and false otherwise."
      },
      "renounceRole(bytes32,address)": {
        "details": "Revokes `role` from the calling account. Roles are often managed via {grantRole} and {revokeRole}: this function's purpose is to provide a mechanism for accounts to lose their privileges if they are compromised (such as when a trusted device is misplaced). If the calling account had been granted `role`, emits a {RoleRevoked} event. Requirements: - the caller must be `account`."
      },
      "revokeRole(bytes32,address)": {
        "details": "Revokes `role` from `account`. If `account` had been granted `role`, emits a {RoleRevoked} event. Requirements: - the caller must have ``role``'s admin role."
      },
      "symbol()": {
        "details": "Returns the symbol of the token, usually a shorter version of the name."
      },
      "totalSupply()": {
        "details": "See {IERC20-totalSupply}."
      },
      "transfer(address,uint256)": {
        "details": "See {IERC20-transfer}. Requirements: - `recipient` cannot be the zero address. - the caller must have a balance of at least `amount`."
      },
      "transferFrom(address,address,uint256)": {
        "details": "See {IERC20-transferFrom}. Emits an {Approval} event indicating the updated allowance. This is not required by the EIP. See the note at the beginning of {ERC20}; Requirements: - `sender` and `recipient` cannot be the zero address. - `sender` must have a balance of at least `amount`. - the caller must have allowance for ``sender``'s tokens of at least `amount`."
      },
      "unpause()": {
        "details": "Unpauses all token transfers. See {ERC20Pausable} and {Pausable-_unpause}. Requirements: - the caller must have the `PAUSER_ROLE`."
      }
    },
    "title": "Fidu",
    "version": 1
  },
  "userdoc": {
    "kind": "user",
    "methods": {},
    "notice": "Fidu (symbol: FIDU) is Goldfinch's liquidity token, representing shares  in the Pool. When you deposit, we mint a corresponding amount of Fidu, and when you withdraw, we  burn Fidu. The share price of the Pool implicitly represents the \"exchange rate\" between Fidu  and USDC (or whatever currencies the Pool may allow withdraws in during the future)",
    "version": 1
  },
  "storageLayout": {
    "storage": [
      {
        "astId": 50,
        "contract": "contracts/protocol/core/Fidu.sol:Fidu",
        "label": "initialized",
        "offset": 0,
        "slot": "0",
        "type": "t_bool"
      },
      {
        "astId": 53,
        "contract": "contracts/protocol/core/Fidu.sol:Fidu",
        "label": "initializing",
        "offset": 1,
        "slot": "0",
        "type": "t_bool"
      },
      {
        "astId": 118,
        "contract": "contracts/protocol/core/Fidu.sol:Fidu",
        "label": "______gap",
        "offset": 0,
        "slot": "1",
        "type": "t_array(t_uint256)50_storage"
      },
      {
        "astId": 43,
        "contract": "contracts/protocol/core/Fidu.sol:Fidu",
        "label": "__gap",
        "offset": 0,
        "slot": "51",
        "type": "t_array(t_uint256)50_storage"
      },
      {
        "astId": 163,
        "contract": "contracts/protocol/core/Fidu.sol:Fidu",
        "label": "_roles",
        "offset": 0,
        "slot": "101",
        "type": "t_mapping(t_bytes32,t_struct(RoleData)159_storage)"
      },
      {
        "astId": 408,
        "contract": "contracts/protocol/core/Fidu.sol:Fidu",
        "label": "__gap",
        "offset": 0,
        "slot": "102",
        "type": "t_array(t_uint256)49_storage"
      },
      {
        "astId": 1082,
        "contract": "contracts/protocol/core/Fidu.sol:Fidu",
        "label": "_balances",
        "offset": 0,
        "slot": "151",
        "type": "t_mapping(t_address,t_uint256)"
      },
      {
        "astId": 1088,
        "contract": "contracts/protocol/core/Fidu.sol:Fidu",
        "label": "_allowances",
        "offset": 0,
        "slot": "152",
        "type": "t_mapping(t_address,t_mapping(t_address,t_uint256))"
      },
      {
        "astId": 1090,
        "contract": "contracts/protocol/core/Fidu.sol:Fidu",
        "label": "_totalSupply",
        "offset": 0,
        "slot": "153",
        "type": "t_uint256"
      },
      {
        "astId": 1092,
        "contract": "contracts/protocol/core/Fidu.sol:Fidu",
        "label": "_name",
        "offset": 0,
        "slot": "154",
        "type": "t_string_storage"
      },
      {
        "astId": 1094,
        "contract": "contracts/protocol/core/Fidu.sol:Fidu",
        "label": "_symbol",
        "offset": 0,
        "slot": "155",
        "type": "t_string_storage"
      },
      {
        "astId": 1096,
        "contract": "contracts/protocol/core/Fidu.sol:Fidu",
        "label": "_decimals",
        "offset": 0,
        "slot": "156",
        "type": "t_uint8"
      },
      {
        "astId": 1591,
        "contract": "contracts/protocol/core/Fidu.sol:Fidu",
        "label": "__gap",
        "offset": 0,
        "slot": "157",
        "type": "t_array(t_uint256)44_storage"
      },
      {
        "astId": 1672,
        "contract": "contracts/protocol/core/Fidu.sol:Fidu",
        "label": "__gap",
        "offset": 0,
        "slot": "201",
        "type": "t_array(t_uint256)50_storage"
      },
      {
        "astId": 3207,
        "contract": "contracts/protocol/core/Fidu.sol:Fidu",
        "label": "_paused",
        "offset": 0,
        "slot": "251",
        "type": "t_bool"
      },
      {
        "astId": 3296,
        "contract": "contracts/protocol/core/Fidu.sol:Fidu",
        "label": "__gap",
        "offset": 0,
        "slot": "252",
        "type": "t_array(t_uint256)49_storage"
      },
      {
        "astId": 1737,
        "contract": "contracts/protocol/core/Fidu.sol:Fidu",
        "label": "__gap",
        "offset": 0,
        "slot": "301",
        "type": "t_array(t_uint256)50_storage"
      },
      {
        "astId": 1057,
        "contract": "contracts/protocol/core/Fidu.sol:Fidu",
        "label": "__gap",
        "offset": 0,
        "slot": "351",
        "type": "t_array(t_uint256)50_storage"
      },
      {
        "astId": 14246,
        "contract": "contracts/protocol/core/Fidu.sol:Fidu",
        "label": "config",
        "offset": 0,
        "slot": "401",
        "type": "t_contract(GoldfinchConfig)15934"
      }
    ],
    "types": {
      "t_address": {
        "encoding": "inplace",
        "label": "address",
        "numberOfBytes": "20"
      },
      "t_array(t_bytes32)dyn_storage": {
        "base": "t_bytes32",
        "encoding": "dynamic_array",
        "label": "bytes32[]",
        "numberOfBytes": "32"
      },
      "t_array(t_uint256)44_storage": {
        "base": "t_uint256",
        "encoding": "inplace",
        "label": "uint256[44]",
        "numberOfBytes": "1408"
      },
      "t_array(t_uint256)49_storage": {
        "base": "t_uint256",
        "encoding": "inplace",
        "label": "uint256[49]",
        "numberOfBytes": "1568"
      },
      "t_array(t_uint256)50_storage": {
        "base": "t_uint256",
        "encoding": "inplace",
        "label": "uint256[50]",
        "numberOfBytes": "1600"
      },
      "t_bool": {
        "encoding": "inplace",
        "label": "bool",
        "numberOfBytes": "1"
      },
      "t_bytes32": {
        "encoding": "inplace",
        "label": "bytes32",
        "numberOfBytes": "32"
      },
      "t_contract(GoldfinchConfig)15934": {
        "encoding": "inplace",
        "label": "contract GoldfinchConfig",
        "numberOfBytes": "20"
      },
      "t_mapping(t_address,t_mapping(t_address,t_uint256))": {
        "encoding": "mapping",
        "key": "t_address",
        "label": "mapping(address => mapping(address => uint256))",
        "numberOfBytes": "32",
        "value": "t_mapping(t_address,t_uint256)"
      },
      "t_mapping(t_address,t_uint256)": {
        "encoding": "mapping",
        "key": "t_address",
        "label": "mapping(address => uint256)",
        "numberOfBytes": "32",
        "value": "t_uint256"
      },
      "t_mapping(t_bytes32,t_struct(RoleData)159_storage)": {
        "encoding": "mapping",
        "key": "t_bytes32",
        "label": "mapping(bytes32 => struct AccessControlUpgradeSafe.RoleData)",
        "numberOfBytes": "32",
        "value": "t_struct(RoleData)159_storage"
      },
      "t_mapping(t_bytes32,t_uint256)": {
        "encoding": "mapping",
        "key": "t_bytes32",
        "label": "mapping(bytes32 => uint256)",
        "numberOfBytes": "32",
        "value": "t_uint256"
      },
      "t_string_storage": {
        "encoding": "bytes",
        "label": "string",
        "numberOfBytes": "32"
      },
      "t_struct(AddressSet)2982_storage": {
        "encoding": "inplace",
        "label": "struct EnumerableSet.AddressSet",
        "members": [
          {
            "astId": 2981,
            "contract": "contracts/protocol/core/Fidu.sol:Fidu",
            "label": "_inner",
            "offset": 0,
            "slot": "0",
            "type": "t_struct(Set)2802_storage"
          }
        ],
        "numberOfBytes": "64"
      },
      "t_struct(RoleData)159_storage": {
        "encoding": "inplace",
        "label": "struct AccessControlUpgradeSafe.RoleData",
        "members": [
          {
            "astId": 156,
            "contract": "contracts/protocol/core/Fidu.sol:Fidu",
            "label": "members",
            "offset": 0,
            "slot": "0",
            "type": "t_struct(AddressSet)2982_storage"
          },
          {
            "astId": 158,
            "contract": "contracts/protocol/core/Fidu.sol:Fidu",
            "label": "adminRole",
            "offset": 0,
            "slot": "2",
            "type": "t_bytes32"
          }
        ],
        "numberOfBytes": "96"
      },
      "t_struct(Set)2802_storage": {
        "encoding": "inplace",
        "label": "struct EnumerableSet.Set",
        "members": [
          {
            "astId": 2797,
            "contract": "contracts/protocol/core/Fidu.sol:Fidu",
            "label": "_values",
            "offset": 0,
            "slot": "0",
            "type": "t_array(t_bytes32)dyn_storage"
          },
          {
            "astId": 2801,
            "contract": "contracts/protocol/core/Fidu.sol:Fidu",
            "label": "_indexes",
            "offset": 0,
            "slot": "1",
            "type": "t_mapping(t_bytes32,t_uint256)"
          }
        ],
        "numberOfBytes": "64"
      },
      "t_uint256": {
        "encoding": "inplace",
        "label": "uint256",
        "numberOfBytes": "32"
      },
      "t_uint8": {
        "encoding": "inplace",
        "label": "uint8",
        "numberOfBytes": "1"
      }
    }
  }
}