{
  "address": "0x1E96325dB89E92A339052ccb789E95317B8f7a84",
  "abi": [
    {
      "anonymous": false,
      "inputs": [
        {
          "indexed": true,
          "internalType": "address",
          "name": "capitalProvider",
          "type": "address"
        },
        {
          "indexed": false,
          "internalType": "uint256",
          "name": "amount",
          "type": "uint256"
        },
        {
          "indexed": false,
          "internalType": "uint256",
          "name": "shares",
          "type": "uint256"
        }
      ],
      "name": "DepositMade",
      "type": "event"
    },
    {
      "anonymous": false,
      "inputs": [
        {
          "indexed": true,
          "internalType": "address",
          "name": "who",
          "type": "address"
        },
        {
          "indexed": false,
          "internalType": "address",
          "name": "configAddress",
          "type": "address"
        }
      ],
      "name": "GoldfinchConfigUpdated",
      "type": "event"
    },
    {
      "anonymous": false,
      "inputs": [
        {
          "indexed": true,
          "internalType": "address",
          "name": "payer",
          "type": "address"
        },
        {
          "indexed": false,
          "internalType": "uint256",
          "name": "amount",
          "type": "uint256"
        }
      ],
      "name": "InterestCollected",
      "type": "event"
    },
    {
      "anonymous": false,
      "inputs": [
        {
          "indexed": true,
          "internalType": "address",
          "name": "tranchedPool",
          "type": "address"
        },
        {
          "indexed": false,
          "internalType": "uint256",
          "name": "amount",
          "type": "uint256"
        }
      ],
      "name": "InvestmentMadeInJunior",
      "type": "event"
    },
    {
      "anonymous": false,
      "inputs": [
        {
          "indexed": true,
          "internalType": "address",
          "name": "tranchedPool",
          "type": "address"
        },
        {
          "indexed": false,
          "internalType": "uint256",
          "name": "amount",
          "type": "uint256"
        }
      ],
      "name": "InvestmentMadeInSenior",
      "type": "event"
    },
    {
      "anonymous": false,
      "inputs": [
        {
          "indexed": false,
          "internalType": "address",
          "name": "account",
          "type": "address"
        }
      ],
      "name": "Paused",
      "type": "event"
    },
    {
      "anonymous": false,
      "inputs": [
        {
          "indexed": true,
          "internalType": "address",
          "name": "payer",
          "type": "address"
        },
        {
          "indexed": false,
          "internalType": "uint256",
          "name": "amount",
          "type": "uint256"
        }
      ],
      "name": "PrincipalCollected",
      "type": "event"
    },
    {
      "anonymous": false,
      "inputs": [
        {
          "indexed": true,
          "internalType": "address",
          "name": "tranchedPool",
          "type": "address"
        },
        {
          "indexed": false,
          "internalType": "int256",
          "name": "amount",
          "type": "int256"
        }
      ],
      "name": "PrincipalWrittenDown",
      "type": "event"
    },
    {
      "anonymous": false,
      "inputs": [
        {
          "indexed": true,
          "internalType": "address",
          "name": "user",
          "type": "address"
        },
        {
          "indexed": false,
          "internalType": "uint256",
          "name": "amount",
          "type": "uint256"
        }
      ],
      "name": "ReserveFundsCollected",
      "type": "event"
    },
    {
      "anonymous": false,
      "inputs": [
        {
          "indexed": true,
          "internalType": "bytes32",
          "name": "role",
          "type": "bytes32"
        },
        {
          "indexed": true,
          "internalType": "address",
          "name": "account",
          "type": "address"
        },
        {
          "indexed": true,
          "internalType": "address",
          "name": "sender",
          "type": "address"
        }
      ],
      "name": "RoleGranted",
      "type": "event"
    },
    {
      "anonymous": false,
      "inputs": [
        {
          "indexed": true,
          "internalType": "bytes32",
          "name": "role",
          "type": "bytes32"
        },
        {
          "indexed": true,
          "internalType": "address",
          "name": "account",
          "type": "address"
        },
        {
          "indexed": true,
          "internalType": "address",
          "name": "sender",
          "type": "address"
        }
      ],
      "name": "RoleRevoked",
      "type": "event"
    },
    {
      "anonymous": false,
      "inputs": [
        {
          "indexed": false,
          "internalType": "address",
          "name": "account",
          "type": "address"
        }
      ],
      "name": "Unpaused",
      "type": "event"
    },
    {
      "anonymous": false,
      "inputs": [
        {
          "indexed": true,
          "internalType": "address",
          "name": "capitalProvider",
          "type": "address"
        },
        {
          "indexed": false,
          "internalType": "uint256",
          "name": "userAmount",
          "type": "uint256"
        },
        {
          "indexed": false,
          "internalType": "uint256",
          "name": "reserveAmount",
          "type": "uint256"
        }
      ],
      "name": "WithdrawalMade",
      "type": "event"
    },
    {
      "inputs": [],
      "name": "DEFAULT_ADMIN_ROLE",
      "outputs": [
        {
          "internalType": "bytes32",
          "name": "",
          "type": "bytes32"
        }
      ],
      "stateMutability": "view",
      "type": "function"
    },
    {
      "inputs": [],
      "name": "OWNER_ROLE",
      "outputs": [
        {
          "internalType": "bytes32",
          "name": "",
          "type": "bytes32"
        }
      ],
      "stateMutability": "view",
      "type": "function"
    },
    {
      "inputs": [],
      "name": "PAUSER_ROLE",
      "outputs": [
        {
          "internalType": "bytes32",
          "name": "",
          "type": "bytes32"
        }
      ],
      "stateMutability": "view",
      "type": "function"
    },
    {
      "inputs": [],
      "name": "ZAPPER_ROLE",
      "outputs": [
        {
          "internalType": "bytes32",
          "name": "",
          "type": "bytes32"
        }
      ],
      "stateMutability": "view",
      "type": "function"
    },
    {
      "inputs": [
        {
          "internalType": "address",
          "name": "owner",
          "type": "address"
        }
      ],
      "name": "__BaseUpgradeablePausable__init",
      "outputs": [],
      "stateMutability": "nonpayable",
      "type": "function"
    },
    {
      "inputs": [],
      "name": "__PauserPausable__init",
      "outputs": [],
      "stateMutability": "nonpayable",
      "type": "function"
    },
    {
      "inputs": [],
      "name": "assets",
      "outputs": [
        {
          "internalType": "uint256",
          "name": "",
          "type": "uint256"
        }
      ],
      "stateMutability": "view",
      "type": "function"
    },
    {
      "inputs": [
        {
          "internalType": "uint256",
          "name": "tokenId",
          "type": "uint256"
        }
      ],
      "name": "calculateWritedown",
      "outputs": [
        {
          "internalType": "uint256",
          "name": "",
          "type": "uint256"
        }
      ],
      "stateMutability": "view",
      "type": "function"
    },
    {
      "inputs": [],
      "name": "compoundBalance",
      "outputs": [
        {
          "internalType": "uint256",
          "name": "",
          "type": "uint256"
        }
      ],
      "stateMutability": "view",
      "type": "function"
    },
    {
      "inputs": [],
      "name": "config",
      "outputs": [
        {
          "internalType": "contract GoldfinchConfig",
          "name": "",
          "type": "address"
        }
      ],
      "stateMutability": "view",
      "type": "function"
    },
    {
      "inputs": [
        {
          "internalType": "uint256",
          "name": "amount",
          "type": "uint256"
        }
      ],
      "name": "deposit",
      "outputs": [
        {
          "internalType": "uint256",
          "name": "depositShares",
          "type": "uint256"
        }
      ],
      "stateMutability": "nonpayable",
      "type": "function"
    },
    {
      "inputs": [
        {
          "internalType": "uint256",
          "name": "amount",
          "type": "uint256"
        },
        {
          "internalType": "uint256",
          "name": "deadline",
          "type": "uint256"
        },
        {
          "internalType": "uint8",
          "name": "v",
          "type": "uint8"
        },
        {
          "internalType": "bytes32",
          "name": "r",
          "type": "bytes32"
        },
        {
          "internalType": "bytes32",
          "name": "s",
          "type": "bytes32"
        }
      ],
      "name": "depositWithPermit",
      "outputs": [
        {
          "internalType": "uint256",
          "name": "depositShares",
          "type": "uint256"
        }
      ],
      "stateMutability": "nonpayable",
      "type": "function"
    },
    {
      "inputs": [
        {
          "internalType": "contract ITranchedPool",
          "name": "pool",
          "type": "address"
        }
      ],
      "name": "estimateInvestment",
      "outputs": [
        {
          "internalType": "uint256",
          "name": "",
          "type": "uint256"
        }
      ],
      "stateMutability": "view",
      "type": "function"
    },
    {
      "inputs": [
        {
          "internalType": "uint256",
          "name": "amount",
          "type": "uint256"
        }
      ],
      "name": "getNumShares",
      "outputs": [
        {
          "internalType": "uint256",
          "name": "",
          "type": "uint256"
        }
      ],
      "stateMutability": "view",
      "type": "function"
    },
    {
      "inputs": [
        {
          "internalType": "bytes32",
          "name": "role",
          "type": "bytes32"
        }
      ],
      "name": "getRoleAdmin",
      "outputs": [
        {
          "internalType": "bytes32",
          "name": "",
          "type": "bytes32"
        }
      ],
      "stateMutability": "view",
      "type": "function"
    },
    {
      "inputs": [
        {
          "internalType": "bytes32",
          "name": "role",
          "type": "bytes32"
        },
        {
          "internalType": "uint256",
          "name": "index",
          "type": "uint256"
        }
      ],
      "name": "getRoleMember",
      "outputs": [
        {
          "internalType": "address",
          "name": "",
          "type": "address"
        }
      ],
      "stateMutability": "view",
      "type": "function"
    },
    {
      "inputs": [
        {
          "internalType": "bytes32",
          "name": "role",
          "type": "bytes32"
        }
      ],
      "name": "getRoleMemberCount",
      "outputs": [
        {
          "internalType": "uint256",
          "name": "",
          "type": "uint256"
        }
      ],
      "stateMutability": "view",
      "type": "function"
    },
    {
      "inputs": [
        {
          "internalType": "bytes32",
          "name": "role",
          "type": "bytes32"
        },
        {
          "internalType": "address",
          "name": "account",
          "type": "address"
        }
      ],
      "name": "grantRole",
      "outputs": [],
      "stateMutability": "nonpayable",
      "type": "function"
    },
    {
      "inputs": [
        {
          "internalType": "bytes32",
          "name": "role",
          "type": "bytes32"
        },
        {
          "internalType": "address",
          "name": "account",
          "type": "address"
        }
      ],
      "name": "hasRole",
      "outputs": [
        {
          "internalType": "bool",
          "name": "",
          "type": "bool"
        }
      ],
      "stateMutability": "view",
      "type": "function"
    },
    {
      "inputs": [],
      "name": "initZapperRole",
      "outputs": [],
      "stateMutability": "nonpayable",
      "type": "function"
    },
    {
      "inputs": [
        {
          "internalType": "address",
          "name": "owner",
          "type": "address"
        },
        {
          "internalType": "contract GoldfinchConfig",
          "name": "_config",
          "type": "address"
        }
      ],
      "name": "initialize",
      "outputs": [],
      "stateMutability": "nonpayable",
      "type": "function"
    },
    {
      "inputs": [
        {
          "internalType": "contract ITranchedPool",
          "name": "pool",
          "type": "address"
        }
      ],
      "name": "invest",
      "outputs": [],
      "stateMutability": "nonpayable",
      "type": "function"
    },
    {
      "inputs": [],
      "name": "isAdmin",
      "outputs": [
        {
          "internalType": "bool",
          "name": "",
          "type": "bool"
        }
      ],
      "stateMutability": "view",
      "type": "function"
    },
    {
      "inputs": [],
      "name": "isZapper",
      "outputs": [
        {
          "internalType": "bool",
          "name": "",
          "type": "bool"
        }
      ],
      "stateMutability": "view",
      "type": "function"
    },
    {
      "inputs": [],
      "name": "pause",
      "outputs": [],
      "stateMutability": "nonpayable",
      "type": "function"
    },
    {
      "inputs": [],
      "name": "paused",
      "outputs": [
        {
          "internalType": "bool",
          "name": "",
          "type": "bool"
        }
      ],
      "stateMutability": "view",
      "type": "function"
    },
    {
      "inputs": [
        {
          "internalType": "uint256",
          "name": "tokenId",
          "type": "uint256"
        }
      ],
      "name": "redeem",
      "outputs": [],
      "stateMutability": "nonpayable",
      "type": "function"
    },
    {
      "inputs": [
        {
          "internalType": "bytes32",
          "name": "role",
          "type": "bytes32"
        },
        {
          "internalType": "address",
          "name": "account",
          "type": "address"
        }
      ],
      "name": "renounceRole",
      "outputs": [],
      "stateMutability": "nonpayable",
      "type": "function"
    },
    {
      "inputs": [
        {
          "internalType": "bytes32",
          "name": "role",
          "type": "bytes32"
        },
        {
          "internalType": "address",
          "name": "account",
          "type": "address"
        }
      ],
      "name": "revokeRole",
      "outputs": [],
      "stateMutability": "nonpayable",
      "type": "function"
    },
    {
      "inputs": [],
      "name": "sharePrice",
      "outputs": [
        {
          "internalType": "uint256",
          "name": "",
          "type": "uint256"
        }
      ],
      "stateMutability": "view",
      "type": "function"
    },
    {
      "inputs": [],
      "name": "sweepFromCompound",
      "outputs": [],
      "stateMutability": "nonpayable",
      "type": "function"
    },
    {
      "inputs": [],
      "name": "sweepToCompound",
      "outputs": [],
      "stateMutability": "nonpayable",
      "type": "function"
    },
    {
      "inputs": [],
      "name": "totalLoansOutstanding",
      "outputs": [
        {
          "internalType": "uint256",
          "name": "",
          "type": "uint256"
        }
      ],
      "stateMutability": "view",
      "type": "function"
    },
    {
      "inputs": [],
      "name": "totalWritedowns",
      "outputs": [
        {
          "internalType": "uint256",
          "name": "",
          "type": "uint256"
        }
      ],
      "stateMutability": "view",
      "type": "function"
    },
    {
      "inputs": [],
      "name": "unpause",
      "outputs": [],
      "stateMutability": "nonpayable",
      "type": "function"
    },
    {
      "inputs": [
        {
          "internalType": "uint256",
          "name": "usdcAmount",
          "type": "uint256"
        }
      ],
      "name": "withdraw",
      "outputs": [
        {
          "internalType": "uint256",
          "name": "amount",
          "type": "uint256"
        }
      ],
      "stateMutability": "nonpayable",
      "type": "function"
    },
    {
      "inputs": [
        {
          "internalType": "uint256",
          "name": "fiduAmount",
          "type": "uint256"
        }
      ],
      "name": "withdrawInFidu",
      "outputs": [
        {
          "internalType": "uint256",
          "name": "amount",
          "type": "uint256"
        }
      ],
      "stateMutability": "nonpayable",
      "type": "function"
    },
    {
      "inputs": [
        {
          "internalType": "uint256",
          "name": "tokenId",
          "type": "uint256"
        }
      ],
      "name": "writedown",
      "outputs": [],
      "stateMutability": "nonpayable",
      "type": "function"
    },
    {
      "inputs": [
        {
          "internalType": "contract ITranchedPool",
          "name": "",
          "type": "address"
        }
      ],
      "name": "writedowns",
      "outputs": [
        {
          "internalType": "uint256",
          "name": "",
          "type": "uint256"
        }
      ],
      "stateMutability": "view",
      "type": "function"
    }
  ],
  "transactionHash": "0x2db9ee9d6236ae6c80027a6ecd842747db6f055e561c9c17a7b9248800e76180",
  "args": [],
  "solcInputHash": "bf6f46dcbe6f600dbdc728698b461228",
  "bytecode": "0x608060405234801561001057600080fd5b50613e98806100206000396000f3fe608060405234801561001057600080fd5b506004361061022d5760003560e01c8063855cb21b1161013b578063b6db75a0116100b8578063e58378bb1161007c578063e58378bb14610450578063e63ab1e914610458578063ed80c85014610460578063f1a80e6214610468578063fb285ed0146104705761022d565b8063b6db75a0146103fc578063ca15c87314610404578063d547741f14610417578063d78a5c651461042a578063db006a751461043d5761022d565b8063945ed49a116100ff578063945ed49a146103be5780639e4a88e1146103d1578063a217fddf146103d9578063a6f4487e146103e1578063b6b55f25146103e95761022d565b8063855cb21b1461037557806387269729146103885780638836d902146103905780639010d07c1461039857806391d14854146103ab5761022d565b80634a970be7116101c957806371a973051161018d57806371a973051461032a578063722eeec31461033257806379502c55146103455780637e30cdff1461035a5780638456cb591461036d5761022d565b80634a970be7146102ec5780634d4e3e0c146102ff578063526d81f61461030757806358031d121461030f5780635c975abb146103225761022d565b806303f9c79314610232578063097616a31461024757806310bc255f1461025a578063248a9ca3146102785780632e1a7d4d146102985780632f2ff15d146102ab57806336568abe146102be5780633f4ba83a146102d1578063485cc955146102d9575b600080fd5b6102456102403660046132a1565b610478565b005b6102456102553660046132a1565b610769565b610262610899565b60405161026f919061351c565b60405180910390f35b61028b610286366004613331565b6108ba565b60405161026f9190613527565b61028b6102a6366004613331565b6108cf565b6102456102b9366004613349565b610a2b565b6102456102cc366004613349565b610a6f565b610245610ab1565b6102456102e73660046132d9565b610af1565b61028b6102fa36600461343d565b610d21565b61028b610db6565b610245610dc8565b61028b61031d366004613331565b610e53565b610262610fb1565b61028b610fba565b61028b610340366004613331565b61107b565b61034d61114d565b60405161026f919061348a565b61028b6103683660046132a1565b61115d565b610245611225565b61028b610383366004613331565b611263565b61028b611292565b610245611299565b61034d6103a636600461336d565b6112e8565b6102626103b9366004613349565b611300565b6102456103cc366004613331565b611318565b6102456115fe565b61028b611862565b61028b611867565b61028b6103f7366004613331565b61186e565b610262611aa0565b61028b610412366004613331565b611abc565b610245610425366004613349565b611ad3565b61028b6104383660046132a1565b611b0d565b61024561044b366004613331565b611b20565b61028b611cba565b61028b611ccc565b61028b611cde565b61028b611ce5565b610245611cec565b60975460ff16156104a45760405162461bcd60e51b815260040161049b90613ab3565b60405180910390fd5b60c95460ff166104c65760405162461bcd60e51b815260040161049b90613c94565b60c9805460ff191690556104d981611d36565b6104f55760405162461bcd60e51b815260040161049b90613add565b6101c7541561050657610506611dca565b6101c65460009061051f906001600160a01b0316611e6a565b90506000816001600160a01b031663ff8a4efe30856040518363ffffffff1660e01b815260040161055192919061355e565b60206040518083038186803b15801561056957600080fd5b505afa15801561057d573d6000803e3d6000fd5b505050506040513d601f19601f820116820180604052508101906105a19190613402565b9050600081116105c35760405162461bcd60e51b815260040161049b90613c52565b6105cd8382611e75565b6000836001600160a01b0316637976323d6040518163ffffffff1660e01b815260040160206040518083038186803b15801561060857600080fd5b505afa15801561061c573d6000803e3d6000fd5b505050506040513d601f19601f820116820180604052508101906106409190613402565b905060018110156106635760405162461bcd60e51b815260040161049b90613687565b6000610670826001611f31565b9050600061067d82611f73565b604051631c57762b60e31b81529091506001600160a01b0387169063e2bbb158906106ae9084908890600401613ddf565b602060405180830381600087803b1580156106c857600080fd5b505af11580156106dc573d6000803e3d6000fd5b505050506040513d601f19601f820116820180604052508101906107009190613402565b50856001600160a01b03167f86da25fff7a4075a94de2ffed109ca6748c3af22736eaf7efc75e3988f899d6e8560405161073a9190613527565b60405180910390a26101c4546107509085611f85565b6101c455505060c9805460ff1916600117905550505050565b600054610100900460ff16806107825750610782611faa565b80610790575060005460ff16155b6107ac5760405162461bcd60e51b815260040161049b90613b7f565b600054610100900460ff161580156107d7576000805460ff1961ff0019909116610100171660011790555b6001600160a01b0382166107fd5760405162461bcd60e51b815260040161049b90613b09565b610805611fb0565b61080d612031565b6108156120bd565b61082d600080516020613e0383398151915283610a65565b610845600080516020613e4383398151915283610a65565b61086b600080516020613e43833981519152600080516020613e0383398151915261214c565b610883600080516020613e038339815191528061214c565b8015610895576000805461ff00191690555b5050565b60006108b5600080516020613e238339815191526103b9612161565b905090565b60009081526065602052604090206002015490565b60975460009060ff16156108f55760405162461bcd60e51b815260040161049b90613ab3565b60c95460ff166109175760405162461bcd60e51b815260040161049b90613c94565b60c9805460ff191690556101c654610937906001600160a01b0316612165565b6001600160a01b031663a37b92c9336040518263ffffffff1660e01b8152600401610962919061348a565b60206040518083038186803b15801561097a57600080fd5b505afa15801561098e573d6000803e3d6000fd5b505050506040513d601f19601f820116820180604052508101906109b29190613311565b6109ce5760405162461bcd60e51b815260040161049b906135cb565b600082116109ee5760405162461bcd60e51b815260040161049b90613bff565b6101c754156109ff576109ff611dca565b6000610a0a83611263565b9050610a168382612170565b91505060c9805460ff19166001179055919050565b600082815260656020526040902060020154610a49906103b9612161565b610a655760405162461bcd60e51b815260040161049b906136ea565b6108958282612350565b610a77612161565b6001600160a01b0316816001600160a01b031614610aa75760405162461bcd60e51b815260040161049b90613d59565b61089582826123b9565b610acb600080516020613e438339815191526103b9612161565b610ae75760405162461bcd60e51b815260040161049b90613c36565b610aef612422565b565b600054610100900460ff1680610b0a5750610b0a611faa565b80610b18575060005460ff16155b610b345760405162461bcd60e51b815260040161049b90613b7f565b600054610100900460ff16158015610b5f576000805460ff1961ff0019909116610100171660011790555b6001600160a01b03831615801590610b7f57506001600160a01b03821615155b610b9b5760405162461bcd60e51b815260040161049b906137ee565b610ba483610769565b6101c680546001600160a01b0319166001600160a01b038416179055610bc861248e565b6101c35560006101c48190556101c58190556101c654610bf0906001600160a01b031661249a565b9050806001600160a01b03166318160ddd6040518163ffffffff1660e01b815260040160206040518083038186803b158015610c2b57600080fd5b505afa158015610c3f573d6000803e3d6000fd5b505050506040513d601f19601f82011682018060405250810190610c639190613402565b5060405163095ea7b360e01b81526000906001600160a01b0383169063095ea7b390610c97903090600019906004016134df565b602060405180830381600087803b158015610cb157600080fd5b505af1158015610cc5573d6000803e3d6000fd5b505050506040513d601f19601f82011682018060405250810190610ce99190613311565b905080610d085760405162461bcd60e51b815260040161049b90613767565b50508015610d1c576000805461ff00191690555b505050565b6101c654600090610d3a906001600160a01b03166124a1565b6001600160a01b031663d505accf333089898989896040518863ffffffff1660e01b8152600401610d71979695949392919061349e565b600060405180830381600087803b158015610d8b57600080fd5b505af1158015610d9f573d6000803e3d6000fd5b50505050610dac8661186e565b9695505050505050565b600080516020613e2383398151915281565b600054610100900460ff1680610de15750610de1611faa565b80610def575060005460ff16155b610e0b5760405162461bcd60e51b815260040161049b90613b7f565b600054610100900460ff16158015610e36576000805460ff1961ff0019909116610100171660011790555b610e3e612031565b8015610e50576000805461ff00191690555b50565b60975460009060ff1615610e795760405162461bcd60e51b815260040161049b90613ab3565b60c95460ff16610e9b5760405162461bcd60e51b815260040161049b90613c94565b60c9805460ff191690556101c654610ebb906001600160a01b0316612165565b6001600160a01b031663a37b92c9336040518263ffffffff1660e01b8152600401610ee6919061348a565b60206040518083038186803b158015610efe57600080fd5b505afa158015610f12573d6000803e3d6000fd5b505050506040513d601f19601f82011682018060405250810190610f369190613311565b610f525760405162461bcd60e51b815260040161049b906135cb565b60008211610f725760405162461bcd60e51b815260040161049b90613bff565b6101c75415610f8357610f83611dca565b6000610f8e83612521565b905082610f9b8282612170565b9250505060c9805460ff19166001179055919050565b60975460ff1690565b6101c5546101c4546101c6546000926108b5929091611075919061106f90610fea906001600160a01b031661249a565b6001600160a01b03166370a08231306040518263ffffffff1660e01b8152600401611015919061348a565b60206040518083038186803b15801561102d57600080fd5b505afa158015611041573d6000803e3d6000fd5b505050506040513d601f19601f820116820180604052508101906110659190613402565b6101c75490611f85565b90611f85565b90611f31565b6000611085613269565b6101c65461109b906001600160a01b0316612545565b6001600160a01b0316638c7a63ae846040518263ffffffff1660e01b81526004016110c69190613527565b60a06040518083038186803b1580156110de57600080fd5b505afa1580156110f2573d6000803e3d6000fd5b505050506040513d601f19601f82011682018060405250810190611116919061338e565b80516060820151604083015192935090916000916111349190611f31565b905060006111428383612550565b979650505050505050565b6101c6546001600160a01b031681565b600061116882611d36565b6111845760405162461bcd60e51b815260040161049b90613add565b6101c65460009061119d906001600160a01b0316611e6a565b604051631f999a2d60e01b81529091506001600160a01b03821690631f999a2d906111ce903090879060040161355e565b60206040518083038186803b1580156111e657600080fd5b505afa1580156111fa573d6000803e3d6000fd5b505050506040513d601f19601f8201168201806040525081019061121e9190613402565b9392505050565b61123f600080516020613e438339815191526103b9612161565b61125b5760405162461bcd60e51b815260040161049b90613c36565b610aef61268d565b600061128c6101c35461128661127761248e565b611280866126e6565b90612701565b9061273b565b92915050565b6101c35481565b6112a1611aa0565b6112bd5760405162461bcd60e51b815260040161049b90613d0e565b60975460ff16156112e05760405162461bcd60e51b815260040161049b90613ab3565b610aef611dca565b600082815260656020526040812061121e908361277d565b600082815260656020526040812061121e9083612789565b60975460ff161561133b5760405162461bcd60e51b815260040161049b90613ab3565b60c95460ff1661135d5760405162461bcd60e51b815260040161049b90613c94565b60c9805460ff191690556101c654600090611380906001600160a01b0316612545565b6040516331a9108f60e11b81529091506001600160a01b03821690636352211e906113af908590600401613527565b60206040518083038186803b1580156113c757600080fd5b505afa1580156113db573d6000803e3d6000fd5b505050506040513d601f19601f820116820180604052508101906113ff91906132bd565b6001600160a01b0316306001600160a01b03161461142f5760405162461bcd60e51b815260040161049b90613928565b611437613269565b60405163463d31d760e11b81526001600160a01b03831690638c7a63ae90611463908690600401613527565b60a06040518083038186803b15801561147b57600080fd5b505afa15801561148f573d6000803e3d6000fd5b505050506040513d601f19601f820116820180604052508101906114b3919061338e565b80519091506114c181611d36565b6114dd5760405162461bcd60e51b815260040161049b90613add565b60006114fa83606001518460400151611f3190919063ffffffff16565b90506000806115098484612550565b6001600160a01b03861660009081526101c86020526040902054919350915082158015611534575080155b1561154557505050505050506115ee565b6001600160a01b03851660009081526101c86020526040902082905581810361156d8161279e565b600081131561158d576101c5546115849082611f31565b6101c5556115a4565b6101c55461159f906000839003611f85565b6101c5555b856001600160a01b03167f176e189790e519c3382df7234bd391cc24005bf9cfaaa9de00103c208e10a274826040516115dd9190613527565b60405180910390a250505050505050505b5060c9805460ff19166001179055565b611606611aa0565b6116225760405162461bcd60e51b815260040161049b90613d0e565b60975460ff16156116455760405162461bcd60e51b815260040161049b90613ab3565b6101c65460009061165e906001600160a01b031661249a565b90506000816001600160a01b03166370a08231306040518263ffffffff1660e01b815260040161168e919061348a565b60206040518083038186803b1580156116a657600080fd5b505afa1580156116ba573d6000803e3d6000fd5b505050506040513d601f19601f820116820180604052508101906116de9190613402565b6101c6549091506000906116fa906001600160a01b03166127f5565b90506000836001600160a01b031663095ea7b383856040518363ffffffff1660e01b815260040161172c9291906134df565b602060405180830381600087803b15801561174657600080fd5b505af115801561175a573d6000803e3d6000fd5b505050506040513d601f19601f8201168201806040525081019061177e9190613311565b90508061179d5760405162461bcd60e51b815260040161049b90613ccb565b6117a78284612800565b6101c6546117bd906001600160a01b031661249a565b6001600160a01b031663095ea7b38360006040518363ffffffff1660e01b81526004016117eb9291906134df565b602060405180830381600087803b15801561180557600080fd5b505af1158015611819573d6000803e3d6000fd5b505050506040513d601f19601f8201168201806040525081019061183d9190613311565b90508061185c5760405162461bcd60e51b815260040161049b90613ccb565b50505050565b600081565b6101c55481565b60975460009060ff16156118945760405162461bcd60e51b815260040161049b90613ab3565b60c95460ff166118b65760405162461bcd60e51b815260040161049b90613c94565b60c9805460ff191690556101c6546118d6906001600160a01b0316612165565b6001600160a01b031663a37b92c9336040518263ffffffff1660e01b8152600401611901919061348a565b60206040518083038186803b15801561191957600080fd5b505afa15801561192d573d6000803e3d6000fd5b505050506040513d601f19601f820116820180604052508101906119519190613311565b61196d5760405162461bcd60e51b815260040161049b906135cb565b6000821161198d5760405162461bcd60e51b815260040161049b90613da8565b61199682611263565b905060006119a68261106f6128e7565b9050336001600160a01b03167f0b05f0d1cd0819f155b8a61f60baf7767c1ee49d04aeaab701df236140eb93f984846040516119e3929190613ddf565b60405180910390a260006119f8333086612970565b905080611a175760405162461bcd60e51b815260040161049b906136b3565b6101c654611a2d906001600160a01b0316612a3f565b6001600160a01b031663449a52f833856040518363ffffffff1660e01b8152600401611a5a9291906134df565b600060405180830381600087803b158015611a7457600080fd5b505af1158015611a88573d6000803e3d6000fd5b50505050505060c9805460ff19166001179055919050565b60006108b5600080516020613e038339815191526103b9612161565b600081815260656020526040812061128c90612a4a565b600082815260656020526040902060020154611af1906103b9612161565b610aa75760405162461bcd60e51b815260040161049b90613a63565b6101c86020526000908152604090205481565b60975460ff1615611b435760405162461bcd60e51b815260040161049b90613ab3565b60c95460ff16611b655760405162461bcd60e51b815260040161049b90613c94565b60c9805460ff191690556101c654600090611b88906001600160a01b0316612545565b9050611b92613269565b60405163463d31d760e11b81526001600160a01b03831690638c7a63ae90611bbe908690600401613527565b60a06040518083038186803b158015611bd657600080fd5b505afa158015611bea573d6000803e3d6000fd5b505050506040513d601f19601f82011682018060405250810190611c0e919061338e565b8051604051632a8a9f1360e21b81529192509060009081906001600160a01b0384169063aa2a7c4c90611c45908990600401613527565b6040805180830381600087803b158015611c5e57600080fd5b505af1158015611c72573d6000803e3d6000fd5b505050506040513d601f19601f82011682018060405250810190611c96919061341a565b91509150611ca5838383612a55565b505060c9805460ff1916600117905550505050565b600080516020613e0383398151915281565b600080516020613e4383398151915281565b6101c45481565b6101c75481565b611cf4611aa0565b611d105760405162461bcd60e51b815260040161049b90613d0e565b610aef600080516020613e23833981519152600080516020613e0383398151915261214c565b6101c654600090611d4f906001600160a01b0316612545565b6001600160a01b031663b5ada6d8836040518263ffffffff1660e01b8152600401611d7a919061348a565b60206040518083038186803b158015611d9257600080fd5b505afa158015611da6573d6000803e3d6000fd5b505050506040513d601f19601f8201168201806040525081019061128c9190613311565b6101c654600090611de3906001600160a01b03166127f5565b9050610e5081826001600160a01b03166370a08231306040518263ffffffff1660e01b8152600401611e15919061348a565b60206040518083038186803b158015611e2d57600080fd5b505afa158015611e41573d6000803e3d6000fd5b505050506040513d601f19601f82011682018060405250810190611e659190613402565b612b1c565b600061128c82612e35565b6101c654600090611e8e906001600160a01b031661249a565b90506000816001600160a01b031663095ea7b385856040518363ffffffff1660e01b8152600401611ec09291906134df565b602060405180830381600087803b158015611eda57600080fd5b505af1158015611eee573d6000803e3d6000fd5b505050506040513d601f19601f82011682018060405250810190611f129190613311565b90508061185c5760405162461bcd60e51b815260040161049b90613767565b600061121e83836040518060400160405280601e81526020017f536166654d6174683a207375627472616374696f6e206f766572666c6f770000815250612e4d565b600061128c600161106f846002612701565b60008282018381101561121e5760405162461bcd60e51b815260040161049b9061389d565b303b1590565b600054610100900460ff1680611fc95750611fc9611faa565b80611fd7575060005460ff16155b611ff35760405162461bcd60e51b815260040161049b90613b7f565b600054610100900460ff16158015610e3e576000805460ff1961ff0019909116610100171660011790558015610e50576000805461ff001916905550565b600054610100900460ff168061204a575061204a611faa565b80612058575060005460ff16155b6120745760405162461bcd60e51b815260040161049b90613b7f565b600054610100900460ff1615801561209f576000805460ff1961ff0019909116610100171660011790555b6097805460ff191690558015610e50576000805461ff001916905550565b600054610100900460ff16806120d657506120d6611faa565b806120e4575060005460ff16155b6121005760405162461bcd60e51b815260040161049b90613b7f565b600054610100900460ff1615801561212b576000805460ff1961ff0019909116610100171660011790555b60c9805460ff191660011790558015610e50576000805461ff001916905550565b60009182526065602052604090912060020155565b3390565b600061128c82612e79565b6101c654600090819061218b906001600160a01b0316612a3f565b90506000816001600160a01b03166370a08231336040518263ffffffff1660e01b81526004016121bb919061348a565b60206040518083038186803b1580156121d357600080fd5b505afa1580156121e7573d6000803e3d6000fd5b505050506040513d601f19601f8201168201806040525081019061220b9190613402565b90508084111561222d5760405162461bcd60e51b815260040161049b90613797565b849250600061223a610899565b612277576101c65461225f90612258906001600160a01b0316612e91565b879061273b565b905061226b8482611f31565b93506122778133612f11565b6000612284303387612970565b9050806122a35760405162461bcd60e51b815260040161049b906139b2565b60405163079cc67960e41b81526001600160a01b038516906379cc6790906122d19033908a906004016134df565b600060405180830381600087803b1580156122eb57600080fd5b505af11580156122ff573d6000803e3d6000fd5b50505050336001600160a01b03167f2d4d49c3e017b8235c908cbaa83a2431a08f3b950712696ece2088964fd399f0868460405161233e929190613ddf565b60405180910390a25050505092915050565b60008281526065602052604090206123689082612f96565b1561089557612375612161565b6001600160a01b0316816001600160a01b0316837f2f8788117e7eff1d82e926ec794901d17c78024a50270940304540a733656f0d60405160405180910390a45050565b60008281526065602052604090206123d19082612fab565b15610895576123de612161565b6001600160a01b0316816001600160a01b0316837ff6391f5c32d9c69d2a47ea670b442974b53935d1edc7fd64eb21e047a839171b60405160405180910390a45050565b60975460ff166124445760405162461bcd60e51b815260040161049b90613739565b6097805460ff191690557f5db9ee0a495bf2e6ff9c91a7834c1ba4fdd244a5e8aa4e537bd38aeae4b073aa612477612161565b604051612484919061348a565b60405180910390a1565b670de0b6b3a764000090565b600061128c825b60006001600160a01b03821663b93f9b0a60055b6040518263ffffffff1660e01b81526004016124d19190613527565b60206040518083038186803b1580156124e957600080fd5b505afa1580156124fd573d6000803e3d6000fd5b505050506040513d601f19601f8201168201806040525081019061128c91906132bd565b600061128c61254061253161248e565b6101c354611286908690612701565b612fc0565b600061128c82612fd8565b600080733b2D0B5545Ca2C88988c8298495ca9fB459ef2126397aec1ab856001600160a01b03166347195e136040518163ffffffff1660e01b815260040160206040518083038186803b1580156125a657600080fd5b505afa1580156125ba573d6000803e3d6000fd5b505050506040513d601f19601f820116820180604052508101906125de91906132bd565b856125e7612ff0565b6101c6546125fd906001600160a01b0316612ff4565b6101c654612613906001600160a01b031661300c565b6040518663ffffffff1660e01b8152600401612633959493929190613530565b604080518083038186803b15801561264a57600080fd5b505af415801561265e573d6000803e3d6000fd5b505050506040513d601f19601f82011682018060405250810190612682919061341a565b915091509250929050565b60975460ff16156126b05760405162461bcd60e51b815260040161049b90613ab3565b6097805460ff191660011790557f62e78cea01bee320cd4e420270b5ea74000d11b0c9f74754ebdbfc544b05a258612477612161565b600061128c6126f3613024565b6112866126fe61248e565b85905b6000826127105750600061128c565b8282028284828161271d57fe5b041461121e5760405162461bcd60e51b815260040161049b90613b3e565b600061121e83836040518060400160405280601a81526020017f536166654d6174683a206469766973696f6e206279207a65726f00000000000081525061302b565b600061121e8383613062565b600061121e836001600160a01b0384166130a7565b60008113156127cd5760006127b2826130bf565b6101c3549091506127c39082611f85565b6101c35550610e50565b60006127dc82600019026130bf565b6101c3549091506127ed9082611f31565b6101c3555050565b600061128c826130d7565b6101c754156128215760405162461bcd60e51b815260040161049b906138d4565b8061283e5760405162461bcd60e51b815260040161049b9061360e565b60405163140e25ad60e31b81526000906001600160a01b0384169063a0712d689061286d908590600401613527565b602060405180830381600087803b15801561288757600080fd5b505af115801561289b573d6000803e3d6000fd5b505050506040513d601f19601f820116820180604052508101906128bf9190613402565b905080156128df5760405162461bcd60e51b815260040161049b90613980565b506101c75550565b6101c654600090612900906001600160a01b0316612a3f565b6001600160a01b03166318160ddd6040518163ffffffff1660e01b815260040160206040518083038186803b15801561293857600080fd5b505afa15801561294c573d6000803e3d6000fd5b505050506040513d601f19601f820116820180604052508101906108b59190613402565b60006001600160a01b0383166129985760405162461bcd60e51b815260040161049b90613838565b6101c6546000906129b1906001600160a01b031661249a565b6040516323b872dd60e01b81529091506001600160a01b038216906323b872dd906129e4908890889088906004016134f8565b602060405180830381600087803b1580156129fe57600080fd5b505af1158015612a12573d6000803e3d6000fd5b505050506040513d601f19601f82011682018060405250810190612a369190613311565b95945050505050565b600061128c826130ef565b600061128c82613107565b6000612a60836130bf565b6101c354909150612a719082611f85565b6101c3558215612abd57836001600160a01b03167fed3bc1b58411ea8e764b3ef8fa6b654877bc1e796a5a1a2373dfc8f1c0e0ea4884604051612ab49190613527565b60405180910390a25b811561185c57836001600160a01b03167f8295ad220549851bab232c2a7ae2e3c53a63d2294602bc85f8d8af108778a37e83604051612afc9190613527565b60405180910390a26101c454612b129083611f31565b6101c45550505050565b6101c75480612b3d5760405162461bcd60e51b815260040161049b9061386f565b81612b5a5760405162461bcd60e51b815260040161049b9061360e565b6101c654600090612b73906001600160a01b031661249a565b90506000816001600160a01b03166370a08231306040518263ffffffff1660e01b8152600401612ba3919061348a565b60206040518083038186803b158015612bbb57600080fd5b505afa158015612bcf573d6000803e3d6000fd5b505050506040513d601f19601f82011682018060405250810190612bf39190613402565b90506000856001600160a01b031663bd6d894d6040518163ffffffff1660e01b8152600401602060405180830381600087803b158015612c3257600080fd5b505af1158015612c46573d6000803e3d6000fd5b505050506040513d601f19601f82011682018060405250810190612c6a9190613402565b90506000612c78828761310b565b90506000876001600160a01b031663db006a75886040518263ffffffff1660e01b8152600401612ca89190613527565b602060405180830381600087803b158015612cc257600080fd5b505af1158015612cd6573d6000803e3d6000fd5b505050506040513d601f19601f82011682018060405250810190612cfa9190613402565b90506000856001600160a01b03166370a08231306040518263ffffffff1660e01b8152600401612d2a919061348a565b60206040518083038186803b158015612d4257600080fd5b505afa158015612d56573d6000803e3d6000fd5b505050506040513d601f19601f82011682018060405250810190612d7a9190613402565b90508115612d9a5760405162461bcd60e51b815260040161049b90613a2c565b82612da58287611f31565b14612dc25760405162461bcd60e51b815260040161049b90613bcd565b6000612dce8489611f31565b6101c654909150600090612df590612dee906001600160a01b0316613129565b839061273b565b90506000612e038383611f31565b9050612e1130826000612a55565b8115612e2157612e21828d612f11565b505060006101c75550505050505050505050565b60006001600160a01b03821663b93f9b0a600f6124b5565b60008184841115612e715760405162461bcd60e51b815260040161049b9190613578565b505050900390565b60006001600160a01b03821663b93f9b0a60136124b5565b60006001600160a01b03821663fc56365860045b6040518263ffffffff1660e01b8152600401612ec19190613527565b60206040518083038186803b158015612ed957600080fd5b505afa158015612eed573d6000803e3d6000fd5b505050506040513d601f19601f8201168201806040525081019061128c9190613402565b806001600160a01b03167ff3583f178a8d4f8888c3683f8e948faf9b6eb701c4f1fab265a6ecad1a1ddebb83604051612f4a9190613527565b60405180910390a26101c654600090612f77903090612f71906001600160a01b0316613141565b85612970565b905080610d1c5760405162461bcd60e51b815260040161049b906139e9565b600061121e836001600160a01b038416613159565b600061121e836001600160a01b0384166131a3565b600061128c612dee612fd0613024565b61128661248e565b60006001600160a01b03821663b93f9b0a600c6124b5565b4290565b60006001600160a01b03821663fc5636586005612ea5565b60006001600160a01b03821663fc5636586006612ea5565b620f424090565b6000818361304c5760405162461bcd60e51b815260040161049b9190613578565b50600083858161305857fe5b0495945050505050565b815460009082106130855760405162461bcd60e51b815260040161049b90613645565b82600001828154811061309457fe5b9060005260206000200154905092915050565b60009081526001919091016020526040902054151590565b600061128c6130cc6128e7565b61128661127761248e565b60006001600160a01b03821663b93f9b0a600a6124b5565b60006001600160a01b03821663b93f9b0a60046124b5565b5490565b600060066008612a366064611286662386f26fc1000081888a612701565b60006001600160a01b03821663fc5636586003612ea5565b60006001600160a01b03821663b93f9b0a60066124b5565b600061316583836130a7565b61319b5750815460018181018455600084815260208082209093018490558454848252828601909352604090209190915561128c565b50600061128c565b6000818152600183016020526040812054801561325f57835460001980830191908101906000908790839081106131d657fe5b90600052602060002001549050808760000184815481106131f357fe5b60009182526020808320909101929092558281526001898101909252604090209084019055865487908061322357fe5b6001900381819060005260206000200160009055905586600101600087815260200190815260200160002060009055600194505050505061128c565b600091505061128c565b6040518060a0016040528060006001600160a01b03168152602001600081526020016000815260200160008152602001600081525090565b6000602082840312156132b2578081fd5b813561121e81613ded565b6000602082840312156132ce578081fd5b815161121e81613ded565b600080604083850312156132eb578081fd5b82356132f681613ded565b9150602083013561330681613ded565b809150509250929050565b600060208284031215613322578081fd5b8151801515811461121e578182fd5b600060208284031215613342578081fd5b5035919050565b6000806040838503121561335b578182fd5b82359150602083013561330681613ded565b6000806040838503121561337f578182fd5b50508035926020909101359150565b600060a0828403121561339f578081fd5b60405160a0810181811067ffffffffffffffff821117156133be578283fd5b60405282516133cc81613ded565b80825250602083015160208201526040830151604082015260608301516060820152608083015160808201528091505092915050565b600060208284031215613413578081fd5b5051919050565b6000806040838503121561342c578182fd5b505080516020909101519092909150565b600080600080600060a08688031215613454578081fd5b8535945060208601359350604086013560ff81168114613472578182fd5b94979396509394606081013594506080013592915050565b6001600160a01b0391909116815260200190565b6001600160a01b0397881681529590961660208601526040850193909352606084019190915260ff16608083015260a082015260c081019190915260e00190565b6001600160a01b03929092168252602082015260400190565b6001600160a01b039384168152919092166020820152604081019190915260600190565b901515815260200190565b90815260200190565b6001600160a01b03959095168552602085019390935260408401919091526060830152608082015260a00190565b6001600160a01b0392831681529116602082015260400190565b6000602080835283518082850152825b818110156135a457858101830151858201604001528201613588565b818111156135b55783604083870101525b50601f01601f1916929092016040019392505050565b60208082526023908201527f54686973206164647265737320686173206e6f74206265656e20676f2d6c69736040820152621d195960ea1b606082015260800190565b6020808252601e908201527f416d6f756e7420746f2073776565702063616e6e6f74206265207a65726f0000604082015260600190565b60208082526022908201527f456e756d657261626c655365743a20696e646578206f7574206f6620626f756e604082015261647360f01b606082015260800190565b602080825260129082015271506f6f6c20686173206e6f20736c6963657360701b604082015260600190565b6020808252601e908201527f4661696c656420746f207472616e7366657220666f72206465706f7369740000604082015260600190565b6020808252602f908201527f416363657373436f6e74726f6c3a2073656e646572206d75737420626520616e60408201526e0818591b5a5b881d1bc819dc985b9d608a1b606082015260800190565b60208082526014908201527314185d5cd8589b194e881b9bdd081c185d5cd95960621b604082015260600190565b6020808252601690820152754661696c656420746f20617070726f7665205553444360501b604082015260600190565b60208082526037908201527f416d6f756e74207265717565737465642069732067726561746572207468616e604082015276207768617420746869732061646472657373206f776e7360481b606082015260800190565b6020808252602a908201527f4f776e657220616e6420636f6e666967206164647265737365732063616e6e6f6040820152697420626520656d70747960b01b606082015260800190565b6020808252601a908201527f43616e27742073656e6420746f207a65726f2061646472657373000000000000604082015260600190565b602080825260149082015273139bc8199d5b991cc81bdb8818dbdb5c1bdd5b9960621b604082015260600190565b6020808252601b908201527f536166654d6174683a206164646974696f6e206f766572666c6f770000000000604082015260600190565b60208082526034908201527f43616e6e6f74207377656570207768656e20776520616c72656164792068617660408201527365206120636f6d706f756e642062616c616e636560601b606082015260800190565b60208082526038908201527f4f6e6c7920746f6b656e73206f776e6564206279207468652073656e696f72206040820152773837b7b61031b0b7103132903bb934ba3a32b7103237bbb760411b606082015260800190565b60208082526018908201527714ddd9595c081d1bc818dbdb5c1bdd5b990819985a5b195960421b604082015260600190565b6020808252601f908201527f4661696c656420746f207472616e7366657220666f7220776974686472617700604082015260600190565b60208082526023908201527f52657365727665207472616e7366657220776173206e6f742073756363657373604082015262199d5b60ea1b606082015260800190565b6020808252601a908201527f53776565702066726f6d20636f6d706f756e64206661696c6564000000000000604082015260600190565b60208082526030908201527f416363657373436f6e74726f6c3a2073656e646572206d75737420626520616e60408201526f2061646d696e20746f207265766f6b6560801b606082015260800190565b60208082526010908201526f14185d5cd8589b194e881c185d5cd95960821b604082015260600190565b602080825260129082015271141bdbdb081b5d5cdd081899481d985b1a5960721b604082015260600190565b6020808252818101527f4f776e65722063616e6e6f7420626520746865207a65726f2061646472657373604082015260600190565b60208082526021908201527f536166654d6174683a206d756c7469706c69636174696f6e206f766572666c6f6040820152607760f81b606082015260800190565b6020808252602e908201527f436f6e747261637420696e7374616e63652068617320616c726561647920626560408201526d195b881a5b9a5d1a585b1a5e995960921b606082015260800190565b602080825260189082015277155b995e1c1958dd1959081c995919595b48185b5bdd5b9d60421b604082015260600190565b6020808252601c908201527f4d757374207769746864726177206d6f7265207468616e207a65726f00000000604082015260600190565b6020808252600290820152614e4160f01b604082015260600190565b60208082526022908201527f496e766573746d656e7420616d6f756e74206d75737420626520706f73697469604082015261766560f01b606082015260800190565b6020808252601f908201527f5265656e7472616e637947756172643a207265656e7472616e742063616c6c00604082015260600190565b60208082526023908201527f4661696c656420746f20617070726f7665205553444320666f7220636f6d706f6040820152621d5b9960ea1b606082015260800190565b6020808252602b908201527f4d75737420686176652061646d696e20726f6c6520746f20706572666f726d2060408201526a3a3434b99030b1ba34b7b760a91b606082015260800190565b6020808252602f908201527f416363657373436f6e74726f6c3a2063616e206f6e6c792072656e6f756e636560408201526e103937b632b9903337b91039b2b63360891b606082015260800190565b6020808252601b908201527f4d757374206465706f736974206d6f7265207468616e207a65726f0000000000604082015260600190565b918252602082015260400190565b6001600160a01b0381168114610e5057600080fdfeb19546dff01e856fb3f010c267a7b1c60363cf8a4664e21cc89c26224620214ed624b04b6a86de88625cc0780256b85157c5a615db56d1357e0a97a30fde276765d7a28e3265b37a6474929f336521b332c1681b933f6cb9f3376673440d862aa26469706673582212202e2e46cc19c2274b13cd7ee8797e3f04e1b9b3fc1ad428939f4adf5433a910a564736f6c634300060c0033",
  "deployedBytecode": "0x608060405234801561001057600080fd5b506004361061022d5760003560e01c8063855cb21b1161013b578063b6db75a0116100b8578063e58378bb1161007c578063e58378bb14610450578063e63ab1e914610458578063ed80c85014610460578063f1a80e6214610468578063fb285ed0146104705761022d565b8063b6db75a0146103fc578063ca15c87314610404578063d547741f14610417578063d78a5c651461042a578063db006a751461043d5761022d565b8063945ed49a116100ff578063945ed49a146103be5780639e4a88e1146103d1578063a217fddf146103d9578063a6f4487e146103e1578063b6b55f25146103e95761022d565b8063855cb21b1461037557806387269729146103885780638836d902146103905780639010d07c1461039857806391d14854146103ab5761022d565b80634a970be7116101c957806371a973051161018d57806371a973051461032a578063722eeec31461033257806379502c55146103455780637e30cdff1461035a5780638456cb591461036d5761022d565b80634a970be7146102ec5780634d4e3e0c146102ff578063526d81f61461030757806358031d121461030f5780635c975abb146103225761022d565b806303f9c79314610232578063097616a31461024757806310bc255f1461025a578063248a9ca3146102785780632e1a7d4d146102985780632f2ff15d146102ab57806336568abe146102be5780633f4ba83a146102d1578063485cc955146102d9575b600080fd5b6102456102403660046132a1565b610478565b005b6102456102553660046132a1565b610769565b610262610899565b60405161026f919061351c565b60405180910390f35b61028b610286366004613331565b6108ba565b60405161026f9190613527565b61028b6102a6366004613331565b6108cf565b6102456102b9366004613349565b610a2b565b6102456102cc366004613349565b610a6f565b610245610ab1565b6102456102e73660046132d9565b610af1565b61028b6102fa36600461343d565b610d21565b61028b610db6565b610245610dc8565b61028b61031d366004613331565b610e53565b610262610fb1565b61028b610fba565b61028b610340366004613331565b61107b565b61034d61114d565b60405161026f919061348a565b61028b6103683660046132a1565b61115d565b610245611225565b61028b610383366004613331565b611263565b61028b611292565b610245611299565b61034d6103a636600461336d565b6112e8565b6102626103b9366004613349565b611300565b6102456103cc366004613331565b611318565b6102456115fe565b61028b611862565b61028b611867565b61028b6103f7366004613331565b61186e565b610262611aa0565b61028b610412366004613331565b611abc565b610245610425366004613349565b611ad3565b61028b6104383660046132a1565b611b0d565b61024561044b366004613331565b611b20565b61028b611cba565b61028b611ccc565b61028b611cde565b61028b611ce5565b610245611cec565b60975460ff16156104a45760405162461bcd60e51b815260040161049b90613ab3565b60405180910390fd5b60c95460ff166104c65760405162461bcd60e51b815260040161049b90613c94565b60c9805460ff191690556104d981611d36565b6104f55760405162461bcd60e51b815260040161049b90613add565b6101c7541561050657610506611dca565b6101c65460009061051f906001600160a01b0316611e6a565b90506000816001600160a01b031663ff8a4efe30856040518363ffffffff1660e01b815260040161055192919061355e565b60206040518083038186803b15801561056957600080fd5b505afa15801561057d573d6000803e3d6000fd5b505050506040513d601f19601f820116820180604052508101906105a19190613402565b9050600081116105c35760405162461bcd60e51b815260040161049b90613c52565b6105cd8382611e75565b6000836001600160a01b0316637976323d6040518163ffffffff1660e01b815260040160206040518083038186803b15801561060857600080fd5b505afa15801561061c573d6000803e3d6000fd5b505050506040513d601f19601f820116820180604052508101906106409190613402565b905060018110156106635760405162461bcd60e51b815260040161049b90613687565b6000610670826001611f31565b9050600061067d82611f73565b604051631c57762b60e31b81529091506001600160a01b0387169063e2bbb158906106ae9084908890600401613ddf565b602060405180830381600087803b1580156106c857600080fd5b505af11580156106dc573d6000803e3d6000fd5b505050506040513d601f19601f820116820180604052508101906107009190613402565b50856001600160a01b03167f86da25fff7a4075a94de2ffed109ca6748c3af22736eaf7efc75e3988f899d6e8560405161073a9190613527565b60405180910390a26101c4546107509085611f85565b6101c455505060c9805460ff1916600117905550505050565b600054610100900460ff16806107825750610782611faa565b80610790575060005460ff16155b6107ac5760405162461bcd60e51b815260040161049b90613b7f565b600054610100900460ff161580156107d7576000805460ff1961ff0019909116610100171660011790555b6001600160a01b0382166107fd5760405162461bcd60e51b815260040161049b90613b09565b610805611fb0565b61080d612031565b6108156120bd565b61082d600080516020613e0383398151915283610a65565b610845600080516020613e4383398151915283610a65565b61086b600080516020613e43833981519152600080516020613e0383398151915261214c565b610883600080516020613e038339815191528061214c565b8015610895576000805461ff00191690555b5050565b60006108b5600080516020613e238339815191526103b9612161565b905090565b60009081526065602052604090206002015490565b60975460009060ff16156108f55760405162461bcd60e51b815260040161049b90613ab3565b60c95460ff166109175760405162461bcd60e51b815260040161049b90613c94565b60c9805460ff191690556101c654610937906001600160a01b0316612165565b6001600160a01b031663a37b92c9336040518263ffffffff1660e01b8152600401610962919061348a565b60206040518083038186803b15801561097a57600080fd5b505afa15801561098e573d6000803e3d6000fd5b505050506040513d601f19601f820116820180604052508101906109b29190613311565b6109ce5760405162461bcd60e51b815260040161049b906135cb565b600082116109ee5760405162461bcd60e51b815260040161049b90613bff565b6101c754156109ff576109ff611dca565b6000610a0a83611263565b9050610a168382612170565b91505060c9805460ff19166001179055919050565b600082815260656020526040902060020154610a49906103b9612161565b610a655760405162461bcd60e51b815260040161049b906136ea565b6108958282612350565b610a77612161565b6001600160a01b0316816001600160a01b031614610aa75760405162461bcd60e51b815260040161049b90613d59565b61089582826123b9565b610acb600080516020613e438339815191526103b9612161565b610ae75760405162461bcd60e51b815260040161049b90613c36565b610aef612422565b565b600054610100900460ff1680610b0a5750610b0a611faa565b80610b18575060005460ff16155b610b345760405162461bcd60e51b815260040161049b90613b7f565b600054610100900460ff16158015610b5f576000805460ff1961ff0019909116610100171660011790555b6001600160a01b03831615801590610b7f57506001600160a01b03821615155b610b9b5760405162461bcd60e51b815260040161049b906137ee565b610ba483610769565b6101c680546001600160a01b0319166001600160a01b038416179055610bc861248e565b6101c35560006101c48190556101c58190556101c654610bf0906001600160a01b031661249a565b9050806001600160a01b03166318160ddd6040518163ffffffff1660e01b815260040160206040518083038186803b158015610c2b57600080fd5b505afa158015610c3f573d6000803e3d6000fd5b505050506040513d601f19601f82011682018060405250810190610c639190613402565b5060405163095ea7b360e01b81526000906001600160a01b0383169063095ea7b390610c97903090600019906004016134df565b602060405180830381600087803b158015610cb157600080fd5b505af1158015610cc5573d6000803e3d6000fd5b505050506040513d601f19601f82011682018060405250810190610ce99190613311565b905080610d085760405162461bcd60e51b815260040161049b90613767565b50508015610d1c576000805461ff00191690555b505050565b6101c654600090610d3a906001600160a01b03166124a1565b6001600160a01b031663d505accf333089898989896040518863ffffffff1660e01b8152600401610d71979695949392919061349e565b600060405180830381600087803b158015610d8b57600080fd5b505af1158015610d9f573d6000803e3d6000fd5b50505050610dac8661186e565b9695505050505050565b600080516020613e2383398151915281565b600054610100900460ff1680610de15750610de1611faa565b80610def575060005460ff16155b610e0b5760405162461bcd60e51b815260040161049b90613b7f565b600054610100900460ff16158015610e36576000805460ff1961ff0019909116610100171660011790555b610e3e612031565b8015610e50576000805461ff00191690555b50565b60975460009060ff1615610e795760405162461bcd60e51b815260040161049b90613ab3565b60c95460ff16610e9b5760405162461bcd60e51b815260040161049b90613c94565b60c9805460ff191690556101c654610ebb906001600160a01b0316612165565b6001600160a01b031663a37b92c9336040518263ffffffff1660e01b8152600401610ee6919061348a565b60206040518083038186803b158015610efe57600080fd5b505afa158015610f12573d6000803e3d6000fd5b505050506040513d601f19601f82011682018060405250810190610f369190613311565b610f525760405162461bcd60e51b815260040161049b906135cb565b60008211610f725760405162461bcd60e51b815260040161049b90613bff565b6101c75415610f8357610f83611dca565b6000610f8e83612521565b905082610f9b8282612170565b9250505060c9805460ff19166001179055919050565b60975460ff1690565b6101c5546101c4546101c6546000926108b5929091611075919061106f90610fea906001600160a01b031661249a565b6001600160a01b03166370a08231306040518263ffffffff1660e01b8152600401611015919061348a565b60206040518083038186803b15801561102d57600080fd5b505afa158015611041573d6000803e3d6000fd5b505050506040513d601f19601f820116820180604052508101906110659190613402565b6101c75490611f85565b90611f85565b90611f31565b6000611085613269565b6101c65461109b906001600160a01b0316612545565b6001600160a01b0316638c7a63ae846040518263ffffffff1660e01b81526004016110c69190613527565b60a06040518083038186803b1580156110de57600080fd5b505afa1580156110f2573d6000803e3d6000fd5b505050506040513d601f19601f82011682018060405250810190611116919061338e565b80516060820151604083015192935090916000916111349190611f31565b905060006111428383612550565b979650505050505050565b6101c6546001600160a01b031681565b600061116882611d36565b6111845760405162461bcd60e51b815260040161049b90613add565b6101c65460009061119d906001600160a01b0316611e6a565b604051631f999a2d60e01b81529091506001600160a01b03821690631f999a2d906111ce903090879060040161355e565b60206040518083038186803b1580156111e657600080fd5b505afa1580156111fa573d6000803e3d6000fd5b505050506040513d601f19601f8201168201806040525081019061121e9190613402565b9392505050565b61123f600080516020613e438339815191526103b9612161565b61125b5760405162461bcd60e51b815260040161049b90613c36565b610aef61268d565b600061128c6101c35461128661127761248e565b611280866126e6565b90612701565b9061273b565b92915050565b6101c35481565b6112a1611aa0565b6112bd5760405162461bcd60e51b815260040161049b90613d0e565b60975460ff16156112e05760405162461bcd60e51b815260040161049b90613ab3565b610aef611dca565b600082815260656020526040812061121e908361277d565b600082815260656020526040812061121e9083612789565b60975460ff161561133b5760405162461bcd60e51b815260040161049b90613ab3565b60c95460ff1661135d5760405162461bcd60e51b815260040161049b90613c94565b60c9805460ff191690556101c654600090611380906001600160a01b0316612545565b6040516331a9108f60e11b81529091506001600160a01b03821690636352211e906113af908590600401613527565b60206040518083038186803b1580156113c757600080fd5b505afa1580156113db573d6000803e3d6000fd5b505050506040513d601f19601f820116820180604052508101906113ff91906132bd565b6001600160a01b0316306001600160a01b03161461142f5760405162461bcd60e51b815260040161049b90613928565b611437613269565b60405163463d31d760e11b81526001600160a01b03831690638c7a63ae90611463908690600401613527565b60a06040518083038186803b15801561147b57600080fd5b505afa15801561148f573d6000803e3d6000fd5b505050506040513d601f19601f820116820180604052508101906114b3919061338e565b80519091506114c181611d36565b6114dd5760405162461bcd60e51b815260040161049b90613add565b60006114fa83606001518460400151611f3190919063ffffffff16565b90506000806115098484612550565b6001600160a01b03861660009081526101c86020526040902054919350915082158015611534575080155b1561154557505050505050506115ee565b6001600160a01b03851660009081526101c86020526040902082905581810361156d8161279e565b600081131561158d576101c5546115849082611f31565b6101c5556115a4565b6101c55461159f906000839003611f85565b6101c5555b856001600160a01b03167f176e189790e519c3382df7234bd391cc24005bf9cfaaa9de00103c208e10a274826040516115dd9190613527565b60405180910390a250505050505050505b5060c9805460ff19166001179055565b611606611aa0565b6116225760405162461bcd60e51b815260040161049b90613d0e565b60975460ff16156116455760405162461bcd60e51b815260040161049b90613ab3565b6101c65460009061165e906001600160a01b031661249a565b90506000816001600160a01b03166370a08231306040518263ffffffff1660e01b815260040161168e919061348a565b60206040518083038186803b1580156116a657600080fd5b505afa1580156116ba573d6000803e3d6000fd5b505050506040513d601f19601f820116820180604052508101906116de9190613402565b6101c6549091506000906116fa906001600160a01b03166127f5565b90506000836001600160a01b031663095ea7b383856040518363ffffffff1660e01b815260040161172c9291906134df565b602060405180830381600087803b15801561174657600080fd5b505af115801561175a573d6000803e3d6000fd5b505050506040513d601f19601f8201168201806040525081019061177e9190613311565b90508061179d5760405162461bcd60e51b815260040161049b90613ccb565b6117a78284612800565b6101c6546117bd906001600160a01b031661249a565b6001600160a01b031663095ea7b38360006040518363ffffffff1660e01b81526004016117eb9291906134df565b602060405180830381600087803b15801561180557600080fd5b505af1158015611819573d6000803e3d6000fd5b505050506040513d601f19601f8201168201806040525081019061183d9190613311565b90508061185c5760405162461bcd60e51b815260040161049b90613ccb565b50505050565b600081565b6101c55481565b60975460009060ff16156118945760405162461bcd60e51b815260040161049b90613ab3565b60c95460ff166118b65760405162461bcd60e51b815260040161049b90613c94565b60c9805460ff191690556101c6546118d6906001600160a01b0316612165565b6001600160a01b031663a37b92c9336040518263ffffffff1660e01b8152600401611901919061348a565b60206040518083038186803b15801561191957600080fd5b505afa15801561192d573d6000803e3d6000fd5b505050506040513d601f19601f820116820180604052508101906119519190613311565b61196d5760405162461bcd60e51b815260040161049b906135cb565b6000821161198d5760405162461bcd60e51b815260040161049b90613da8565b61199682611263565b905060006119a68261106f6128e7565b9050336001600160a01b03167f0b05f0d1cd0819f155b8a61f60baf7767c1ee49d04aeaab701df236140eb93f984846040516119e3929190613ddf565b60405180910390a260006119f8333086612970565b905080611a175760405162461bcd60e51b815260040161049b906136b3565b6101c654611a2d906001600160a01b0316612a3f565b6001600160a01b031663449a52f833856040518363ffffffff1660e01b8152600401611a5a9291906134df565b600060405180830381600087803b158015611a7457600080fd5b505af1158015611a88573d6000803e3d6000fd5b50505050505060c9805460ff19166001179055919050565b60006108b5600080516020613e038339815191526103b9612161565b600081815260656020526040812061128c90612a4a565b600082815260656020526040902060020154611af1906103b9612161565b610aa75760405162461bcd60e51b815260040161049b90613a63565b6101c86020526000908152604090205481565b60975460ff1615611b435760405162461bcd60e51b815260040161049b90613ab3565b60c95460ff16611b655760405162461bcd60e51b815260040161049b90613c94565b60c9805460ff191690556101c654600090611b88906001600160a01b0316612545565b9050611b92613269565b60405163463d31d760e11b81526001600160a01b03831690638c7a63ae90611bbe908690600401613527565b60a06040518083038186803b158015611bd657600080fd5b505afa158015611bea573d6000803e3d6000fd5b505050506040513d601f19601f82011682018060405250810190611c0e919061338e565b8051604051632a8a9f1360e21b81529192509060009081906001600160a01b0384169063aa2a7c4c90611c45908990600401613527565b6040805180830381600087803b158015611c5e57600080fd5b505af1158015611c72573d6000803e3d6000fd5b505050506040513d601f19601f82011682018060405250810190611c96919061341a565b91509150611ca5838383612a55565b505060c9805460ff1916600117905550505050565b600080516020613e0383398151915281565b600080516020613e4383398151915281565b6101c45481565b6101c75481565b611cf4611aa0565b611d105760405162461bcd60e51b815260040161049b90613d0e565b610aef600080516020613e23833981519152600080516020613e0383398151915261214c565b6101c654600090611d4f906001600160a01b0316612545565b6001600160a01b031663b5ada6d8836040518263ffffffff1660e01b8152600401611d7a919061348a565b60206040518083038186803b158015611d9257600080fd5b505afa158015611da6573d6000803e3d6000fd5b505050506040513d601f19601f8201168201806040525081019061128c9190613311565b6101c654600090611de3906001600160a01b03166127f5565b9050610e5081826001600160a01b03166370a08231306040518263ffffffff1660e01b8152600401611e15919061348a565b60206040518083038186803b158015611e2d57600080fd5b505afa158015611e41573d6000803e3d6000fd5b505050506040513d601f19601f82011682018060405250810190611e659190613402565b612b1c565b600061128c82612e35565b6101c654600090611e8e906001600160a01b031661249a565b90506000816001600160a01b031663095ea7b385856040518363ffffffff1660e01b8152600401611ec09291906134df565b602060405180830381600087803b158015611eda57600080fd5b505af1158015611eee573d6000803e3d6000fd5b505050506040513d601f19601f82011682018060405250810190611f129190613311565b90508061185c5760405162461bcd60e51b815260040161049b90613767565b600061121e83836040518060400160405280601e81526020017f536166654d6174683a207375627472616374696f6e206f766572666c6f770000815250612e4d565b600061128c600161106f846002612701565b60008282018381101561121e5760405162461bcd60e51b815260040161049b9061389d565b303b1590565b600054610100900460ff1680611fc95750611fc9611faa565b80611fd7575060005460ff16155b611ff35760405162461bcd60e51b815260040161049b90613b7f565b600054610100900460ff16158015610e3e576000805460ff1961ff0019909116610100171660011790558015610e50576000805461ff001916905550565b600054610100900460ff168061204a575061204a611faa565b80612058575060005460ff16155b6120745760405162461bcd60e51b815260040161049b90613b7f565b600054610100900460ff1615801561209f576000805460ff1961ff0019909116610100171660011790555b6097805460ff191690558015610e50576000805461ff001916905550565b600054610100900460ff16806120d657506120d6611faa565b806120e4575060005460ff16155b6121005760405162461bcd60e51b815260040161049b90613b7f565b600054610100900460ff1615801561212b576000805460ff1961ff0019909116610100171660011790555b60c9805460ff191660011790558015610e50576000805461ff001916905550565b60009182526065602052604090912060020155565b3390565b600061128c82612e79565b6101c654600090819061218b906001600160a01b0316612a3f565b90506000816001600160a01b03166370a08231336040518263ffffffff1660e01b81526004016121bb919061348a565b60206040518083038186803b1580156121d357600080fd5b505afa1580156121e7573d6000803e3d6000fd5b505050506040513d601f19601f8201168201806040525081019061220b9190613402565b90508084111561222d5760405162461bcd60e51b815260040161049b90613797565b849250600061223a610899565b612277576101c65461225f90612258906001600160a01b0316612e91565b879061273b565b905061226b8482611f31565b93506122778133612f11565b6000612284303387612970565b9050806122a35760405162461bcd60e51b815260040161049b906139b2565b60405163079cc67960e41b81526001600160a01b038516906379cc6790906122d19033908a906004016134df565b600060405180830381600087803b1580156122eb57600080fd5b505af11580156122ff573d6000803e3d6000fd5b50505050336001600160a01b03167f2d4d49c3e017b8235c908cbaa83a2431a08f3b950712696ece2088964fd399f0868460405161233e929190613ddf565b60405180910390a25050505092915050565b60008281526065602052604090206123689082612f96565b1561089557612375612161565b6001600160a01b0316816001600160a01b0316837f2f8788117e7eff1d82e926ec794901d17c78024a50270940304540a733656f0d60405160405180910390a45050565b60008281526065602052604090206123d19082612fab565b15610895576123de612161565b6001600160a01b0316816001600160a01b0316837ff6391f5c32d9c69d2a47ea670b442974b53935d1edc7fd64eb21e047a839171b60405160405180910390a45050565b60975460ff166124445760405162461bcd60e51b815260040161049b90613739565b6097805460ff191690557f5db9ee0a495bf2e6ff9c91a7834c1ba4fdd244a5e8aa4e537bd38aeae4b073aa612477612161565b604051612484919061348a565b60405180910390a1565b670de0b6b3a764000090565b600061128c825b60006001600160a01b03821663b93f9b0a60055b6040518263ffffffff1660e01b81526004016124d19190613527565b60206040518083038186803b1580156124e957600080fd5b505afa1580156124fd573d6000803e3d6000fd5b505050506040513d601f19601f8201168201806040525081019061128c91906132bd565b600061128c61254061253161248e565b6101c354611286908690612701565b612fc0565b600061128c82612fd8565b60008073__$1dcd660c042b25ef260537b13a3f0ede49$__6397aec1ab856001600160a01b03166347195e136040518163ffffffff1660e01b815260040160206040518083038186803b1580156125a657600080fd5b505afa1580156125ba573d6000803e3d6000fd5b505050506040513d601f19601f820116820180604052508101906125de91906132bd565b856125e7612ff0565b6101c6546125fd906001600160a01b0316612ff4565b6101c654612613906001600160a01b031661300c565b6040518663ffffffff1660e01b8152600401612633959493929190613530565b604080518083038186803b15801561264a57600080fd5b505af415801561265e573d6000803e3d6000fd5b505050506040513d601f19601f82011682018060405250810190612682919061341a565b915091509250929050565b60975460ff16156126b05760405162461bcd60e51b815260040161049b90613ab3565b6097805460ff191660011790557f62e78cea01bee320cd4e420270b5ea74000d11b0c9f74754ebdbfc544b05a258612477612161565b600061128c6126f3613024565b6112866126fe61248e565b85905b6000826127105750600061128c565b8282028284828161271d57fe5b041461121e5760405162461bcd60e51b815260040161049b90613b3e565b600061121e83836040518060400160405280601a81526020017f536166654d6174683a206469766973696f6e206279207a65726f00000000000081525061302b565b600061121e8383613062565b600061121e836001600160a01b0384166130a7565b60008113156127cd5760006127b2826130bf565b6101c3549091506127c39082611f85565b6101c35550610e50565b60006127dc82600019026130bf565b6101c3549091506127ed9082611f31565b6101c3555050565b600061128c826130d7565b6101c754156128215760405162461bcd60e51b815260040161049b906138d4565b8061283e5760405162461bcd60e51b815260040161049b9061360e565b60405163140e25ad60e31b81526000906001600160a01b0384169063a0712d689061286d908590600401613527565b602060405180830381600087803b15801561288757600080fd5b505af115801561289b573d6000803e3d6000fd5b505050506040513d601f19601f820116820180604052508101906128bf9190613402565b905080156128df5760405162461bcd60e51b815260040161049b90613980565b506101c75550565b6101c654600090612900906001600160a01b0316612a3f565b6001600160a01b03166318160ddd6040518163ffffffff1660e01b815260040160206040518083038186803b15801561293857600080fd5b505afa15801561294c573d6000803e3d6000fd5b505050506040513d601f19601f820116820180604052508101906108b59190613402565b60006001600160a01b0383166129985760405162461bcd60e51b815260040161049b90613838565b6101c6546000906129b1906001600160a01b031661249a565b6040516323b872dd60e01b81529091506001600160a01b038216906323b872dd906129e4908890889088906004016134f8565b602060405180830381600087803b1580156129fe57600080fd5b505af1158015612a12573d6000803e3d6000fd5b505050506040513d601f19601f82011682018060405250810190612a369190613311565b95945050505050565b600061128c826130ef565b600061128c82613107565b6000612a60836130bf565b6101c354909150612a719082611f85565b6101c3558215612abd57836001600160a01b03167fed3bc1b58411ea8e764b3ef8fa6b654877bc1e796a5a1a2373dfc8f1c0e0ea4884604051612ab49190613527565b60405180910390a25b811561185c57836001600160a01b03167f8295ad220549851bab232c2a7ae2e3c53a63d2294602bc85f8d8af108778a37e83604051612afc9190613527565b60405180910390a26101c454612b129083611f31565b6101c45550505050565b6101c75480612b3d5760405162461bcd60e51b815260040161049b9061386f565b81612b5a5760405162461bcd60e51b815260040161049b9061360e565b6101c654600090612b73906001600160a01b031661249a565b90506000816001600160a01b03166370a08231306040518263ffffffff1660e01b8152600401612ba3919061348a565b60206040518083038186803b158015612bbb57600080fd5b505afa158015612bcf573d6000803e3d6000fd5b505050506040513d601f19601f82011682018060405250810190612bf39190613402565b90506000856001600160a01b031663bd6d894d6040518163ffffffff1660e01b8152600401602060405180830381600087803b158015612c3257600080fd5b505af1158015612c46573d6000803e3d6000fd5b505050506040513d601f19601f82011682018060405250810190612c6a9190613402565b90506000612c78828761310b565b90506000876001600160a01b031663db006a75886040518263ffffffff1660e01b8152600401612ca89190613527565b602060405180830381600087803b158015612cc257600080fd5b505af1158015612cd6573d6000803e3d6000fd5b505050506040513d601f19601f82011682018060405250810190612cfa9190613402565b90506000856001600160a01b03166370a08231306040518263ffffffff1660e01b8152600401612d2a919061348a565b60206040518083038186803b158015612d4257600080fd5b505afa158015612d56573d6000803e3d6000fd5b505050506040513d601f19601f82011682018060405250810190612d7a9190613402565b90508115612d9a5760405162461bcd60e51b815260040161049b90613a2c565b82612da58287611f31565b14612dc25760405162461bcd60e51b815260040161049b90613bcd565b6000612dce8489611f31565b6101c654909150600090612df590612dee906001600160a01b0316613129565b839061273b565b90506000612e038383611f31565b9050612e1130826000612a55565b8115612e2157612e21828d612f11565b505060006101c75550505050505050505050565b60006001600160a01b03821663b93f9b0a600f6124b5565b60008184841115612e715760405162461bcd60e51b815260040161049b9190613578565b505050900390565b60006001600160a01b03821663b93f9b0a60136124b5565b60006001600160a01b03821663fc56365860045b6040518263ffffffff1660e01b8152600401612ec19190613527565b60206040518083038186803b158015612ed957600080fd5b505afa158015612eed573d6000803e3d6000fd5b505050506040513d601f19601f8201168201806040525081019061128c9190613402565b806001600160a01b03167ff3583f178a8d4f8888c3683f8e948faf9b6eb701c4f1fab265a6ecad1a1ddebb83604051612f4a9190613527565b60405180910390a26101c654600090612f77903090612f71906001600160a01b0316613141565b85612970565b905080610d1c5760405162461bcd60e51b815260040161049b906139e9565b600061121e836001600160a01b038416613159565b600061121e836001600160a01b0384166131a3565b600061128c612dee612fd0613024565b61128661248e565b60006001600160a01b03821663b93f9b0a600c6124b5565b4290565b60006001600160a01b03821663fc5636586005612ea5565b60006001600160a01b03821663fc5636586006612ea5565b620f424090565b6000818361304c5760405162461bcd60e51b815260040161049b9190613578565b50600083858161305857fe5b0495945050505050565b815460009082106130855760405162461bcd60e51b815260040161049b90613645565b82600001828154811061309457fe5b9060005260206000200154905092915050565b60009081526001919091016020526040902054151590565b600061128c6130cc6128e7565b61128661127761248e565b60006001600160a01b03821663b93f9b0a600a6124b5565b60006001600160a01b03821663b93f9b0a60046124b5565b5490565b600060066008612a366064611286662386f26fc1000081888a612701565b60006001600160a01b03821663fc5636586003612ea5565b60006001600160a01b03821663b93f9b0a60066124b5565b600061316583836130a7565b61319b5750815460018181018455600084815260208082209093018490558454848252828601909352604090209190915561128c565b50600061128c565b6000818152600183016020526040812054801561325f57835460001980830191908101906000908790839081106131d657fe5b90600052602060002001549050808760000184815481106131f357fe5b60009182526020808320909101929092558281526001898101909252604090209084019055865487908061322357fe5b6001900381819060005260206000200160009055905586600101600087815260200190815260200160002060009055600194505050505061128c565b600091505061128c565b6040518060a0016040528060006001600160a01b03168152602001600081526020016000815260200160008152602001600081525090565b6000602082840312156132b2578081fd5b813561121e81613ded565b6000602082840312156132ce578081fd5b815161121e81613ded565b600080604083850312156132eb578081fd5b82356132f681613ded565b9150602083013561330681613ded565b809150509250929050565b600060208284031215613322578081fd5b8151801515811461121e578182fd5b600060208284031215613342578081fd5b5035919050565b6000806040838503121561335b578182fd5b82359150602083013561330681613ded565b6000806040838503121561337f578182fd5b50508035926020909101359150565b600060a0828403121561339f578081fd5b60405160a0810181811067ffffffffffffffff821117156133be578283fd5b60405282516133cc81613ded565b80825250602083015160208201526040830151604082015260608301516060820152608083015160808201528091505092915050565b600060208284031215613413578081fd5b5051919050565b6000806040838503121561342c578182fd5b505080516020909101519092909150565b600080600080600060a08688031215613454578081fd5b8535945060208601359350604086013560ff81168114613472578182fd5b94979396509394606081013594506080013592915050565b6001600160a01b0391909116815260200190565b6001600160a01b0397881681529590961660208601526040850193909352606084019190915260ff16608083015260a082015260c081019190915260e00190565b6001600160a01b03929092168252602082015260400190565b6001600160a01b039384168152919092166020820152604081019190915260600190565b901515815260200190565b90815260200190565b6001600160a01b03959095168552602085019390935260408401919091526060830152608082015260a00190565b6001600160a01b0392831681529116602082015260400190565b6000602080835283518082850152825b818110156135a457858101830151858201604001528201613588565b818111156135b55783604083870101525b50601f01601f1916929092016040019392505050565b60208082526023908201527f54686973206164647265737320686173206e6f74206265656e20676f2d6c69736040820152621d195960ea1b606082015260800190565b6020808252601e908201527f416d6f756e7420746f2073776565702063616e6e6f74206265207a65726f0000604082015260600190565b60208082526022908201527f456e756d657261626c655365743a20696e646578206f7574206f6620626f756e604082015261647360f01b606082015260800190565b602080825260129082015271506f6f6c20686173206e6f20736c6963657360701b604082015260600190565b6020808252601e908201527f4661696c656420746f207472616e7366657220666f72206465706f7369740000604082015260600190565b6020808252602f908201527f416363657373436f6e74726f6c3a2073656e646572206d75737420626520616e60408201526e0818591b5a5b881d1bc819dc985b9d608a1b606082015260800190565b60208082526014908201527314185d5cd8589b194e881b9bdd081c185d5cd95960621b604082015260600190565b6020808252601690820152754661696c656420746f20617070726f7665205553444360501b604082015260600190565b60208082526037908201527f416d6f756e74207265717565737465642069732067726561746572207468616e604082015276207768617420746869732061646472657373206f776e7360481b606082015260800190565b6020808252602a908201527f4f776e657220616e6420636f6e666967206164647265737365732063616e6e6f6040820152697420626520656d70747960b01b606082015260800190565b6020808252601a908201527f43616e27742073656e6420746f207a65726f2061646472657373000000000000604082015260600190565b602080825260149082015273139bc8199d5b991cc81bdb8818dbdb5c1bdd5b9960621b604082015260600190565b6020808252601b908201527f536166654d6174683a206164646974696f6e206f766572666c6f770000000000604082015260600190565b60208082526034908201527f43616e6e6f74207377656570207768656e20776520616c72656164792068617660408201527365206120636f6d706f756e642062616c616e636560601b606082015260800190565b60208082526038908201527f4f6e6c7920746f6b656e73206f776e6564206279207468652073656e696f72206040820152773837b7b61031b0b7103132903bb934ba3a32b7103237bbb760411b606082015260800190565b60208082526018908201527714ddd9595c081d1bc818dbdb5c1bdd5b990819985a5b195960421b604082015260600190565b6020808252601f908201527f4661696c656420746f207472616e7366657220666f7220776974686472617700604082015260600190565b60208082526023908201527f52657365727665207472616e7366657220776173206e6f742073756363657373604082015262199d5b60ea1b606082015260800190565b6020808252601a908201527f53776565702066726f6d20636f6d706f756e64206661696c6564000000000000604082015260600190565b60208082526030908201527f416363657373436f6e74726f6c3a2073656e646572206d75737420626520616e60408201526f2061646d696e20746f207265766f6b6560801b606082015260800190565b60208082526010908201526f14185d5cd8589b194e881c185d5cd95960821b604082015260600190565b602080825260129082015271141bdbdb081b5d5cdd081899481d985b1a5960721b604082015260600190565b6020808252818101527f4f776e65722063616e6e6f7420626520746865207a65726f2061646472657373604082015260600190565b60208082526021908201527f536166654d6174683a206d756c7469706c69636174696f6e206f766572666c6f6040820152607760f81b606082015260800190565b6020808252602e908201527f436f6e747261637420696e7374616e63652068617320616c726561647920626560408201526d195b881a5b9a5d1a585b1a5e995960921b606082015260800190565b602080825260189082015277155b995e1c1958dd1959081c995919595b48185b5bdd5b9d60421b604082015260600190565b6020808252601c908201527f4d757374207769746864726177206d6f7265207468616e207a65726f00000000604082015260600190565b6020808252600290820152614e4160f01b604082015260600190565b60208082526022908201527f496e766573746d656e7420616d6f756e74206d75737420626520706f73697469604082015261766560f01b606082015260800190565b6020808252601f908201527f5265656e7472616e637947756172643a207265656e7472616e742063616c6c00604082015260600190565b60208082526023908201527f4661696c656420746f20617070726f7665205553444320666f7220636f6d706f6040820152621d5b9960ea1b606082015260800190565b6020808252602b908201527f4d75737420686176652061646d696e20726f6c6520746f20706572666f726d2060408201526a3a3434b99030b1ba34b7b760a91b606082015260800190565b6020808252602f908201527f416363657373436f6e74726f6c3a2063616e206f6e6c792072656e6f756e636560408201526e103937b632b9903337b91039b2b63360891b606082015260800190565b6020808252601b908201527f4d757374206465706f736974206d6f7265207468616e207a65726f0000000000604082015260600190565b918252602082015260400190565b6001600160a01b0381168114610e5057600080fdfeb19546dff01e856fb3f010c267a7b1c60363cf8a4664e21cc89c26224620214ed624b04b6a86de88625cc0780256b85157c5a615db56d1357e0a97a30fde276765d7a28e3265b37a6474929f336521b332c1681b933f6cb9f3376673440d862aa26469706673582212202e2e46cc19c2274b13cd7ee8797e3f04e1b9b3fc1ad428939f4adf5433a910a564736f6c634300060c0033",
  "libraries": {
    "Accountant": "0x3b2D0B5545Ca2C88988c8298495ca9fB459ef212"
  },
  "devdoc": {
    "author": "Goldfinch",
    "kind": "dev",
    "methods": {
      "calculateWritedown(uint256)": {
        "params": {
          "tokenId": "The token reprsenting the position"
        },
        "returns": {
          "_0": "The amount in dollars the principal should be written down by"
        }
      },
      "deposit(uint256)": {
        "params": {
          "amount": "The amount of USDC to deposit"
        }
      },
      "depositWithPermit(uint256,uint256,uint8,bytes32,bytes32)": {
        "params": {
          "amount": "The amount of USDC to deposit",
          "r": "secp256k1 signature component",
          "s": "secp256k1 signature component",
          "v": "secp256k1 signature component"
        }
      },
      "getNumShares(uint256)": {
        "params": {
          "amount": "USDC amount to convert to FIDU"
        }
      },
      "getRoleAdmin(bytes32)": {
        "details": "Returns the admin role that controls `role`. See {grantRole} and {revokeRole}. To change a role's admin, use {_setRoleAdmin}."
      },
      "getRoleMember(bytes32,uint256)": {
        "details": "Returns one of the accounts that have `role`. `index` must be a value between 0 and {getRoleMemberCount}, non-inclusive. Role bearers are not sorted in any particular way, and their ordering may change at any point. WARNING: When using {getRoleMember} and {getRoleMemberCount}, make sure you perform all queries on the same block. See the following https://forum.openzeppelin.com/t/iterating-over-elements-on-enumerableset-in-openzeppelin-contracts/2296[forum post] for more information."
      },
      "getRoleMemberCount(bytes32)": {
        "details": "Returns the number of accounts that have `role`. Can be used together with {getRoleMember} to enumerate all bearers of a role."
      },
      "grantRole(bytes32,address)": {
        "details": "Grants `role` to `account`. If `account` had not been already granted `role`, emits a {RoleGranted} event. Requirements: - the caller must have ``role``'s admin role."
      },
      "hasRole(bytes32,address)": {
        "details": "Returns `true` if `account` has been granted `role`."
      },
      "invest(address)": {
        "params": {
          "pool": "An ITranchedPool whose senior tranche should be considered for investment"
        }
      },
      "pause()": {
        "details": "Pauses all functions guarded by Pause See {Pausable-_pause}. Requirements: - the caller must have the PAUSER_ROLE."
      },
      "paused()": {
        "details": "Returns true if the contract is paused, and false otherwise."
      },
      "redeem(uint256)": {
        "params": {
          "tokenId": "the ID of an IPoolTokens token to be redeemed"
        }
      },
      "renounceRole(bytes32,address)": {
        "details": "Revokes `role` from the calling account. Roles are often managed via {grantRole} and {revokeRole}: this function's purpose is to provide a mechanism for accounts to lose their privileges if they are compromised (such as when a trusted device is misplaced). If the calling account had been granted `role`, emits a {RoleRevoked} event. Requirements: - the caller must be `account`."
      },
      "revokeRole(bytes32,address)": {
        "details": "Revokes `role` from `account`. If `account` had been granted `role`, emits a {RoleRevoked} event. Requirements: - the caller must have ``role``'s admin role."
      },
      "unpause()": {
        "details": "Unpauses the contract See {Pausable-_unpause}. Requirements: - the caller must have the Pauser role"
      },
      "withdraw(uint256)": {
        "params": {
          "usdcAmount": "The amount of USDC to withdraw"
        }
      },
      "withdrawInFidu(uint256)": {
        "params": {
          "fiduAmount": "The amount of USDC to withdraw in terms of FIDU shares"
        }
      },
      "writedown(uint256)": {
        "params": {
          "tokenId": "the ID of an IPoolTokens token to be considered for writedown"
        }
      }
    },
    "title": "Goldfinch's SeniorPool contract",
    "version": 1
  },
  "userdoc": {
    "kind": "user",
    "methods": {
      "assets()": {
        "notice": "Returns the net assests controlled by and owed to the pool"
      },
      "calculateWritedown(uint256)": {
        "notice": "Calculates the writedown amount for a particular pool position"
      },
      "deposit(uint256)": {
        "notice": "Deposits `amount` USDC from msg.sender into the SeniorPool, and grants you the  equivalent value of FIDU tokens"
      },
      "depositWithPermit(uint256,uint256,uint8,bytes32,bytes32)": {
        "notice": "Identical to deposit, except it allows for a passed up signature to permit  the Senior Pool to move funds on behalf of the user, all within one transaction."
      },
      "getNumShares(uint256)": {
        "notice": "Converts and USDC amount to FIDU amount"
      },
      "invest(address)": {
        "notice": "Invest in an ITranchedPool's senior tranche using the senior pool's strategy"
      },
      "redeem(uint256)": {
        "notice": "Redeem interest and/or principal from an ITranchedPool investment"
      },
      "sweepFromCompound()": {
        "notice": "Moves any USDC from Compound back to the SeniorPool, and recognizes interest earned. This is done automatically on drawdown or withdraw, but can be called manually if necessary. Requirements:  - The caller must be an admin."
      },
      "sweepToCompound()": {
        "notice": "Moves any USDC still in the SeniorPool to Compound, and tracks the amount internally. This is done to earn interest on latent funds until we have other borrowers who can use it. Requirements:  - The caller must be an admin."
      },
      "withdraw(uint256)": {
        "notice": "Withdraws USDC from the SeniorPool to msg.sender, and burns the equivalent value of FIDU tokens"
      },
      "withdrawInFidu(uint256)": {
        "notice": "Withdraws USDC (denominated in FIDU terms) from the SeniorPool to msg.sender"
      },
      "writedown(uint256)": {
        "notice": "Write down an ITranchedPool investment. This will adjust the senior pool's share price  down if we're considering the investment a loss, or up if the borrower has subsequently  made repayments that restore confidence that the full loan will be repaid."
      }
    },
    "notice": "Main entry point for senior LPs (a.k.a. capital providers)  Automatically invests across borrower pools using an adjustable strategy.",
    "version": 1
  },
  "storageLayout": {
    "storage": [
      {
        "astId": 50,
        "contract": "contracts/protocol/core/SeniorPool.sol:SeniorPool",
        "label": "initialized",
        "offset": 0,
        "slot": "0",
        "type": "t_bool"
      },
      {
        "astId": 53,
        "contract": "contracts/protocol/core/SeniorPool.sol:SeniorPool",
        "label": "initializing",
        "offset": 1,
        "slot": "0",
        "type": "t_bool"
      },
      {
        "astId": 118,
        "contract": "contracts/protocol/core/SeniorPool.sol:SeniorPool",
        "label": "______gap",
        "offset": 0,
        "slot": "1",
        "type": "t_array(t_uint256)50_storage"
      },
      {
        "astId": 43,
        "contract": "contracts/protocol/core/SeniorPool.sol:SeniorPool",
        "label": "__gap",
        "offset": 0,
        "slot": "51",
        "type": "t_array(t_uint256)50_storage"
      },
      {
        "astId": 163,
        "contract": "contracts/protocol/core/SeniorPool.sol:SeniorPool",
        "label": "_roles",
        "offset": 0,
        "slot": "101",
        "type": "t_mapping(t_bytes32,t_struct(RoleData)159_storage)"
      },
      {
        "astId": 408,
        "contract": "contracts/protocol/core/SeniorPool.sol:SeniorPool",
        "label": "__gap",
        "offset": 0,
        "slot": "102",
        "type": "t_array(t_uint256)49_storage"
      },
      {
        "astId": 3207,
        "contract": "contracts/protocol/core/SeniorPool.sol:SeniorPool",
        "label": "_paused",
        "offset": 0,
        "slot": "151",
        "type": "t_bool"
      },
      {
        "astId": 3296,
        "contract": "contracts/protocol/core/SeniorPool.sol:SeniorPool",
        "label": "__gap",
        "offset": 0,
        "slot": "152",
        "type": "t_array(t_uint256)49_storage"
      },
      {
        "astId": 3305,
        "contract": "contracts/protocol/core/SeniorPool.sol:SeniorPool",
        "label": "_notEntered",
        "offset": 0,
        "slot": "201",
        "type": "t_bool"
      },
      {
        "astId": 3346,
        "contract": "contracts/protocol/core/SeniorPool.sol:SeniorPool",
        "label": "__gap",
        "offset": 0,
        "slot": "202",
        "type": "t_array(t_uint256)49_storage"
      },
      {
        "astId": 12077,
        "contract": "contracts/protocol/core/SeniorPool.sol:SeniorPool",
        "label": "__gap1",
        "offset": 0,
        "slot": "251",
        "type": "t_array(t_uint256)50_storage"
      },
      {
        "astId": 12081,
        "contract": "contracts/protocol/core/SeniorPool.sol:SeniorPool",
        "label": "__gap2",
        "offset": 0,
        "slot": "301",
        "type": "t_array(t_uint256)50_storage"
      },
      {
        "astId": 12085,
        "contract": "contracts/protocol/core/SeniorPool.sol:SeniorPool",
        "label": "__gap3",
        "offset": 0,
        "slot": "351",
        "type": "t_array(t_uint256)50_storage"
      },
      {
        "astId": 12089,
        "contract": "contracts/protocol/core/SeniorPool.sol:SeniorPool",
        "label": "__gap4",
        "offset": 0,
        "slot": "401",
        "type": "t_array(t_uint256)50_storage"
      },
      {
        "astId": 10195,
        "contract": "contracts/protocol/core/SeniorPool.sol:SeniorPool",
        "label": "sharePrice",
        "offset": 0,
        "slot": "451",
        "type": "t_uint256"
      },
      {
        "astId": 10197,
        "contract": "contracts/protocol/core/SeniorPool.sol:SeniorPool",
        "label": "totalLoansOutstanding",
        "offset": 0,
        "slot": "452",
        "type": "t_uint256"
      },
      {
        "astId": 10199,
        "contract": "contracts/protocol/core/SeniorPool.sol:SeniorPool",
        "label": "totalWritedowns",
        "offset": 0,
        "slot": "453",
        "type": "t_uint256"
      },
      {
        "astId": 17440,
        "contract": "contracts/protocol/core/SeniorPool.sol:SeniorPool",
        "label": "config",
        "offset": 0,
        "slot": "454",
        "type": "t_contract(GoldfinchConfig)15934"
      },
      {
        "astId": 17453,
        "contract": "contracts/protocol/core/SeniorPool.sol:SeniorPool",
        "label": "compoundBalance",
        "offset": 0,
        "slot": "455",
        "type": "t_uint256"
      },
      {
        "astId": 17457,
        "contract": "contracts/protocol/core/SeniorPool.sol:SeniorPool",
        "label": "writedowns",
        "offset": 0,
        "slot": "456",
        "type": "t_mapping(t_contract(ITranchedPool)10566,t_uint256)"
      }
    ],
    "types": {
      "t_array(t_bytes32)dyn_storage": {
        "base": "t_bytes32",
        "encoding": "dynamic_array",
        "label": "bytes32[]",
        "numberOfBytes": "32"
      },
      "t_array(t_uint256)49_storage": {
        "base": "t_uint256",
        "encoding": "inplace",
        "label": "uint256[49]",
        "numberOfBytes": "1568"
      },
      "t_array(t_uint256)50_storage": {
        "base": "t_uint256",
        "encoding": "inplace",
        "label": "uint256[50]",
        "numberOfBytes": "1600"
      },
      "t_bool": {
        "encoding": "inplace",
        "label": "bool",
        "numberOfBytes": "1"
      },
      "t_bytes32": {
        "encoding": "inplace",
        "label": "bytes32",
        "numberOfBytes": "32"
      },
      "t_contract(GoldfinchConfig)15934": {
        "encoding": "inplace",
        "label": "contract GoldfinchConfig",
        "numberOfBytes": "20"
      },
      "t_contract(ITranchedPool)10566": {
        "encoding": "inplace",
        "label": "contract ITranchedPool",
        "numberOfBytes": "20"
      },
      "t_mapping(t_bytes32,t_struct(RoleData)159_storage)": {
        "encoding": "mapping",
        "key": "t_bytes32",
        "label": "mapping(bytes32 => struct AccessControlUpgradeSafe.RoleData)",
        "numberOfBytes": "32",
        "value": "t_struct(RoleData)159_storage"
      },
      "t_mapping(t_bytes32,t_uint256)": {
        "encoding": "mapping",
        "key": "t_bytes32",
        "label": "mapping(bytes32 => uint256)",
        "numberOfBytes": "32",
        "value": "t_uint256"
      },
      "t_mapping(t_contract(ITranchedPool)10566,t_uint256)": {
        "encoding": "mapping",
        "key": "t_contract(ITranchedPool)10566",
        "label": "mapping(contract ITranchedPool => uint256)",
        "numberOfBytes": "32",
        "value": "t_uint256"
      },
      "t_struct(AddressSet)2982_storage": {
        "encoding": "inplace",
        "label": "struct EnumerableSet.AddressSet",
        "members": [
          {
            "astId": 2981,
            "contract": "contracts/protocol/core/SeniorPool.sol:SeniorPool",
            "label": "_inner",
            "offset": 0,
            "slot": "0",
            "type": "t_struct(Set)2802_storage"
          }
        ],
        "numberOfBytes": "64"
      },
      "t_struct(RoleData)159_storage": {
        "encoding": "inplace",
        "label": "struct AccessControlUpgradeSafe.RoleData",
        "members": [
          {
            "astId": 156,
            "contract": "contracts/protocol/core/SeniorPool.sol:SeniorPool",
            "label": "members",
            "offset": 0,
            "slot": "0",
            "type": "t_struct(AddressSet)2982_storage"
          },
          {
            "astId": 158,
            "contract": "contracts/protocol/core/SeniorPool.sol:SeniorPool",
            "label": "adminRole",
            "offset": 0,
            "slot": "2",
            "type": "t_bytes32"
          }
        ],
        "numberOfBytes": "96"
      },
      "t_struct(Set)2802_storage": {
        "encoding": "inplace",
        "label": "struct EnumerableSet.Set",
        "members": [
          {
            "astId": 2797,
            "contract": "contracts/protocol/core/SeniorPool.sol:SeniorPool",
            "label": "_values",
            "offset": 0,
            "slot": "0",
            "type": "t_array(t_bytes32)dyn_storage"
          },
          {
            "astId": 2801,
            "contract": "contracts/protocol/core/SeniorPool.sol:SeniorPool",
            "label": "_indexes",
            "offset": 0,
            "slot": "1",
            "type": "t_mapping(t_bytes32,t_uint256)"
          }
        ],
        "numberOfBytes": "64"
      },
      "t_uint256": {
        "encoding": "inplace",
        "label": "uint256",
        "numberOfBytes": "32"
      }
    }
  }
}