{
  "address": "0x7Af0dd7fc35E16f55bc25680a48E5BB7Bb5505b3",
  "abi": [
    {
      "anonymous": false,
      "inputs": [
        {
          "indexed": true,
          "internalType": "address",
          "name": "who",
          "type": "address"
        },
        {
          "indexed": false,
          "internalType": "address",
          "name": "configAddress",
          "type": "address"
        }
      ],
      "name": "GoldfinchConfigUpdated",
      "type": "event"
    },
    {
      "anonymous": false,
      "inputs": [
        {
          "indexed": false,
          "internalType": "address",
          "name": "account",
          "type": "address"
        }
      ],
      "name": "Paused",
      "type": "event"
    },
    {
      "anonymous": false,
      "inputs": [
        {
          "indexed": true,
          "internalType": "bytes32",
          "name": "role",
          "type": "bytes32"
        },
        {
          "indexed": true,
          "internalType": "address",
          "name": "account",
          "type": "address"
        },
        {
          "indexed": true,
          "internalType": "address",
          "name": "sender",
          "type": "address"
        }
      ],
      "name": "RoleGranted",
      "type": "event"
    },
    {
      "anonymous": false,
      "inputs": [
        {
          "indexed": true,
          "internalType": "bytes32",
          "name": "role",
          "type": "bytes32"
        },
        {
          "indexed": true,
          "internalType": "address",
          "name": "account",
          "type": "address"
        },
        {
          "indexed": true,
          "internalType": "address",
          "name": "sender",
          "type": "address"
        }
      ],
      "name": "RoleRevoked",
      "type": "event"
    },
    {
      "anonymous": false,
      "inputs": [
        {
          "indexed": false,
          "internalType": "address",
          "name": "account",
          "type": "address"
        }
      ],
      "name": "Unpaused",
      "type": "event"
    },
    {
      "inputs": [],
      "name": "DEFAULT_ADMIN_ROLE",
      "outputs": [
        {
          "internalType": "bytes32",
          "name": "",
          "type": "bytes32"
        }
      ],
      "stateMutability": "view",
      "type": "function"
    },
    {
      "inputs": [],
      "name": "ID_TYPE_0",
      "outputs": [
        {
          "internalType": "uint256",
          "name": "",
          "type": "uint256"
        }
      ],
      "stateMutability": "view",
      "type": "function"
    },
    {
      "inputs": [],
      "name": "ID_TYPE_1",
      "outputs": [
        {
          "internalType": "uint256",
          "name": "",
          "type": "uint256"
        }
      ],
      "stateMutability": "view",
      "type": "function"
    },
    {
      "inputs": [],
      "name": "ID_TYPE_10",
      "outputs": [
        {
          "internalType": "uint256",
          "name": "",
          "type": "uint256"
        }
      ],
      "stateMutability": "view",
      "type": "function"
    },
    {
      "inputs": [],
      "name": "ID_TYPE_2",
      "outputs": [
        {
          "internalType": "uint256",
          "name": "",
          "type": "uint256"
        }
      ],
      "stateMutability": "view",
      "type": "function"
    },
    {
      "inputs": [],
      "name": "ID_TYPE_3",
      "outputs": [
        {
          "internalType": "uint256",
          "name": "",
          "type": "uint256"
        }
      ],
      "stateMutability": "view",
      "type": "function"
    },
    {
      "inputs": [],
      "name": "ID_TYPE_4",
      "outputs": [
        {
          "internalType": "uint256",
          "name": "",
          "type": "uint256"
        }
      ],
      "stateMutability": "view",
      "type": "function"
    },
    {
      "inputs": [],
      "name": "ID_TYPE_5",
      "outputs": [
        {
          "internalType": "uint256",
          "name": "",
          "type": "uint256"
        }
      ],
      "stateMutability": "view",
      "type": "function"
    },
    {
      "inputs": [],
      "name": "ID_TYPE_6",
      "outputs": [
        {
          "internalType": "uint256",
          "name": "",
          "type": "uint256"
        }
      ],
      "stateMutability": "view",
      "type": "function"
    },
    {
      "inputs": [],
      "name": "ID_TYPE_7",
      "outputs": [
        {
          "internalType": "uint256",
          "name": "",
          "type": "uint256"
        }
      ],
      "stateMutability": "view",
      "type": "function"
    },
    {
      "inputs": [],
      "name": "ID_TYPE_8",
      "outputs": [
        {
          "internalType": "uint256",
          "name": "",
          "type": "uint256"
        }
      ],
      "stateMutability": "view",
      "type": "function"
    },
    {
      "inputs": [],
      "name": "ID_TYPE_9",
      "outputs": [
        {
          "internalType": "uint256",
          "name": "",
          "type": "uint256"
        }
      ],
      "stateMutability": "view",
      "type": "function"
    },
    {
      "inputs": [],
      "name": "OWNER_ROLE",
      "outputs": [
        {
          "internalType": "bytes32",
          "name": "",
          "type": "bytes32"
        }
      ],
      "stateMutability": "view",
      "type": "function"
    },
    {
      "inputs": [],
      "name": "PAUSER_ROLE",
      "outputs": [
        {
          "internalType": "bytes32",
          "name": "",
          "type": "bytes32"
        }
      ],
      "stateMutability": "view",
      "type": "function"
    },
    {
      "inputs": [],
      "name": "ZAPPER_ROLE",
      "outputs": [
        {
          "internalType": "bytes32",
          "name": "",
          "type": "bytes32"
        }
      ],
      "stateMutability": "view",
      "type": "function"
    },
    {
      "inputs": [
        {
          "internalType": "address",
          "name": "owner",
          "type": "address"
        }
      ],
      "name": "__BaseUpgradeablePausable__init",
      "outputs": [],
      "stateMutability": "nonpayable",
      "type": "function"
    },
    {
      "inputs": [],
      "name": "__PauserPausable__init",
      "outputs": [],
      "stateMutability": "nonpayable",
      "type": "function"
    },
    {
      "inputs": [
        {
          "internalType": "uint256",
          "name": "",
          "type": "uint256"
        }
      ],
      "name": "allIdTypes",
      "outputs": [
        {
          "internalType": "uint256",
          "name": "",
          "type": "uint256"
        }
      ],
      "stateMutability": "view",
      "type": "function"
    },
    {
      "inputs": [],
      "name": "config",
      "outputs": [
        {
          "internalType": "contract GoldfinchConfig",
          "name": "",
          "type": "address"
        }
      ],
      "stateMutability": "view",
      "type": "function"
    },
    {
      "inputs": [
        {
          "internalType": "bytes32",
          "name": "role",
          "type": "bytes32"
        }
      ],
      "name": "getRoleAdmin",
      "outputs": [
        {
          "internalType": "bytes32",
          "name": "",
          "type": "bytes32"
        }
      ],
      "stateMutability": "view",
      "type": "function"
    },
    {
      "inputs": [
        {
          "internalType": "bytes32",
          "name": "role",
          "type": "bytes32"
        },
        {
          "internalType": "uint256",
          "name": "index",
          "type": "uint256"
        }
      ],
      "name": "getRoleMember",
      "outputs": [
        {
          "internalType": "address",
          "name": "",
          "type": "address"
        }
      ],
      "stateMutability": "view",
      "type": "function"
    },
    {
      "inputs": [
        {
          "internalType": "bytes32",
          "name": "role",
          "type": "bytes32"
        }
      ],
      "name": "getRoleMemberCount",
      "outputs": [
        {
          "internalType": "uint256",
          "name": "",
          "type": "uint256"
        }
      ],
      "stateMutability": "view",
      "type": "function"
    },
    {
      "inputs": [],
      "name": "getSeniorPoolIdTypes",
      "outputs": [
        {
          "internalType": "uint256[]",
          "name": "",
          "type": "uint256[]"
        }
      ],
      "stateMutability": "pure",
      "type": "function"
    },
    {
      "inputs": [
        {
          "internalType": "address",
          "name": "account",
          "type": "address"
        }
      ],
      "name": "go",
      "outputs": [
        {
          "internalType": "bool",
          "name": "",
          "type": "bool"
        }
      ],
      "stateMutability": "view",
      "type": "function"
    },
    {
      "inputs": [
        {
          "internalType": "address",
          "name": "account",
          "type": "address"
        },
        {
          "internalType": "uint256[]",
          "name": "onlyIdTypes",
          "type": "uint256[]"
        }
      ],
      "name": "goOnlyIdTypes",
      "outputs": [
        {
          "internalType": "bool",
          "name": "",
          "type": "bool"
        }
      ],
      "stateMutability": "view",
      "type": "function"
    },
    {
      "inputs": [
        {
          "internalType": "address",
          "name": "account",
          "type": "address"
        }
      ],
      "name": "goSeniorPool",
      "outputs": [
        {
          "internalType": "bool",
          "name": "",
          "type": "bool"
        }
      ],
      "stateMutability": "view",
      "type": "function"
    },
    {
      "inputs": [
        {
          "internalType": "bytes32",
          "name": "role",
          "type": "bytes32"
        },
        {
          "internalType": "address",
          "name": "account",
          "type": "address"
        }
      ],
      "name": "grantRole",
      "outputs": [],
      "stateMutability": "nonpayable",
      "type": "function"
    },
    {
      "inputs": [
        {
          "internalType": "bytes32",
          "name": "role",
          "type": "bytes32"
        },
        {
          "internalType": "address",
          "name": "account",
          "type": "address"
        }
      ],
      "name": "hasRole",
      "outputs": [
        {
          "internalType": "bool",
          "name": "",
          "type": "bool"
        }
      ],
      "stateMutability": "view",
      "type": "function"
    },
    {
      "inputs": [],
      "name": "initZapperRole",
      "outputs": [],
      "stateMutability": "nonpayable",
      "type": "function"
    },
    {
      "inputs": [
        {
          "internalType": "address",
          "name": "owner",
          "type": "address"
        },
        {
          "internalType": "contract GoldfinchConfig",
          "name": "_config",
          "type": "address"
        },
        {
          "internalType": "address",
          "name": "_uniqueIdentity",
          "type": "address"
        }
      ],
      "name": "initialize",
      "outputs": [],
      "stateMutability": "nonpayable",
      "type": "function"
    },
    {
      "inputs": [],
      "name": "isAdmin",
      "outputs": [
        {
          "internalType": "bool",
          "name": "",
          "type": "bool"
        }
      ],
      "stateMutability": "view",
      "type": "function"
    },
    {
      "inputs": [],
      "name": "legacyGoList",
      "outputs": [
        {
          "internalType": "contract GoldfinchConfig",
          "name": "",
          "type": "address"
        }
      ],
      "stateMutability": "view",
      "type": "function"
    },
    {
      "inputs": [],
      "name": "pause",
      "outputs": [],
      "stateMutability": "nonpayable",
      "type": "function"
    },
    {
      "inputs": [],
      "name": "paused",
      "outputs": [
        {
          "internalType": "bool",
          "name": "",
          "type": "bool"
        }
      ],
      "stateMutability": "view",
      "type": "function"
    },
    {
      "inputs": [],
      "name": "performUpgrade",
      "outputs": [],
      "stateMutability": "nonpayable",
      "type": "function"
    },
    {
      "inputs": [
        {
          "internalType": "bytes32",
          "name": "role",
          "type": "bytes32"
        },
        {
          "internalType": "address",
          "name": "account",
          "type": "address"
        }
      ],
      "name": "renounceRole",
      "outputs": [],
      "stateMutability": "nonpayable",
      "type": "function"
    },
    {
      "inputs": [
        {
          "internalType": "bytes32",
          "name": "role",
          "type": "bytes32"
        },
        {
          "internalType": "address",
          "name": "account",
          "type": "address"
        }
      ],
      "name": "revokeRole",
      "outputs": [],
      "stateMutability": "nonpayable",
      "type": "function"
    },
    {
      "inputs": [
        {
          "internalType": "contract GoldfinchConfig",
          "name": "_legacyGoList",
          "type": "address"
        }
      ],
      "name": "setLegacyGoList",
      "outputs": [],
      "stateMutability": "nonpayable",
      "type": "function"
    },
    {
      "inputs": [],
      "name": "uniqueIdentity",
      "outputs": [
        {
          "internalType": "address",
          "name": "",
          "type": "address"
        }
      ],
      "stateMutability": "view",
      "type": "function"
    },
    {
      "inputs": [],
      "name": "unpause",
      "outputs": [],
      "stateMutability": "nonpayable",
      "type": "function"
    }
  ],
  "transactionHash": "0xabaf397dd77a22c29282ba250b273dfbb496b35779cac869c422f422548698b7",
  "args": [],
  "solcInputHash": "bf6f46dcbe6f600dbdc728698b461228",
  "bytecode": "0x608060405234801561001057600080fd5b50611d56806100206000396000f3fe608060405234801561001057600080fd5b50600436106102485760003560e01c80639010d07c1161013b578063ddd8f687116100b8578063ec2e8a751161007c578063ec2e8a751461041e578063ef28057614610426578063f2b607811461043b578063f66256bf1461044e578063fb285ed01461045657610248565b8063ddd8f687146103f6578063e57a2a50146103fe578063e58378bb14610406578063e63ab1e91461040e578063e85e772a1461041657610248565b8063b6db75a0116100ff578063b6db75a0146103ad578063c0c53b8b146103b5578063ca15c873146103c8578063d00d472e146103db578063d547741f146103e357610248565b80639010d07c1461036c57806391d148541461037f5780639b56d78814610392578063a217fddf14610392578063a37b92c91461039a57610248565b8063479e743c116101c9578063701d240a1161018d578063701d240a1461033757806379502c551461033f578063801dfa901461035457806380f878021461035c5780638456cb591461036457610248565b8063479e743c1461030f5780634d4e3e0c14610317578063526d81f61461031f5780635344626a146103275780635c975abb1461032f57610248565b80632f2ff15d116102105780632f2ff15d146102bb578063311c5078146102ce5780633434e749146102e157806336568abe146102f45780633f4ba83a1461030757610248565b8063097616a31461024d5780631484bddd146102625780631852f20014610280578063248a9ca3146102a05780632e82d895146102b3575b600080fd5b61026061025b36600461171f565b61045e565b005b61026a610597565b6040516102779190611975565b60405180910390f35b61029361028e366004611757565b61059c565b604051610277919061196a565b61026a6102ae366004611879565b610770565b61026a610788565b6102606102c9366004611891565b61078d565b6102606102dc36600461171f565b6107d1565b6102936102ef36600461171f565b610818565b610260610302366004611891565b610a1d565b610260610a5f565b61026a610a9f565b61026a610aa4565b610260610ab6565b61026a610b41565b610293610b46565b61026a610b4f565b610347610b54565b60405161027791906118f9565b61026a610b64565b61026a610b69565b610260610b6e565b61034761037a3660046118c0565b610bac565b61029361038d366004611891565b610bcb565b61026a610be3565b6102936103a836600461171f565b610be8565b610293610dc8565b6102606103c336600461180f565b610de9565b61026a6103d6366004611879565b610f02565b610260610f19565b6102606103f1366004611891565b610f45565b61026a610f7f565b61026a610f84565b61026a610f89565b61026a610f9b565b610347610fad565b61026a610fbd565b61042e610fc2565b6040516102779190611926565b61026a610449366004611879565b61107d565b610347611092565b6102606110a2565b600054610100900460ff168061047757506104776110ec565b80610485575060005460ff16155b6104aa5760405162461bcd60e51b81526004016104a190611b80565b60405180910390fd5b600054610100900460ff161580156104d5576000805460ff1961ff0019909116610100171660011790555b6001600160a01b0382166104fb5760405162461bcd60e51b81526004016104a190611aee565b6105036110f2565b61050b611173565b6105136111ff565b61052b600080516020611cc1833981519152836107c7565b610543600080516020611d01833981519152836107c7565b610569600080516020611d01833981519152600080516020611cc183398151915261128e565b610581600080516020611cc18339815191528061128e565b8015610593576000805461ff00191690555b5050565b600881565b60006001600160a01b0383166105c45760405162461bcd60e51b81526004016104a190611a3d565b6105dc600080516020611ce183398151915284610bcb565b156105e95750600161076a565b60006105f36112a3565b905060005b835181101561076357600084828151811061060f57fe5b602002602001015114801561069b575060405163ad5a35e360e01b81526001600160a01b0383169063ad5a35e39061064b9088906004016118f9565b60206040518083038186803b15801561066357600080fd5b505afa158015610677573d6000803e3d6000fd5b505050506040513d601f19601f8201168201806040525081019061069b9190611859565b156106ab5760019250505061076a565b6101c35484516000916001600160a01b03169062fdd58e9088908890869081106106d157fe5b60200260200101516040518363ffffffff1660e01b81526004016106f692919061190d565b60206040518083038186803b15801561070e57600080fd5b505afa158015610722573d6000803e3d6000fd5b505050506040513d601f19601f8201168201806040525081019061074691906118e1565b9050801561075a576001935050505061076a565b506001016105f8565b5060009150505b92915050565b6000818152606560205260409020600201545b919050565b600381565b6000828152606560205260409020600201546107ab9061038d6112db565b6107c75760405162461bcd60e51b81526004016104a1906119c0565b61059382826112df565b6107d9610dc8565b6107f55760405162461bcd60e51b81526004016104a190611bea565b6101c580546001600160a01b0319166001600160a01b0392909216919091179055565b60006001600160a01b0382166108405760405162461bcd60e51b81526004016104a190611a3d565b6108486112a3565b6001600160a01b031663ad5a35e3836040518263ffffffff1660e01b815260040161087391906118f9565b60206040518083038186803b15801561088b57600080fd5b505afa15801561089f573d6000803e3d6000fd5b505050506040513d601f19601f820116820180604052508101906108c39190611859565b8061094d57506101c354604051627eeac760e11b81526000916001600160a01b03169062fdd58e906108fb908690859060040161190d565b60206040518083038186803b15801561091357600080fd5b505afa158015610927573d6000803e3d6000fd5b505050506040513d601f19601f8201168201806040525081019061094b91906118e1565b115b1561095a57506001610783565b60015b600b811015610a14576101c3546000906001600160a01b031662fdd58e856101c685600b811061098957fe5b01546040518363ffffffff1660e01b81526004016109a892919061190d565b60206040518083038186803b1580156109c057600080fd5b505afa1580156109d4573d6000803e3d6000fd5b505050506040513d601f19601f820116820180604052508101906109f891906118e1565b90508015610a0b57600192505050610783565b5060010161095d565b50600092915050565b610a256112db565b6001600160a01b0316816001600160a01b031614610a555760405162461bcd60e51b81526004016104a190611c35565b6105938282611348565b610a79600080516020611d0183398151915261038d6112db565b610a955760405162461bcd60e51b81526004016104a190611bce565b610a9d6113b1565b565b600581565b600080516020611ce183398151915281565b600054610100900460ff1680610acf5750610acf6110ec565b80610add575060005460ff16155b610af95760405162461bcd60e51b81526004016104a190611b80565b600054610100900460ff16158015610b24576000805460ff1961ff0019909116610100171660011790555b610b2c611173565b8015610b3e576000805461ff00191690555b50565b600681565b60975460ff1690565b600181565b6101c4546001600160a01b031681565b600781565b600281565b610b88600080516020611d0183398151915261038d6112db565b610ba45760405162461bcd60e51b81526004016104a190611bce565b610a9d61141d565b6000828152606560205260408120610bc49083611476565b9392505050565b6000828152606560205260408120610bc49083611482565b600081565b60006001600160a01b038216610c105760405162461bcd60e51b81526004016104a190611a3d565b6101c454610c26906001600160a01b0316611497565b6001600160a01b0316826001600160a01b03161480610c585750610c58600080516020611ce183398151915283610bcb565b80610ce15750610c666112a3565b6001600160a01b031663ad5a35e3836040518263ffffffff1660e01b8152600401610c9191906118f9565b60206040518083038186803b158015610ca957600080fd5b505afa158015610cbd573d6000803e3d6000fd5b505050506040513d601f19601f82011682018060405250810190610ce19190611859565b15610cee57506001610783565b6060610cf8610fc2565b905060005b8151811015610dbe576101c35482516000916001600160a01b03169062fdd58e908790869086908110610d2c57fe5b60200260200101516040518363ffffffff1660e01b8152600401610d5192919061190d565b60206040518083038186803b158015610d6957600080fd5b505afa158015610d7d573d6000803e3d6000fd5b505050506040513d601f19601f82011682018060405250810190610da191906118e1565b90508015610db55760019350505050610783565b50600101610cfd565b5060009392505050565b6000610de4600080516020611cc183398151915261038d6112db565b905090565b600054610100900460ff1680610e025750610e026110ec565b80610e10575060005460ff16155b610e2c5760405162461bcd60e51b81526004016104a190611b80565b600054610100900460ff16158015610e57576000805460ff1961ff0019909116610100171660011790555b6001600160a01b03841615801590610e7757506001600160a01b03831615155b8015610e8b57506001600160a01b03821615155b610ea75760405162461bcd60e51b81526004016104a190611b23565b610eb08461045e565b610eb8611517565b6101c480546001600160a01b038086166001600160a01b0319928316179092556101c38054928516929091169190911790558015610efc576000805461ff00191690555b50505050565b600081815260656020526040812061076a9061155b565b610f21610dc8565b610f3d5760405162461bcd60e51b81526004016104a190611bea565b610a9d611517565b600082815260656020526040902060020154610f639061038d6112db565b610a555760405162461bcd60e51b81526004016104a190611a74565b600a81565b600981565b600080516020611cc183398151915281565b600080516020611d0183398151915281565b6101c5546001600160a01b031681565b600481565b6060610fcc611701565b6040518060800160405280600081526020016001815260200160038152602001600481525090506060600467ffffffffffffffff8111801561100d57600080fd5b50604051908082528060200260200182016040528015611037578160200160208202803683370190505b50905060005b60048110156110765782816004811061105257fe5b602002015182828151811061106357fe5b602090810291909101015260010161103d565b5091505090565b6101c681600b811061108b57fe5b0154905081565b6101c3546001600160a01b031681565b6110aa610dc8565b6110c65760405162461bcd60e51b81526004016104a190611bea565b610a9d600080516020611ce1833981519152600080516020611cc183398151915261128e565b303b1590565b600054610100900460ff168061110b575061110b6110ec565b80611119575060005460ff16155b6111355760405162461bcd60e51b81526004016104a190611b80565b600054610100900460ff16158015610b2c576000805460ff1961ff0019909116610100171660011790558015610b3e576000805461ff001916905550565b600054610100900460ff168061118c575061118c6110ec565b8061119a575060005460ff16155b6111b65760405162461bcd60e51b81526004016104a190611b80565b600054610100900460ff161580156111e1576000805460ff1961ff0019909116610100171660011790555b6097805460ff191690558015610b3e576000805461ff001916905550565b600054610100900460ff168061121857506112186110ec565b80611226575060005460ff16155b6112425760405162461bcd60e51b81526004016104a190611b80565b600054610100900460ff1615801561126d576000805460ff1961ff0019909116610100171660011790555b60c9805460ff191660011790558015610b3e576000805461ff001916905550565b60009182526065602052604090912060020155565b6101c5546000906001600160a01b0316156112ca576101c5546001600160a01b0316610de4565b506101c4546001600160a01b031690565b3390565b60008281526065602052604090206112f79082611566565b15610593576113046112db565b6001600160a01b0316816001600160a01b0316837f2f8788117e7eff1d82e926ec794901d17c78024a50270940304540a733656f0d60405160405180910390a45050565b6000828152606560205260409020611360908261157b565b156105935761136d6112db565b6001600160a01b0316816001600160a01b0316837ff6391f5c32d9c69d2a47ea670b442974b53935d1edc7fd64eb21e047a839171b60405160405180910390a45050565b60975460ff166113d35760405162461bcd60e51b81526004016104a190611a0f565b6097805460ff191690557f5db9ee0a495bf2e6ff9c91a7834c1ba4fdd244a5e8aa4e537bd38aeae4b073aa6114066112db565b60405161141391906118f9565b60405180910390a1565b60975460ff16156114405760405162461bcd60e51b81526004016104a190611ac4565b6097805460ff191660011790557f62e78cea01bee320cd4e420270b5ea74000d11b0c9f74754ebdbfc544b05a2586114066112db565b6000610bc48383611590565b6000610bc4836001600160a01b0384166115d5565b604051635c9fcd8560e11b81526000906001600160a01b0383169063b93f9b0a906114c790601590600401611975565b60206040518083038186803b1580156114df57600080fd5b505afa1580156114f3573d6000803e3d6000fd5b505050506040513d601f19601f8201168201806040525081019061076a919061173b565b60006101c65560016101c75560026101c85560036101c95560046101ca5560056101cb5560066101cc5560076101cd5560086101ce5560096101cf55600a6101d055565b600061076a826115ed565b6000610bc4836001600160a01b0384166115f1565b6000610bc4836001600160a01b03841661163b565b815460009082106115b35760405162461bcd60e51b81526004016104a19061197e565b8260000182815481106115c257fe5b9060005260206000200154905092915050565b60009081526001919091016020526040902054151590565b5490565b60006115fd83836115d5565b6116335750815460018181018455600084815260208082209093018490558454848252828601909352604090209190915561076a565b50600061076a565b600081815260018301602052604081205480156116f7578354600019808301919081019060009087908390811061166e57fe5b906000526020600020015490508087600001848154811061168b57fe5b6000918252602080832090910192909255828152600189810190925260409020908401905586548790806116bb57fe5b6001900381819060005260206000200160009055905586600101600087815260200190815260200160002060009055600194505050505061076a565b600091505061076a565b60405180608001604052806004906020820280368337509192915050565b600060208284031215611730578081fd5b8135610bc481611cab565b60006020828403121561174c578081fd5b8151610bc481611cab565b60008060408385031215611769578081fd5b823561177481611cab565b915060208381013567ffffffffffffffff80821115611791578384fd5b818601915086601f8301126117a4578384fd5b8135818111156117b2578485fd5b83810291506117c2848301611c84565b8181528481019084860184860187018b10156117dc578788fd5b8795505b838610156117fe5780358352600195909501949186019186016117e0565b508096505050505050509250929050565b600080600060608486031215611823578081fd5b833561182e81611cab565b9250602084013561183e81611cab565b9150604084013561184e81611cab565b809150509250925092565b60006020828403121561186a578081fd5b81518015158114610bc4578182fd5b60006020828403121561188a578081fd5b5035919050565b600080604083850312156118a3578182fd5b8235915060208301356118b581611cab565b809150509250929050565b600080604083850312156118d2578182fd5b50508035926020909101359150565b6000602082840312156118f2578081fd5b5051919050565b6001600160a01b0391909116815260200190565b6001600160a01b03929092168252602082015260400190565b6020808252825182820181905260009190848201906040850190845b8181101561195e57835183529284019291840191600101611942565b50909695505050505050565b901515815260200190565b90815260200190565b60208082526022908201527f456e756d657261626c655365743a20696e646578206f7574206f6620626f756e604082015261647360f01b606082015260800190565b6020808252602f908201527f416363657373436f6e74726f6c3a2073656e646572206d75737420626520616e60408201526e0818591b5a5b881d1bc819dc985b9d608a1b606082015260800190565b60208082526014908201527314185d5cd8589b194e881b9bdd081c185d5cd95960621b604082015260600190565b6020808252601d908201527f5a65726f2061646472657373206973206e6f7420676f2d6c6973746564000000604082015260600190565b60208082526030908201527f416363657373436f6e74726f6c3a2073656e646572206d75737420626520616e60408201526f2061646d696e20746f207265766f6b6560801b606082015260800190565b60208082526010908201526f14185d5cd8589b194e881c185d5cd95960821b604082015260600190565b6020808252818101527f4f776e65722063616e6e6f7420626520746865207a65726f2061646472657373604082015260600190565b6020808252603d908201527f4f776e657220616e6420636f6e66696720616e6420556e697175654964656e7460408201527f697479206164647265737365732063616e6e6f7420626520656d707479000000606082015260800190565b6020808252602e908201527f436f6e747261637420696e7374616e63652068617320616c726561647920626560408201526d195b881a5b9a5d1a585b1a5e995960921b606082015260800190565b6020808252600290820152614e4160f01b604082015260600190565b6020808252602b908201527f4d75737420686176652061646d696e20726f6c6520746f20706572666f726d2060408201526a3a3434b99030b1ba34b7b760a91b606082015260800190565b6020808252602f908201527f416363657373436f6e74726f6c3a2063616e206f6e6c792072656e6f756e636560408201526e103937b632b9903337b91039b2b63360891b606082015260800190565b60405181810167ffffffffffffffff81118282101715611ca357600080fd5b604052919050565b6001600160a01b0381168114610b3e57600080fdfeb19546dff01e856fb3f010c267a7b1c60363cf8a4664e21cc89c26224620214ed624b04b6a86de88625cc0780256b85157c5a615db56d1357e0a97a30fde276765d7a28e3265b37a6474929f336521b332c1681b933f6cb9f3376673440d862aa26469706673582212200b643967ab787267d43df9a70a6b40dd2cfb4648526f2f59b83d3b956759c48564736f6c634300060c0033",
  "devdoc": {
    "kind": "dev",
    "methods": {
      "getRoleAdmin(bytes32)": {
        "details": "Returns the admin role that controls `role`. See {grantRole} and {revokeRole}. To change a role's admin, use {_setRoleAdmin}."
      },
      "getRoleMember(bytes32,uint256)": {
        "details": "Returns one of the accounts that have `role`. `index` must be a value between 0 and {getRoleMemberCount}, non-inclusive. Role bearers are not sorted in any particular way, and their ordering may change at any point. WARNING: When using {getRoleMember} and {getRoleMemberCount}, make sure you perform all queries on the same block. See the following https://forum.openzeppelin.com/t/iterating-over-elements-on-enumerableset-in-openzeppelin-contracts/2296[forum post] for more information."
      },
      "getRoleMemberCount(bytes32)": {
        "details": "Returns the number of accounts that have `role`. Can be used together with {getRoleMember} to enumerate all bearers of a role."
      },
      "go(address)": {
        "params": {
          "account": "The account whose go status to obtain"
        },
        "returns": {
          "_0": "The account's go status"
        }
      },
      "goOnlyIdTypes(address,uint256[])": {
        "params": {
          "account": "The account whose go status to obtain",
          "onlyIdTypes": "Array of id types to check balances"
        },
        "returns": {
          "_0": "The account's go status"
        }
      },
      "goSeniorPool(address)": {
        "params": {
          "account": "The account whose go status to obtain"
        },
        "returns": {
          "_0": "The account's go status"
        }
      },
      "grantRole(bytes32,address)": {
        "details": "Grants `role` to `account`. If `account` had not been already granted `role`, emits a {RoleGranted} event. Requirements: - the caller must have ``role``'s admin role."
      },
      "hasRole(bytes32,address)": {
        "details": "Returns `true` if `account` has been granted `role`."
      },
      "pause()": {
        "details": "Pauses all functions guarded by Pause See {Pausable-_pause}. Requirements: - the caller must have the PAUSER_ROLE."
      },
      "paused()": {
        "details": "Returns true if the contract is paused, and false otherwise."
      },
      "renounceRole(bytes32,address)": {
        "details": "Revokes `role` from the calling account. Roles are often managed via {grantRole} and {revokeRole}: this function's purpose is to provide a mechanism for accounts to lose their privileges if they are compromised (such as when a trusted device is misplaced). If the calling account had been granted `role`, emits a {RoleRevoked} event. Requirements: - the caller must be `account`."
      },
      "revokeRole(bytes32,address)": {
        "details": "Revokes `role` from `account`. If `account` had been granted `role`, emits a {RoleRevoked} event. Requirements: - the caller must have ``role``'s admin role."
      },
      "unpause()": {
        "details": "Unpauses the contract See {Pausable-_unpause}. Requirements: - the caller must have the Pauser role"
      }
    },
    "version": 1
  },
  "userdoc": {
    "kind": "user",
    "methods": {
      "go(address)": {
        "notice": "Returns whether the provided account is go-listed for use of the Goldfinch protocol for any of the UID token types. This status is defined as: whether `balanceOf(account, id)` on the UniqueIdentity contract is non-zero (where `id` is a supported token id on UniqueIdentity), falling back to the account's status on the legacy go-list maintained on GoldfinchConfig."
      },
      "goOnlyIdTypes(address,uint256[])": {
        "notice": "Returns whether the provided account is go-listed for use of the Goldfinch protocol for defined UID token types"
      },
      "goSeniorPool(address)": {
        "notice": "Returns whether the provided account is go-listed for use of the SeniorPool on the Goldfinch protocol."
      },
      "setLegacyGoList(address)": {
        "notice": "sets the config that will be used as the source of truth for the go list instead of the config currently associated. To use the associated config for to list, set the override to the null address."
      },
      "uniqueIdentity()": {
        "notice": "Returns the address of the UniqueIdentity contract."
      }
    },
    "version": 1
  },
  "storageLayout": {
    "storage": [
      {
        "astId": 50,
        "contract": "contracts/protocol/core/Go.sol:Go",
        "label": "initialized",
        "offset": 0,
        "slot": "0",
        "type": "t_bool"
      },
      {
        "astId": 53,
        "contract": "contracts/protocol/core/Go.sol:Go",
        "label": "initializing",
        "offset": 1,
        "slot": "0",
        "type": "t_bool"
      },
      {
        "astId": 118,
        "contract": "contracts/protocol/core/Go.sol:Go",
        "label": "______gap",
        "offset": 0,
        "slot": "1",
        "type": "t_array(t_uint256)50_storage"
      },
      {
        "astId": 43,
        "contract": "contracts/protocol/core/Go.sol:Go",
        "label": "__gap",
        "offset": 0,
        "slot": "51",
        "type": "t_array(t_uint256)50_storage"
      },
      {
        "astId": 163,
        "contract": "contracts/protocol/core/Go.sol:Go",
        "label": "_roles",
        "offset": 0,
        "slot": "101",
        "type": "t_mapping(t_bytes32,t_struct(RoleData)159_storage)"
      },
      {
        "astId": 408,
        "contract": "contracts/protocol/core/Go.sol:Go",
        "label": "__gap",
        "offset": 0,
        "slot": "102",
        "type": "t_array(t_uint256)49_storage"
      },
      {
        "astId": 3207,
        "contract": "contracts/protocol/core/Go.sol:Go",
        "label": "_paused",
        "offset": 0,
        "slot": "151",
        "type": "t_bool"
      },
      {
        "astId": 3296,
        "contract": "contracts/protocol/core/Go.sol:Go",
        "label": "__gap",
        "offset": 0,
        "slot": "152",
        "type": "t_array(t_uint256)49_storage"
      },
      {
        "astId": 3305,
        "contract": "contracts/protocol/core/Go.sol:Go",
        "label": "_notEntered",
        "offset": 0,
        "slot": "201",
        "type": "t_bool"
      },
      {
        "astId": 3346,
        "contract": "contracts/protocol/core/Go.sol:Go",
        "label": "__gap",
        "offset": 0,
        "slot": "202",
        "type": "t_array(t_uint256)49_storage"
      },
      {
        "astId": 12077,
        "contract": "contracts/protocol/core/Go.sol:Go",
        "label": "__gap1",
        "offset": 0,
        "slot": "251",
        "type": "t_array(t_uint256)50_storage"
      },
      {
        "astId": 12081,
        "contract": "contracts/protocol/core/Go.sol:Go",
        "label": "__gap2",
        "offset": 0,
        "slot": "301",
        "type": "t_array(t_uint256)50_storage"
      },
      {
        "astId": 12085,
        "contract": "contracts/protocol/core/Go.sol:Go",
        "label": "__gap3",
        "offset": 0,
        "slot": "351",
        "type": "t_array(t_uint256)50_storage"
      },
      {
        "astId": 12089,
        "contract": "contracts/protocol/core/Go.sol:Go",
        "label": "__gap4",
        "offset": 0,
        "slot": "401",
        "type": "t_array(t_uint256)50_storage"
      },
      {
        "astId": 14882,
        "contract": "contracts/protocol/core/Go.sol:Go",
        "label": "uniqueIdentity",
        "offset": 0,
        "slot": "451",
        "type": "t_address"
      },
      {
        "astId": 14887,
        "contract": "contracts/protocol/core/Go.sol:Go",
        "label": "config",
        "offset": 0,
        "slot": "452",
        "type": "t_contract(GoldfinchConfig)15934"
      },
      {
        "astId": 14892,
        "contract": "contracts/protocol/core/Go.sol:Go",
        "label": "legacyGoList",
        "offset": 0,
        "slot": "453",
        "type": "t_contract(GoldfinchConfig)15934"
      },
      {
        "astId": 14896,
        "contract": "contracts/protocol/core/Go.sol:Go",
        "label": "allIdTypes",
        "offset": 0,
        "slot": "454",
        "type": "t_array(t_uint256)11_storage"
      }
    ],
    "types": {
      "t_address": {
        "encoding": "inplace",
        "label": "address",
        "numberOfBytes": "20"
      },
      "t_array(t_bytes32)dyn_storage": {
        "base": "t_bytes32",
        "encoding": "dynamic_array",
        "label": "bytes32[]",
        "numberOfBytes": "32"
      },
      "t_array(t_uint256)11_storage": {
        "base": "t_uint256",
        "encoding": "inplace",
        "label": "uint256[11]",
        "numberOfBytes": "352"
      },
      "t_array(t_uint256)49_storage": {
        "base": "t_uint256",
        "encoding": "inplace",
        "label": "uint256[49]",
        "numberOfBytes": "1568"
      },
      "t_array(t_uint256)50_storage": {
        "base": "t_uint256",
        "encoding": "inplace",
        "label": "uint256[50]",
        "numberOfBytes": "1600"
      },
      "t_bool": {
        "encoding": "inplace",
        "label": "bool",
        "numberOfBytes": "1"
      },
      "t_bytes32": {
        "encoding": "inplace",
        "label": "bytes32",
        "numberOfBytes": "32"
      },
      "t_contract(GoldfinchConfig)15934": {
        "encoding": "inplace",
        "label": "contract GoldfinchConfig",
        "numberOfBytes": "20"
      },
      "t_mapping(t_bytes32,t_struct(RoleData)159_storage)": {
        "encoding": "mapping",
        "key": "t_bytes32",
        "label": "mapping(bytes32 => struct AccessControlUpgradeSafe.RoleData)",
        "numberOfBytes": "32",
        "value": "t_struct(RoleData)159_storage"
      },
      "t_mapping(t_bytes32,t_uint256)": {
        "encoding": "mapping",
        "key": "t_bytes32",
        "label": "mapping(bytes32 => uint256)",
        "numberOfBytes": "32",
        "value": "t_uint256"
      },
      "t_struct(AddressSet)2982_storage": {
        "encoding": "inplace",
        "label": "struct EnumerableSet.AddressSet",
        "members": [
          {
            "astId": 2981,
            "contract": "contracts/protocol/core/Go.sol:Go",
            "label": "_inner",
            "offset": 0,
            "slot": "0",
            "type": "t_struct(Set)2802_storage"
          }
        ],
        "numberOfBytes": "64"
      },
      "t_struct(RoleData)159_storage": {
        "encoding": "inplace",
        "label": "struct AccessControlUpgradeSafe.RoleData",
        "members": [
          {
            "astId": 156,
            "contract": "contracts/protocol/core/Go.sol:Go",
            "label": "members",
            "offset": 0,
            "slot": "0",
            "type": "t_struct(AddressSet)2982_storage"
          },
          {
            "astId": 158,
            "contract": "contracts/protocol/core/Go.sol:Go",
            "label": "adminRole",
            "offset": 0,
            "slot": "2",
            "type": "t_bytes32"
          }
        ],
        "numberOfBytes": "96"
      },
      "t_struct(Set)2802_storage": {
        "encoding": "inplace",
        "label": "struct EnumerableSet.Set",
        "members": [
          {
            "astId": 2797,
            "contract": "contracts/protocol/core/Go.sol:Go",
            "label": "_values",
            "offset": 0,
            "slot": "0",
            "type": "t_array(t_bytes32)dyn_storage"
          },
          {
            "astId": 2801,
            "contract": "contracts/protocol/core/Go.sol:Go",
            "label": "_indexes",
            "offset": 0,
            "slot": "1",
            "type": "t_mapping(t_bytes32,t_uint256)"
          }
        ],
        "numberOfBytes": "64"
      },
      "t_uint256": {
        "encoding": "inplace",
        "label": "uint256",
        "numberOfBytes": "32"
      }
    }
  }
}