{
  "address": "0x127B95dFA1034b02A5650cF44fC1724059459eeB",
  "abi": [
    {
      "anonymous": false,
      "inputs": [
        {
          "indexed": true,
          "internalType": "address",
          "name": "borrower",
          "type": "address"
        },
        {
          "indexed": true,
          "internalType": "address",
          "name": "owner",
          "type": "address"
        }
      ],
      "name": "BorrowerCreated",
      "type": "event"
    },
    {
      "anonymous": false,
      "inputs": [
        {
          "indexed": true,
          "internalType": "contract IV2CreditLine",
          "name": "creditLine",
          "type": "address"
        }
      ],
      "name": "CreditLineCreated",
      "type": "event"
    },
    {
      "anonymous": false,
      "inputs": [
        {
          "indexed": false,
          "internalType": "address",
          "name": "account",
          "type": "address"
        }
      ],
      "name": "Paused",
      "type": "event"
    },
    {
      "anonymous": false,
      "inputs": [
        {
          "indexed": true,
          "internalType": "contract ITranchedPool",
          "name": "pool",
          "type": "address"
        },
        {
          "indexed": true,
          "internalType": "address",
          "name": "borrower",
          "type": "address"
        }
      ],
      "name": "PoolCreated",
      "type": "event"
    },
    {
      "anonymous": false,
      "inputs": [
        {
          "indexed": true,
          "internalType": "bytes32",
          "name": "role",
          "type": "bytes32"
        },
        {
          "indexed": true,
          "internalType": "address",
          "name": "account",
          "type": "address"
        },
        {
          "indexed": true,
          "internalType": "address",
          "name": "sender",
          "type": "address"
        }
      ],
      "name": "RoleGranted",
      "type": "event"
    },
    {
      "anonymous": false,
      "inputs": [
        {
          "indexed": true,
          "internalType": "bytes32",
          "name": "role",
          "type": "bytes32"
        },
        {
          "indexed": true,
          "internalType": "address",
          "name": "account",
          "type": "address"
        },
        {
          "indexed": true,
          "internalType": "address",
          "name": "sender",
          "type": "address"
        }
      ],
      "name": "RoleRevoked",
      "type": "event"
    },
    {
      "anonymous": false,
      "inputs": [
        {
          "indexed": false,
          "internalType": "address",
          "name": "account",
          "type": "address"
        }
      ],
      "name": "Unpaused",
      "type": "event"
    },
    {
      "inputs": [],
      "name": "BORROWER_ROLE",
      "outputs": [
        {
          "internalType": "bytes32",
          "name": "",
          "type": "bytes32"
        }
      ],
      "stateMutability": "view",
      "type": "function"
    },
    {
      "inputs": [],
      "name": "DEFAULT_ADMIN_ROLE",
      "outputs": [
        {
          "internalType": "bytes32",
          "name": "",
          "type": "bytes32"
        }
      ],
      "stateMutability": "view",
      "type": "function"
    },
    {
      "inputs": [],
      "name": "OWNER_ROLE",
      "outputs": [
        {
          "internalType": "bytes32",
          "name": "",
          "type": "bytes32"
        }
      ],
      "stateMutability": "view",
      "type": "function"
    },
    {
      "inputs": [],
      "name": "PAUSER_ROLE",
      "outputs": [
        {
          "internalType": "bytes32",
          "name": "",
          "type": "bytes32"
        }
      ],
      "stateMutability": "view",
      "type": "function"
    },
    {
      "inputs": [
        {
          "internalType": "address",
          "name": "owner",
          "type": "address"
        }
      ],
      "name": "__BaseUpgradeablePausable__init",
      "outputs": [],
      "stateMutability": "nonpayable",
      "type": "function"
    },
    {
      "inputs": [],
      "name": "__PauserPausable__init",
      "outputs": [],
      "stateMutability": "nonpayable",
      "type": "function"
    },
    {
      "inputs": [],
      "name": "config",
      "outputs": [
        {
          "internalType": "contract GoldfinchConfig",
          "name": "",
          "type": "address"
        }
      ],
      "stateMutability": "view",
      "type": "function"
    },
    {
      "inputs": [
        {
          "internalType": "address",
          "name": "owner",
          "type": "address"
        }
      ],
      "name": "createBorrower",
      "outputs": [
        {
          "internalType": "address",
          "name": "",
          "type": "address"
        }
      ],
      "stateMutability": "nonpayable",
      "type": "function"
    },
    {
      "inputs": [],
      "name": "createCreditLine",
      "outputs": [
        {
          "internalType": "contract IV2CreditLine",
          "name": "",
          "type": "address"
        }
      ],
      "stateMutability": "nonpayable",
      "type": "function"
    },
    {
      "inputs": [
        {
          "internalType": "address",
          "name": "_borrower",
          "type": "address"
        },
        {
          "internalType": "uint256",
          "name": "_juniorFeePercent",
          "type": "uint256"
        },
        {
          "internalType": "uint256",
          "name": "_limit",
          "type": "uint256"
        },
        {
          "internalType": "uint256",
          "name": "_interestApr",
          "type": "uint256"
        },
        {
          "internalType": "uint256",
          "name": "_paymentPeriodInDays",
          "type": "uint256"
        },
        {
          "internalType": "uint256",
          "name": "_termInDays",
          "type": "uint256"
        },
        {
          "internalType": "uint256",
          "name": "_lateFeeApr",
          "type": "uint256"
        },
        {
          "internalType": "uint256",
          "name": "_principalGracePeriodInDays",
          "type": "uint256"
        },
        {
          "internalType": "uint256",
          "name": "_fundableAt",
          "type": "uint256"
        },
        {
          "internalType": "uint256[]",
          "name": "_allowedUIDTypes",
          "type": "uint256[]"
        }
      ],
      "name": "createPool",
      "outputs": [
        {
          "internalType": "contract ITranchedPool",
          "name": "",
          "type": "address"
        }
      ],
      "stateMutability": "nonpayable",
      "type": "function"
    },
    {
      "inputs": [
        {
          "internalType": "bytes32",
          "name": "role",
          "type": "bytes32"
        }
      ],
      "name": "getRoleAdmin",
      "outputs": [
        {
          "internalType": "bytes32",
          "name": "",
          "type": "bytes32"
        }
      ],
      "stateMutability": "view",
      "type": "function"
    },
    {
      "inputs": [
        {
          "internalType": "bytes32",
          "name": "role",
          "type": "bytes32"
        },
        {
          "internalType": "uint256",
          "name": "index",
          "type": "uint256"
        }
      ],
      "name": "getRoleMember",
      "outputs": [
        {
          "internalType": "address",
          "name": "",
          "type": "address"
        }
      ],
      "stateMutability": "view",
      "type": "function"
    },
    {
      "inputs": [
        {
          "internalType": "bytes32",
          "name": "role",
          "type": "bytes32"
        }
      ],
      "name": "getRoleMemberCount",
      "outputs": [
        {
          "internalType": "uint256",
          "name": "",
          "type": "uint256"
        }
      ],
      "stateMutability": "view",
      "type": "function"
    },
    {
      "inputs": [
        {
          "internalType": "bytes32",
          "name": "role",
          "type": "bytes32"
        },
        {
          "internalType": "address",
          "name": "account",
          "type": "address"
        }
      ],
      "name": "grantRole",
      "outputs": [],
      "stateMutability": "nonpayable",
      "type": "function"
    },
    {
      "inputs": [
        {
          "internalType": "bytes32",
          "name": "role",
          "type": "bytes32"
        },
        {
          "internalType": "address",
          "name": "account",
          "type": "address"
        }
      ],
      "name": "hasRole",
      "outputs": [
        {
          "internalType": "bool",
          "name": "",
          "type": "bool"
        }
      ],
      "stateMutability": "view",
      "type": "function"
    },
    {
      "inputs": [
        {
          "internalType": "address",
          "name": "owner",
          "type": "address"
        },
        {
          "internalType": "contract GoldfinchConfig",
          "name": "_config",
          "type": "address"
        }
      ],
      "name": "initialize",
      "outputs": [],
      "stateMutability": "nonpayable",
      "type": "function"
    },
    {
      "inputs": [],
      "name": "isAdmin",
      "outputs": [
        {
          "internalType": "bool",
          "name": "",
          "type": "bool"
        }
      ],
      "stateMutability": "view",
      "type": "function"
    },
    {
      "inputs": [],
      "name": "isBorrower",
      "outputs": [
        {
          "internalType": "bool",
          "name": "",
          "type": "bool"
        }
      ],
      "stateMutability": "view",
      "type": "function"
    },
    {
      "inputs": [],
      "name": "pause",
      "outputs": [],
      "stateMutability": "nonpayable",
      "type": "function"
    },
    {
      "inputs": [],
      "name": "paused",
      "outputs": [
        {
          "internalType": "bool",
          "name": "",
          "type": "bool"
        }
      ],
      "stateMutability": "view",
      "type": "function"
    },
    {
      "inputs": [
        {
          "internalType": "bytes32",
          "name": "role",
          "type": "bytes32"
        },
        {
          "internalType": "address",
          "name": "account",
          "type": "address"
        }
      ],
      "name": "renounceRole",
      "outputs": [],
      "stateMutability": "nonpayable",
      "type": "function"
    },
    {
      "inputs": [
        {
          "internalType": "bytes32",
          "name": "role",
          "type": "bytes32"
        },
        {
          "internalType": "address",
          "name": "account",
          "type": "address"
        }
      ],
      "name": "revokeRole",
      "outputs": [],
      "stateMutability": "nonpayable",
      "type": "function"
    },
    {
      "inputs": [],
      "name": "unpause",
      "outputs": [],
      "stateMutability": "nonpayable",
      "type": "function"
    }
  ],
  "transactionHash": "0xf35ad809785be7e722fb01b3b101174c08c6721d9bc7f205e8251741785af816",
  "args": [],
  "solcInputHash": "bf6f46dcbe6f600dbdc728698b461228",
  "bytecode": "0x608060405234801561001057600080fd5b50612528806100206000396000f3fe60806040523480156200001157600080fd5b50600436106200016c5760003560e01c806379502c5511620000d5578063b6db75a01162000087578063b6db75a014620002bb578063bbfcb34914620002c5578063ca15c87314620002dc578063d547741f14620002f3578063e58378bb146200030a578063e63ab1e91462000314576200016c565b806379502c5514620002585780638456cb5914620002625780638a0a61d8146200026c5780639010d07c146200028357806391d14854146200029a578063a217fddf14620002b1576200016c565b806336568abe116200012f57806336568abe14620001f35780633f4ba83a146200020a578063485cc9551462000214578063526d81f6146200022b5780635c975abb146200023557806375bd271a146200024e576200016c565b806301b215511462000171578063097616a314620001935780630e7b949e14620001ac578063248a9ca314620001c55780632f2ff15d14620001dc575b600080fd5b6200017b6200031e565b6040516200018a9190620015ac565b60405180910390f35b620001aa620001a4366004620013a1565b62000382565b005b620001b6620004da565b6040516200018a919062001678565b620001b6620001d6366004620014fc565b620004ed565b620001aa620001ed36600462001515565b62000502565b620001aa6200020436600462001515565b6200054e565b620001aa62000597565b620001aa62000225366004620013e6565b620005e0565b620001aa620006ff565b6200023f62000795565b6040516200018a91906200166d565b6200023f6200079e565b6200017b6200080f565b620001aa6200081f565b6200017b6200027d366004620013a1565b62000866565b6200017b620002943660046200153c565b62000975565b6200023f620002ab36600462001515565b62000998565b620001b6620009b2565b6200023f620009b7565b6200017b620002d636600462001423565b620009d7565b620001b6620002ed366004620014fc565b62000bce565b620001aa6200030436600462001515565b62000be7565b620001b662000c27565b620001b662000c3a565b6101c3546000908190620003469062000340906001600160a01b031662000c4d565b62000cd3565b6040519091506001600160a01b038216907f39eba32c9243ce6f32d12f56bc8488539c36b39ab7b5afe6d9318b9c73da41f590600090a2905090565b600054610100900460ff16806200039e57506200039e62000d25565b80620003ad575060005460ff16155b620003d55760405162461bcd60e51b8152600401620003cc906200188b565b60405180910390fd5b600054610100900460ff1615801562000401576000805460ff1961ff0019909116610100171660011790555b6001600160a01b0382166200042a5760405162461bcd60e51b8152600401620003cc9062001856565b6200043462000d2b565b6200043e62000db5565b6200044862000e4a565b62000463600080516020620024b38339815191528362000542565b6200047e600080516020620024d38339815191528362000542565b620004a8600080516020620024d3833981519152600080516020620024b383398151915262000ee2565b620004c3600080516020620024b38339815191528062000ee2565b8015620004d6576000805461ff00191690555b5050565b6000805160206200249383398151915281565b60009081526065602052604090206002015490565b6000828152606560205260409020600201546200052390620002ab62000ef7565b620005425760405162461bcd60e51b8152600401620003cc9062001715565b620004d6828262000efb565b6200055862000ef7565b6001600160a01b0316816001600160a01b0316146200058b5760405162461bcd60e51b8152600401620003cc906200194c565b620004d6828262000f69565b620005b5600080516020620024d3833981519152620002ab62000ef7565b620005d45760405162461bcd60e51b8152600401620003cc9062001930565b620005de62000fd7565b565b600054610100900460ff1680620005fc5750620005fc62000d25565b806200060b575060005460ff16155b6200062a5760405162461bcd60e51b8152600401620003cc906200188b565b600054610100900460ff1615801562000656576000805460ff1961ff0019909116610100171660011790555b6001600160a01b038316158015906200067757506001600160a01b03821615155b620006965760405162461bcd60e51b8152600401620003cc9062001792565b620006a18362000382565b6101c380546001600160a01b0319166001600160a01b038416179055620006e760008051602062002493833981519152600080516020620024b383398151915262000ee2565b8015620006fa576000805461ff00191690555b505050565b600054610100900460ff16806200071b57506200071b62000d25565b806200072a575060005460ff16155b620007495760405162461bcd60e51b8152600401620003cc906200188b565b600054610100900460ff1615801562000775576000805460ff1961ff0019909116610100171660011790555b6200077f62000db5565b801562000792576000805461ff00191690555b50565b60975460ff1690565b6000620007ec6040518060400160405280600e81526020016d6973426f72726f7765723a20257360901b815250620007e6600080516020620024938339815191523362000998565b6200104a565b6200080a60008051602062002493833981519152620002ab62000ef7565b905090565b6101c3546001600160a01b031681565b6200083d600080516020620024d3833981519152620002ab62000ef7565b6200085c5760405162461bcd60e51b8152600401620003cc9062001930565b620005de62001093565b6101c3546000908190620008889062000340906001600160a01b0316620010f1565b6101c35460405163485cc95560e01b815291925082916001600160a01b038084169263485cc95592620008c29289921690600401620015c0565b600060405180830381600087803b158015620008dd57600080fd5b505af1158015620008f2573d6000803e3d6000fd5b505050506200092e60405180604001604052806014815260200173426f72726f77657220637265617465643a20257360601b815250836200110a565b836001600160a01b0316816001600160a01b03167f884b374b5b12a7314728c27eb7563a516e71377a34acbff07a9a9d751d32b4e960405160405180910390a39392505050565b60008281526065602052604081206200098f908362001153565b90505b92915050565b60008281526065602052604081206200098f908362001161565b600081565b60006200080a600080516020620024b3833981519152620002ab62000ef7565b6000620009e3620009b7565b80620009f45750620009f46200079e565b62000a135760405162461bcd60e51b8152600401620003cc90620018d9565b6101c354600090819062000a30906001600160a01b031662001178565b90506000818f60405162000a449062001393565b62000a51929190620015c0565b604051809103906000f08015801562000a6e573d6000803e3d6000fd5b5090508092505050806001600160a01b031663a8deac0e6101c360009054906101000a90046001600160a01b03168f8f8f8f8f8f8f8f8f8f8f6040518d63ffffffff1660e01b815260040162000ad09c9b9a99989796959493929190620015da565b600060405180830381600087803b15801562000aeb57600080fd5b505af115801562000b00573d6000803e3d6000fd5b505050508c6001600160a01b0316816001600160a01b03167f4f2ce4e40f623ca765fc0167a25cb7842ceaafb8d82d3dec26ca0d0e0d2d489660405160405180910390a36101c35462000b5c906001600160a01b031662001191565b6001600160a01b03166357e340ce826040518263ffffffff1660e01b815260040162000b899190620015ac565b600060405180830381600087803b15801562000ba457600080fd5b505af115801562000bb9573d6000803e3d6000fd5b50929f9e505050505050505050505050505050565b600081815260656020526040812062000992906200119e565b60008281526065602052604090206002015462000c0890620002ab62000ef7565b6200058b5760405162461bcd60e51b8152600401620003cc90620017dc565b600080516020620024b383398151915281565b600080516020620024d383398151915281565b60006001600160a01b03821663b93f9b0a60015b6040518263ffffffff1660e01b815260040162000c7f919062001678565b60206040518083038186803b15801562000c9857600080fd5b505afa15801562000cad573d6000803e3d6000fd5b505050506040513d601f19601f82011682018060405250810190620009929190620013c7565b6000808260601b9050604051733d602d80600a3d3981f3363d3d373d3d3d363d7360601b81528160148201526e5af43d82803e903d91602b57fd5bf360881b60288201526037816000f0949350505050565b303b1590565b600054610100900460ff168062000d47575062000d4762000d25565b8062000d56575060005460ff16155b62000d755760405162461bcd60e51b8152600401620003cc906200188b565b600054610100900460ff161580156200077f576000805460ff1961ff001990911661010017166001179055801562000792576000805461ff001916905550565b600054610100900460ff168062000dd1575062000dd162000d25565b8062000de0575060005460ff16155b62000dff5760405162461bcd60e51b8152600401620003cc906200188b565b600054610100900460ff1615801562000e2b576000805460ff1961ff0019909116610100171660011790555b6097805460ff19169055801562000792576000805461ff001916905550565b600054610100900460ff168062000e66575062000e6662000d25565b8062000e75575060005460ff16155b62000e945760405162461bcd60e51b8152600401620003cc906200188b565b600054610100900460ff1615801562000ec0576000805460ff1961ff0019909116610100171660011790555b60c9805460ff19166001179055801562000792576000805461ff001916905550565b60009182526065602052604090912060020155565b3390565b600082815260656020526040902062000f159082620011ab565b15620004d65762000f2562000ef7565b6001600160a01b0316816001600160a01b0316837f2f8788117e7eff1d82e926ec794901d17c78024a50270940304540a733656f0d60405160405180910390a45050565b600082815260656020526040902062000f839082620011c2565b15620004d65762000f9362000ef7565b6001600160a01b0316816001600160a01b0316837ff6391f5c32d9c69d2a47ea670b442974b53935d1edc7fd64eb21e047a839171b60405160405180910390a45050565b60975460ff1662000ffc5760405162461bcd60e51b8152600401620003cc9062001764565b6097805460ff191690557f5db9ee0a495bf2e6ff9c91a7834c1ba4fdd244a5e8aa4e537bd38aeae4b073aa6200103162000ef7565b604051620010409190620015ac565b60405180910390a1565b620004d6828260405160240162001063929190620016ad565b60408051601f198184030181529190526020810180516001600160e01b031663c3b5563560e01b179052620011d9565b60975460ff1615620010b95760405162461bcd60e51b8152600401620003cc906200182c565b6097805460ff191660011790557f62e78cea01bee320cd4e420270b5ea74000d11b0c9f74754ebdbfc544b05a2586200103162000ef7565b60006001600160a01b03821663b93f9b0a601162000c61565b620004d682826040516024016200112392919062001681565b60408051601f198184030181529190526020810180516001600160e01b031663319af33360e01b179052620011d9565b60006200098f8383620011fa565b60006200098f836001600160a01b03841662001243565b60006001600160a01b03821663b93f9b0a601762000c61565b600062000992826200125b565b6000620009928262001274565b60006200098f836001600160a01b03841662001278565b60006200098f836001600160a01b038416620012c7565b80516a636f6e736f6c652e6c6f67602083016000808483855afa5050505050565b81546000908210620012205760405162461bcd60e51b8152600401620003cc90620016d3565b8260000182815481106200123057fe5b9060005260206000200154905092915050565b60009081526001919091016020526040902054151590565b60006001600160a01b03821663b93f9b0a600c62000c61565b5490565b600062001286838362001243565b620012be5750815460018181018455600084815260208082209093018490558454848252828601909352604090209190915562000992565b50600062000992565b60008181526001830160205260408120548015620013885783546000198083019190810190600090879083908110620012fc57fe5b90600052602060002001549050808760000184815481106200131a57fe5b6000918252602080832090910192909255828152600189810190925260409020908401905586548790806200134b57fe5b6001900381819060005260206000200160009055905586600101600087815260200190815260200160002060009055600194505050505062000992565b600091505062000992565b610ae180620019b283390190565b600060208284031215620013b3578081fd5b8135620013c0816200199b565b9392505050565b600060208284031215620013d9578081fd5b8151620013c0816200199b565b60008060408385031215620013f9578081fd5b823562001406816200199b565b9150602083013562001418816200199b565b809150509250929050565b60008060008060008060008060008060006101408c8e03121562001445578687fd5b8b3562001452816200199b565b9a5060208c0135995060408c0135985060608c0135975060808c0135965060a08c0135955060c08c0135945060e08c013593506101008c013592506101208c013567ffffffffffffffff80821115620014a9578384fd5b818e0191508e601f830112620014bd578384fd5b813581811115620014cc578485fd5b8f60208083028501011115620014e0578485fd5b6020830194508093505050509295989b509295989b9093969950565b6000602082840312156200150e578081fd5b5035919050565b6000806040838503121562001528578182fd5b82359150602083013562001418816200199b565b600080604083850312156200154f578182fd5b50508035926020909101359150565b60008151808452815b81811015620015855760208185018101518683018201520162001567565b81811115620015975782602083870101525b50601f01601f19169290920160200192915050565b6001600160a01b0391909116815260200190565b6001600160a01b0392831681529116602082015260400190565b600060018060a01b03808f168352808e166020840152508b60408301528a60608301528960808301528860a08301528760c08301528660e083015285610100830152846101208301526101606101408301528261016083015261018060018060fb1b0384111562001649578182fd5b60208402808683860137929092019091019081529c9b505050505050505050505050565b901515815260200190565b90815260200190565b6000604082526200169660408301856200155e565b905060018060a01b03831660208301529392505050565b600060408252620016c260408301856200155e565b905082151560208301529392505050565b60208082526022908201527f456e756d657261626c655365743a20696e646578206f7574206f6620626f756e604082015261647360f01b606082015260800190565b6020808252602f908201527f416363657373436f6e74726f6c3a2073656e646572206d75737420626520616e60408201526e0818591b5a5b881d1bc819dc985b9d608a1b606082015260800190565b60208082526014908201527314185d5cd8589b194e881b9bdd081c185d5cd95960621b604082015260600190565b6020808252602a908201527f4f776e657220616e6420636f6e666967206164647265737365732063616e6e6f6040820152697420626520656d70747960b01b606082015260800190565b60208082526030908201527f416363657373436f6e74726f6c3a2073656e646572206d75737420626520616e60408201526f2061646d696e20746f207265766f6b6560801b606082015260800190565b60208082526010908201526f14185d5cd8589b194e881c185d5cd95960821b604082015260600190565b6020808252818101527f4f776e65722063616e6e6f7420626520746865207a65726f2061646472657373604082015260600190565b6020808252602e908201527f436f6e747261637420696e7374616e63652068617320616c726561647920626560408201526d195b881a5b9a5d1a585b1a5e995960921b606082015260800190565b60208082526037908201527f4d75737420686176652061646d696e206f7220626f72726f77657220726f6c65604082015276103a37903832b93337b936903a3434b99030b1ba34b7b760491b606082015260800190565b6020808252600290820152614e4160f01b604082015260600190565b6020808252602f908201527f416363657373436f6e74726f6c3a2063616e206f6e6c792072656e6f756e636560408201526e103937b632b9903337b91039b2b63360891b606082015260800190565b6001600160a01b03811681146200079257600080fdfe60806040523480156200001157600080fd5b5060405162000ae138038062000ae183398101604081905262000034916200032c565b6001600160a01b038116620000665760405162461bcd60e51b81526004016200005d90620003ec565b60405180910390fd5b620000718162000112565b6200007c8262000176565b6200010a826001600160a01b031663d8bd5c296040518163ffffffff1660e01b815260040160206040518083038186803b158015620000ba57600080fd5b505afa158015620000cf573d6000803e3d6000fd5b505050506040513d601f19601f82011682018060405250810190620000f5919062000306565b604080516020810190915260008152620001ce565b505062000428565b60006200011e62000212565b90508160008051602062000ac183398151915255816001600160a01b0316816001600160a01b03167f8be0079c531659141344cd1fd0a4f28419497f9722a3daafe3b4186f6b6457e060405160405180910390a35050565b6200018c816200022660201b6200018f1760201c565b620001ab5760405162461bcd60e51b81526004016200005d90620003a6565b7e7037545499569801a5c0bd8dbf5fccb13988c7610367d129f45ee69b1624f855565b620001da82826200022c565b6040516001600160a01b038316907fbc7cd75a20ee27fd9adebab32041f755214dbc6bffa90cc0225b39da2e5c2d3b90600090a25050565b60008051602062000ac18339815191525490565b3b151590565b62000242826200022660201b6200018f1760201c565b620002615760405162461bcd60e51b81526004016200005d90620003c8565b7f360894a13ba1a3210667c828492db98dca3e2076cc3735a920a3ca505d382bbc82905580511562000302576000826001600160a01b031682604051620002a991906200036a565b600060405180830381855af49150503d8060008114620002e6576040519150601f19603f3d011682016040523d82523d6000602084013e620002eb565b606091505b505090508062000300573d806000803e806000fd5b505b5050565b60006020828403121562000318578081fd5b815162000325816200040f565b9392505050565b600080604083850312156200033f578081fd5b82516200034c816200040f565b60208401519092506200035f816200040f565b809150509250929050565b60008251815b818110156200038c576020818601810151858301520162000370565b818111156200039b5782828501525b509190910192915050565b602080825260089082015267626164207265706f60c01b604082015260600190565b6020808252600a90820152696e6f207570677261646560b01b604082015260600190565b6020808252600990820152683130b21037bbb732b960b91b604082015260600190565b6001600160a01b03811681146200042557600080fd5b50565b61068980620004386000396000f3fe6080604052600436106100435760003560e01c8063466f3dc31461005a5780637f44897b1461006f5780638da5cb5b1461009a578063f2fde38b146100af57610052565b36610052576100506100cf565b005b6100506100cf565b34801561006657600080fd5b506100506100e9565b34801561007b57600080fd5b50610084610132565b60405161009191906105ba565b60405180910390f35b3480156100a657600080fd5b50610084610141565b3480156100bb57600080fd5b506100506100ca3660046104c4565b61014b565b6100d76100e7565b6100e76100e2610195565b6101ba565b565b6100f16101e3565b6001600160a01b0316336001600160a01b03161461012a5760405162461bcd60e51b8152600401610121906105f2565b60405180910390fd5b6100e7610208565b600061013c610329565b905090565b600061013c6101e3565b6101536101e3565b6001600160a01b0316336001600160a01b0316146101835760405162461bcd60e51b8152600401610121906105f2565b61018c8161034d565b50565b3b151590565b7f360894a13ba1a3210667c828492db98dca3e2076cc3735a920a3ca505d382bbc5490565b3660008037600080366000845af43d6000803e8080156101d9573d6000f35b3d6000fd5b505050565b7fb53127684a568b3173ae13b9f8a6016e243e63b6e8ee1178d6a717850b5d61035490565b6000610212610329565b90506000816001600160a01b0316636a3def6c61022d610195565b6040518263ffffffff1660e01b815260040161024991906105ba565b60206040518083038186803b15801561026157600080fd5b505afa158015610275573d6000803e3d6000fd5b505050506040513d601f19601f8201168201806040525081019061029991906104e7565b90506060826001600160a01b0316638e12f761836040518263ffffffff1660e01b81526004016102c991906105ba565b60006040518083038186803b1580156102e157600080fd5b505afa1580156102f5573d6000803e3d6000fd5b505050506040513d6000823e601f3d908101601f1916820160405261031d9190810190610503565b90506101de82826103c0565b7e7037545499569801a5c0bd8dbf5fccb13988c7610367d129f45ee69b1624f85490565b60006103576101e3565b9050817fb53127684a568b3173ae13b9f8a6016e243e63b6e8ee1178d6a717850b5d610355816001600160a01b0316816001600160a01b03167f8be0079c531659141344cd1fd0a4f28419497f9722a3daafe3b4186f6b6457e060405160405180910390a35050565b6103ca8282610402565b6040516001600160a01b038316907fbc7cd75a20ee27fd9adebab32041f755214dbc6bffa90cc0225b39da2e5c2d3b90600090a25050565b61040b8261018f565b6104275760405162461bcd60e51b8152600401610121906105ce565b7f360894a13ba1a3210667c828492db98dca3e2076cc3735a920a3ca505d382bbc8290558051156104c0576000826001600160a01b03168260405161046c919061059e565b600060405180830381855af49150503d80600081146104a7576040519150601f19603f3d011682016040523d82523d6000602084013e6104ac565b606091505b50509050806101de573d806000803e806000fd5b5050565b6000602082840312156104d5578081fd5b81356104e08161063e565b9392505050565b6000602082840312156104f8578081fd5b81516104e08161063e565b600060208284031215610514578081fd5b815167ffffffffffffffff8082111561052b578283fd5b818401915084601f83011261053e578283fd5b81518181111561054c578384fd5b604051601f8201601f19168101602001838111828210171561056c578586fd5b604052818152838201602001871015610583578485fd5b61059482602083016020870161060e565b9695505050505050565b600082516105b081846020870161060e565b9190910192915050565b6001600160a01b0391909116815260200190565b6020808252600a90820152696e6f207570677261646560b01b604082015260600190565b6020808252600290820152614e4160f01b604082015260600190565b60005b83811015610629578181015183820152602001610611565b83811115610638576000848401525b50505050565b6001600160a01b038116811461018c57600080fdfea2646970667358221220907f85d4395f7b85cfcb5df291f4c852f3a00ef17a86a5a62f9c0d18ee2e8a7164736f6c634300060c0033b53127684a568b3173ae13b9f8a6016e243e63b6e8ee1178d6a717850b5d61032344277e405079ec07749d374ba0b5862a4e45a6a05ac889dbb4a991c6f9354db19546dff01e856fb3f010c267a7b1c60363cf8a4664e21cc89c26224620214e65d7a28e3265b37a6474929f336521b332c1681b933f6cb9f3376673440d862aa2646970667358221220e5e6c52cdcef5ce44873ddf7e14dbd8ac7b074f1b8a7b606c7ac55fc0345161c64736f6c634300060c0033",
  "libraries": {
    "Accountant": "0x7Edc47351b9BE014F627439c48703cFe380653D3"
  },
  "devdoc": {
    "author": "Goldfinch",
    "kind": "dev",
    "methods": {
      "createBorrower(address)": {
        "params": {
          "owner": "The address that will own the new Borrower instance"
        }
      },
      "createCreditLine()": {
        "details": "There is no value to calling this function directly. It is only meant to be called  by a TranchedPool during it's creation process."
      },
      "createPool(address,uint256,uint256,uint256,uint256,uint256,uint256,uint256,uint256,uint256[])": {
        "params": {
          "_borrower": "The borrower for whom the CreditLine will be created",
          "_interestApr": "The interest amount, on an annualized basis (APR, so non-compounding), expressed as an integer.  We assume 18 digits of precision. For example, to submit 15.34%, you would pass up 153400000000000000,  and 5.34% would be 53400000000000000",
          "_juniorFeePercent": "The percent of senior interest allocated to junior investors, expressed as  integer percents. eg. 20% is simply 20",
          "_lateFeeApr": "The additional interest you will pay if you are late. For example, if this is 3%, and your  normal rate is 15%, then you will pay 18% while you are late. Also expressed as an 18 decimal precision integer Requirements:  You are the admin",
          "_limit": "The maximum amount a borrower can drawdown from this CreditLine",
          "_paymentPeriodInDays": "How many days in each payment period.  ie. the frequency with which they need to make payments.",
          "_termInDays": "Number of days in the credit term. It is used to set the `termEndTime` upon first drawdown.  ie. The credit line should be fully paid off {_termIndays} days after the first drawdown."
        }
      },
      "getRoleAdmin(bytes32)": {
        "details": "Returns the admin role that controls `role`. See {grantRole} and {revokeRole}. To change a role's admin, use {_setRoleAdmin}."
      },
      "getRoleMember(bytes32,uint256)": {
        "details": "Returns one of the accounts that have `role`. `index` must be a value between 0 and {getRoleMemberCount}, non-inclusive. Role bearers are not sorted in any particular way, and their ordering may change at any point. WARNING: When using {getRoleMember} and {getRoleMemberCount}, make sure you perform all queries on the same block. See the following https://forum.openzeppelin.com/t/iterating-over-elements-on-enumerableset-in-openzeppelin-contracts/2296[forum post] for more information."
      },
      "getRoleMemberCount(bytes32)": {
        "details": "Returns the number of accounts that have `role`. Can be used together with {getRoleMember} to enumerate all bearers of a role."
      },
      "grantRole(bytes32,address)": {
        "details": "Grants `role` to `account`. If `account` had not been already granted `role`, emits a {RoleGranted} event. Requirements: - the caller must have ``role``'s admin role."
      },
      "hasRole(bytes32,address)": {
        "details": "Returns `true` if `account` has been granted `role`."
      },
      "pause()": {
        "details": "Pauses all functions guarded by Pause See {Pausable-_pause}. Requirements: - the caller must have the PAUSER_ROLE."
      },
      "paused()": {
        "details": "Returns true if the contract is paused, and false otherwise."
      },
      "renounceRole(bytes32,address)": {
        "details": "Revokes `role` from the calling account. Roles are often managed via {grantRole} and {revokeRole}: this function's purpose is to provide a mechanism for accounts to lose their privileges if they are compromised (such as when a trusted device is misplaced). If the calling account had been granted `role`, emits a {RoleRevoked} event. Requirements: - the caller must be `account`."
      },
      "revokeRole(bytes32,address)": {
        "details": "Revokes `role` from `account`. If `account` had been granted `role`, emits a {RoleRevoked} event. Requirements: - the caller must have ``role``'s admin role."
      },
      "unpause()": {
        "details": "Unpauses the contract See {Pausable-_unpause}. Requirements: - the caller must have the Pauser role"
      }
    },
    "title": "GoldfinchFactory",
    "version": 1
  },
  "userdoc": {
    "kind": "user",
    "methods": {
      "BORROWER_ROLE()": {
        "notice": "Role to allow for pool creation"
      },
      "createBorrower(address)": {
        "notice": "Allows anyone to create a Borrower contract instance"
      },
      "createCreditLine()": {
        "notice": "Allows anyone to create a CreditLine contract instance"
      },
      "createPool(address,uint256,uint256,uint256,uint256,uint256,uint256,uint256,uint256,uint256[])": {
        "notice": "Allows anyone to create a new TranchedPool for a single borrower"
      }
    },
    "notice": "Contract that allows us to create other contracts, such as CreditLines and BorrowerContracts  Note GoldfinchFactory is a legacy name. More properly this can be considered simply the GoldfinchFactory",
    "version": 1
  },
  "storageLayout": {
    "storage": [
      {
        "astId": 50,
        "contract": "contracts/protocol/core/GoldfinchFactory.sol:GoldfinchFactory",
        "label": "initialized",
        "offset": 0,
        "slot": "0",
        "type": "t_bool"
      },
      {
        "astId": 53,
        "contract": "contracts/protocol/core/GoldfinchFactory.sol:GoldfinchFactory",
        "label": "initializing",
        "offset": 1,
        "slot": "0",
        "type": "t_bool"
      },
      {
        "astId": 118,
        "contract": "contracts/protocol/core/GoldfinchFactory.sol:GoldfinchFactory",
        "label": "______gap",
        "offset": 0,
        "slot": "1",
        "type": "t_array(t_uint256)50_storage"
      },
      {
        "astId": 43,
        "contract": "contracts/protocol/core/GoldfinchFactory.sol:GoldfinchFactory",
        "label": "__gap",
        "offset": 0,
        "slot": "51",
        "type": "t_array(t_uint256)50_storage"
      },
      {
        "astId": 163,
        "contract": "contracts/protocol/core/GoldfinchFactory.sol:GoldfinchFactory",
        "label": "_roles",
        "offset": 0,
        "slot": "101",
        "type": "t_mapping(t_bytes32,t_struct(RoleData)159_storage)"
      },
      {
        "astId": 408,
        "contract": "contracts/protocol/core/GoldfinchFactory.sol:GoldfinchFactory",
        "label": "__gap",
        "offset": 0,
        "slot": "102",
        "type": "t_array(t_uint256)49_storage"
      },
      {
        "astId": 3207,
        "contract": "contracts/protocol/core/GoldfinchFactory.sol:GoldfinchFactory",
        "label": "_paused",
        "offset": 0,
        "slot": "151",
        "type": "t_bool"
      },
      {
        "astId": 3296,
        "contract": "contracts/protocol/core/GoldfinchFactory.sol:GoldfinchFactory",
        "label": "__gap",
        "offset": 0,
        "slot": "152",
        "type": "t_array(t_uint256)49_storage"
      },
      {
        "astId": 3305,
        "contract": "contracts/protocol/core/GoldfinchFactory.sol:GoldfinchFactory",
        "label": "_notEntered",
        "offset": 0,
        "slot": "201",
        "type": "t_bool"
      },
      {
        "astId": 3346,
        "contract": "contracts/protocol/core/GoldfinchFactory.sol:GoldfinchFactory",
        "label": "__gap",
        "offset": 0,
        "slot": "202",
        "type": "t_array(t_uint256)49_storage"
      },
      {
        "astId": 12077,
        "contract": "contracts/protocol/core/GoldfinchFactory.sol:GoldfinchFactory",
        "label": "__gap1",
        "offset": 0,
        "slot": "251",
        "type": "t_array(t_uint256)50_storage"
      },
      {
        "astId": 12081,
        "contract": "contracts/protocol/core/GoldfinchFactory.sol:GoldfinchFactory",
        "label": "__gap2",
        "offset": 0,
        "slot": "301",
        "type": "t_array(t_uint256)50_storage"
      },
      {
        "astId": 12085,
        "contract": "contracts/protocol/core/GoldfinchFactory.sol:GoldfinchFactory",
        "label": "__gap3",
        "offset": 0,
        "slot": "351",
        "type": "t_array(t_uint256)50_storage"
      },
      {
        "astId": 12089,
        "contract": "contracts/protocol/core/GoldfinchFactory.sol:GoldfinchFactory",
        "label": "__gap4",
        "offset": 0,
        "slot": "401",
        "type": "t_array(t_uint256)50_storage"
      },
      {
        "astId": 15954,
        "contract": "contracts/protocol/core/GoldfinchFactory.sol:GoldfinchFactory",
        "label": "config",
        "offset": 0,
        "slot": "451",
        "type": "t_contract(GoldfinchConfig)15934"
      }
    ],
    "types": {
      "t_array(t_bytes32)dyn_storage": {
        "base": "t_bytes32",
        "encoding": "dynamic_array",
        "label": "bytes32[]",
        "numberOfBytes": "32"
      },
      "t_array(t_uint256)49_storage": {
        "base": "t_uint256",
        "encoding": "inplace",
        "label": "uint256[49]",
        "numberOfBytes": "1568"
      },
      "t_array(t_uint256)50_storage": {
        "base": "t_uint256",
        "encoding": "inplace",
        "label": "uint256[50]",
        "numberOfBytes": "1600"
      },
      "t_bool": {
        "encoding": "inplace",
        "label": "bool",
        "numberOfBytes": "1"
      },
      "t_bytes32": {
        "encoding": "inplace",
        "label": "bytes32",
        "numberOfBytes": "32"
      },
      "t_contract(GoldfinchConfig)15934": {
        "encoding": "inplace",
        "label": "contract GoldfinchConfig",
        "numberOfBytes": "20"
      },
      "t_mapping(t_bytes32,t_struct(RoleData)159_storage)": {
        "encoding": "mapping",
        "key": "t_bytes32",
        "label": "mapping(bytes32 => struct AccessControlUpgradeSafe.RoleData)",
        "numberOfBytes": "32",
        "value": "t_struct(RoleData)159_storage"
      },
      "t_mapping(t_bytes32,t_uint256)": {
        "encoding": "mapping",
        "key": "t_bytes32",
        "label": "mapping(bytes32 => uint256)",
        "numberOfBytes": "32",
        "value": "t_uint256"
      },
      "t_struct(AddressSet)2982_storage": {
        "encoding": "inplace",
        "label": "struct EnumerableSet.AddressSet",
        "members": [
          {
            "astId": 2981,
            "contract": "contracts/protocol/core/GoldfinchFactory.sol:GoldfinchFactory",
            "label": "_inner",
            "offset": 0,
            "slot": "0",
            "type": "t_struct(Set)2802_storage"
          }
        ],
        "numberOfBytes": "64"
      },
      "t_struct(RoleData)159_storage": {
        "encoding": "inplace",
        "label": "struct AccessControlUpgradeSafe.RoleData",
        "members": [
          {
            "astId": 156,
            "contract": "contracts/protocol/core/GoldfinchFactory.sol:GoldfinchFactory",
            "label": "members",
            "offset": 0,
            "slot": "0",
            "type": "t_struct(AddressSet)2982_storage"
          },
          {
            "astId": 158,
            "contract": "contracts/protocol/core/GoldfinchFactory.sol:GoldfinchFactory",
            "label": "adminRole",
            "offset": 0,
            "slot": "2",
            "type": "t_bytes32"
          }
        ],
        "numberOfBytes": "96"
      },
      "t_struct(Set)2802_storage": {
        "encoding": "inplace",
        "label": "struct EnumerableSet.Set",
        "members": [
          {
            "astId": 2797,
            "contract": "contracts/protocol/core/GoldfinchFactory.sol:GoldfinchFactory",
            "label": "_values",
            "offset": 0,
            "slot": "0",
            "type": "t_array(t_bytes32)dyn_storage"
          },
          {
            "astId": 2801,
            "contract": "contracts/protocol/core/GoldfinchFactory.sol:GoldfinchFactory",
            "label": "_indexes",
            "offset": 0,
            "slot": "1",
            "type": "t_mapping(t_bytes32,t_uint256)"
          }
        ],
        "numberOfBytes": "64"
      },
      "t_uint256": {
        "encoding": "inplace",
        "label": "uint256",
        "numberOfBytes": "32"
      }
    }
  }
}