{
  "address": "0x034F9C34a9bBfE33bb8fDd5aFb62CEC999404813",
  "abi": [
    {
      "anonymous": false,
      "inputs": [
        {
          "indexed": true,
          "internalType": "contract IV2CreditLine",
          "name": "oldCreditLine",
          "type": "address"
        },
        {
          "indexed": true,
          "internalType": "contract IV2CreditLine",
          "name": "newCreditLine",
          "type": "address"
        }
      ],
      "name": "CreditLineMigrated",
      "type": "event"
    },
    {
      "anonymous": false,
      "inputs": [
        {
          "indexed": true,
          "internalType": "address",
          "name": "owner",
          "type": "address"
        },
        {
          "indexed": true,
          "internalType": "uint256",
          "name": "tranche",
          "type": "uint256"
        },
        {
          "indexed": true,
          "internalType": "uint256",
          "name": "tokenId",
          "type": "uint256"
        },
        {
          "indexed": false,
          "internalType": "uint256",
          "name": "amount",
          "type": "uint256"
        }
      ],
      "name": "DepositMade",
      "type": "event"
    },
    {
      "anonymous": false,
      "inputs": [
        {
          "indexed": true,
          "internalType": "address",
          "name": "borrower",
          "type": "address"
        },
        {
          "indexed": false,
          "internalType": "uint256",
          "name": "amount",
          "type": "uint256"
        }
      ],
      "name": "DrawdownMade",
      "type": "event"
    },
    {
      "anonymous": false,
      "inputs": [
        {
          "indexed": true,
          "internalType": "address",
          "name": "pool",
          "type": "address"
        }
      ],
      "name": "DrawdownsPaused",
      "type": "event"
    },
    {
      "anonymous": false,
      "inputs": [
        {
          "indexed": true,
          "internalType": "address",
          "name": "pool",
          "type": "address"
        }
      ],
      "name": "DrawdownsUnpaused",
      "type": "event"
    },
    {
      "anonymous": false,
      "inputs": [
        {
          "indexed": true,
          "internalType": "address",
          "name": "pool",
          "type": "address"
        }
      ],
      "name": "EmergencyShutdown",
      "type": "event"
    },
    {
      "anonymous": false,
      "inputs": [
        {
          "indexed": false,
          "internalType": "address",
          "name": "account",
          "type": "address"
        }
      ],
      "name": "Paused",
      "type": "event"
    },
    {
      "anonymous": false,
      "inputs": [
        {
          "indexed": true,
          "internalType": "address",
          "name": "payer",
          "type": "address"
        },
        {
          "indexed": true,
          "internalType": "address",
          "name": "pool",
          "type": "address"
        },
        {
          "indexed": false,
          "internalType": "uint256",
          "name": "interestAmount",
          "type": "uint256"
        },
        {
          "indexed": false,
          "internalType": "uint256",
          "name": "principalAmount",
          "type": "uint256"
        },
        {
          "indexed": false,
          "internalType": "uint256",
          "name": "remainingAmount",
          "type": "uint256"
        },
        {
          "indexed": false,
          "internalType": "uint256",
          "name": "reserveAmount",
          "type": "uint256"
        }
      ],
      "name": "PaymentApplied",
      "type": "event"
    },
    {
      "anonymous": false,
      "inputs": [
        {
          "indexed": true,
          "internalType": "address",
          "name": "from",
          "type": "address"
        },
        {
          "indexed": false,
          "internalType": "uint256",
          "name": "amount",
          "type": "uint256"
        }
      ],
      "name": "ReserveFundsCollected",
      "type": "event"
    },
    {
      "anonymous": false,
      "inputs": [
        {
          "indexed": true,
          "internalType": "bytes32",
          "name": "role",
          "type": "bytes32"
        },
        {
          "indexed": true,
          "internalType": "address",
          "name": "account",
          "type": "address"
        },
        {
          "indexed": true,
          "internalType": "address",
          "name": "sender",
          "type": "address"
        }
      ],
      "name": "RoleGranted",
      "type": "event"
    },
    {
      "anonymous": false,
      "inputs": [
        {
          "indexed": true,
          "internalType": "bytes32",
          "name": "role",
          "type": "bytes32"
        },
        {
          "indexed": true,
          "internalType": "address",
          "name": "account",
          "type": "address"
        },
        {
          "indexed": true,
          "internalType": "address",
          "name": "sender",
          "type": "address"
        }
      ],
      "name": "RoleRevoked",
      "type": "event"
    },
    {
      "anonymous": false,
      "inputs": [
        {
          "indexed": true,
          "internalType": "address",
          "name": "pool",
          "type": "address"
        },
        {
          "indexed": true,
          "internalType": "uint256",
          "name": "tranche",
          "type": "uint256"
        },
        {
          "indexed": false,
          "internalType": "uint256",
          "name": "principalSharePrice",
          "type": "uint256"
        },
        {
          "indexed": false,
          "internalType": "int256",
          "name": "principalDelta",
          "type": "int256"
        },
        {
          "indexed": false,
          "internalType": "uint256",
          "name": "interestSharePrice",
          "type": "uint256"
        },
        {
          "indexed": false,
          "internalType": "int256",
          "name": "interestDelta",
          "type": "int256"
        }
      ],
      "name": "SharePriceUpdated",
      "type": "event"
    },
    {
      "anonymous": false,
      "inputs": [
        {
          "indexed": true,
          "internalType": "address",
          "name": "pool",
          "type": "address"
        },
        {
          "indexed": false,
          "internalType": "uint256",
          "name": "sliceId",
          "type": "uint256"
        }
      ],
      "name": "SliceCreated",
      "type": "event"
    },
    {
      "anonymous": false,
      "inputs": [
        {
          "indexed": true,
          "internalType": "address",
          "name": "pool",
          "type": "address"
        },
        {
          "indexed": false,
          "internalType": "uint256",
          "name": "trancheId",
          "type": "uint256"
        },
        {
          "indexed": false,
          "internalType": "uint256",
          "name": "lockedUntil",
          "type": "uint256"
        }
      ],
      "name": "TrancheLocked",
      "type": "event"
    },
    {
      "anonymous": false,
      "inputs": [
        {
          "indexed": true,
          "internalType": "address",
          "name": "pool",
          "type": "address"
        }
      ],
      "name": "TranchedPoolAssessed",
      "type": "event"
    },
    {
      "anonymous": false,
      "inputs": [
        {
          "indexed": false,
          "internalType": "address",
          "name": "account",
          "type": "address"
        }
      ],
      "name": "Unpaused",
      "type": "event"
    },
    {
      "anonymous": false,
      "inputs": [
        {
          "indexed": true,
          "internalType": "address",
          "name": "owner",
          "type": "address"
        },
        {
          "indexed": true,
          "internalType": "uint256",
          "name": "tranche",
          "type": "uint256"
        },
        {
          "indexed": true,
          "internalType": "uint256",
          "name": "tokenId",
          "type": "uint256"
        },
        {
          "indexed": false,
          "internalType": "uint256",
          "name": "interestWithdrawn",
          "type": "uint256"
        },
        {
          "indexed": false,
          "internalType": "uint256",
          "name": "principalWithdrawn",
          "type": "uint256"
        }
      ],
      "name": "WithdrawalMade",
      "type": "event"
    },
    {
      "inputs": [],
      "name": "DEFAULT_ADMIN_ROLE",
      "outputs": [
        {
          "internalType": "bytes32",
          "name": "",
          "type": "bytes32"
        }
      ],
      "stateMutability": "view",
      "type": "function"
    },
    {
      "inputs": [],
      "name": "LOCKER_ROLE",
      "outputs": [
        {
          "internalType": "bytes32",
          "name": "",
          "type": "bytes32"
        }
      ],
      "stateMutability": "view",
      "type": "function"
    },
    {
      "inputs": [],
      "name": "NUM_TRANCHES_PER_SLICE",
      "outputs": [
        {
          "internalType": "uint256",
          "name": "",
          "type": "uint256"
        }
      ],
      "stateMutability": "pure",
      "type": "function"
    },
    {
      "inputs": [],
      "name": "OWNER_ROLE",
      "outputs": [
        {
          "internalType": "bytes32",
          "name": "",
          "type": "bytes32"
        }
      ],
      "stateMutability": "view",
      "type": "function"
    },
    {
      "inputs": [],
      "name": "PAUSER_ROLE",
      "outputs": [
        {
          "internalType": "bytes32",
          "name": "",
          "type": "bytes32"
        }
      ],
      "stateMutability": "view",
      "type": "function"
    },
    {
      "inputs": [],
      "name": "SENIOR_ROLE",
      "outputs": [
        {
          "internalType": "bytes32",
          "name": "",
          "type": "bytes32"
        }
      ],
      "stateMutability": "view",
      "type": "function"
    },
    {
      "inputs": [
        {
          "internalType": "address",
          "name": "owner",
          "type": "address"
        }
      ],
      "name": "__BaseUpgradeablePausable__init",
      "outputs": [],
      "stateMutability": "nonpayable",
      "type": "function"
    },
    {
      "inputs": [],
      "name": "__PauserPausable__init",
      "outputs": [],
      "stateMutability": "nonpayable",
      "type": "function"
    },
    {
      "inputs": [
        {
          "internalType": "uint256",
          "name": "",
          "type": "uint256"
        }
      ],
      "name": "allowedUIDTypes",
      "outputs": [
        {
          "internalType": "uint256",
          "name": "",
          "type": "uint256"
        }
      ],
      "stateMutability": "view",
      "type": "function"
    },
    {
      "inputs": [],
      "name": "assess",
      "outputs": [],
      "stateMutability": "nonpayable",
      "type": "function"
    },
    {
      "inputs": [
        {
          "internalType": "uint256",
          "name": "tokenId",
          "type": "uint256"
        }
      ],
      "name": "availableToWithdraw",
      "outputs": [
        {
          "internalType": "uint256",
          "name": "",
          "type": "uint256"
        },
        {
          "internalType": "uint256",
          "name": "",
          "type": "uint256"
        }
      ],
      "stateMutability": "view",
      "type": "function"
    },
    {
      "inputs": [],
      "name": "config",
      "outputs": [
        {
          "internalType": "contract GoldfinchConfig",
          "name": "",
          "type": "address"
        }
      ],
      "stateMutability": "view",
      "type": "function"
    },
    {
      "inputs": [],
      "name": "createdAt",
      "outputs": [
        {
          "internalType": "uint256",
          "name": "",
          "type": "uint256"
        }
      ],
      "stateMutability": "view",
      "type": "function"
    },
    {
      "inputs": [],
      "name": "creditLine",
      "outputs": [
        {
          "internalType": "contract IV2CreditLine",
          "name": "",
          "type": "address"
        }
      ],
      "stateMutability": "view",
      "type": "function"
    },
    {
      "inputs": [
        {
          "internalType": "uint256",
          "name": "tranche",
          "type": "uint256"
        },
        {
          "internalType": "uint256",
          "name": "amount",
          "type": "uint256"
        }
      ],
      "name": "deposit",
      "outputs": [
        {
          "internalType": "uint256",
          "name": "",
          "type": "uint256"
        }
      ],
      "stateMutability": "nonpayable",
      "type": "function"
    },
    {
      "inputs": [
        {
          "internalType": "uint256",
          "name": "tranche",
          "type": "uint256"
        },
        {
          "internalType": "uint256",
          "name": "amount",
          "type": "uint256"
        },
        {
          "internalType": "uint256",
          "name": "deadline",
          "type": "uint256"
        },
        {
          "internalType": "uint8",
          "name": "v",
          "type": "uint8"
        },
        {
          "internalType": "bytes32",
          "name": "r",
          "type": "bytes32"
        },
        {
          "internalType": "bytes32",
          "name": "s",
          "type": "bytes32"
        }
      ],
      "name": "depositWithPermit",
      "outputs": [
        {
          "internalType": "uint256",
          "name": "tokenId",
          "type": "uint256"
        }
      ],
      "stateMutability": "nonpayable",
      "type": "function"
    },
    {
      "inputs": [
        {
          "internalType": "uint256",
          "name": "amount",
          "type": "uint256"
        }
      ],
      "name": "drawdown",
      "outputs": [],
      "stateMutability": "nonpayable",
      "type": "function"
    },
    {
      "inputs": [],
      "name": "drawdownsPaused",
      "outputs": [
        {
          "internalType": "bool",
          "name": "",
          "type": "bool"
        }
      ],
      "stateMutability": "view",
      "type": "function"
    },
    {
      "inputs": [],
      "name": "emergencyShutdown",
      "outputs": [],
      "stateMutability": "nonpayable",
      "type": "function"
    },
    {
      "inputs": [],
      "name": "fundableAt",
      "outputs": [
        {
          "internalType": "uint256",
          "name": "",
          "type": "uint256"
        }
      ],
      "stateMutability": "view",
      "type": "function"
    },
    {
      "inputs": [],
      "name": "getAllowedUIDTypes",
      "outputs": [
        {
          "internalType": "uint256[]",
          "name": "",
          "type": "uint256[]"
        }
      ],
      "stateMutability": "view",
      "type": "function"
    },
    {
      "inputs": [
        {
          "internalType": "bytes32",
          "name": "role",
          "type": "bytes32"
        }
      ],
      "name": "getRoleAdmin",
      "outputs": [
        {
          "internalType": "bytes32",
          "name": "",
          "type": "bytes32"
        }
      ],
      "stateMutability": "view",
      "type": "function"
    },
    {
      "inputs": [
        {
          "internalType": "bytes32",
          "name": "role",
          "type": "bytes32"
        },
        {
          "internalType": "uint256",
          "name": "index",
          "type": "uint256"
        }
      ],
      "name": "getRoleMember",
      "outputs": [
        {
          "internalType": "address",
          "name": "",
          "type": "address"
        }
      ],
      "stateMutability": "view",
      "type": "function"
    },
    {
      "inputs": [
        {
          "internalType": "bytes32",
          "name": "role",
          "type": "bytes32"
        }
      ],
      "name": "getRoleMemberCount",
      "outputs": [
        {
          "internalType": "uint256",
          "name": "",
          "type": "uint256"
        }
      ],
      "stateMutability": "view",
      "type": "function"
    },
    {
      "inputs": [
        {
          "internalType": "uint256",
          "name": "tranche",
          "type": "uint256"
        }
      ],
      "name": "getTranche",
      "outputs": [
        {
          "components": [
            {
              "internalType": "uint256",
              "name": "id",
              "type": "uint256"
            },
            {
              "internalType": "uint256",
              "name": "principalDeposited",
              "type": "uint256"
            },
            {
              "internalType": "uint256",
              "name": "principalSharePrice",
              "type": "uint256"
            },
            {
              "internalType": "uint256",
              "name": "interestSharePrice",
              "type": "uint256"
            },
            {
              "internalType": "uint256",
              "name": "lockedUntil",
              "type": "uint256"
            }
          ],
          "internalType": "struct ITranchedPool.TrancheInfo",
          "name": "",
          "type": "tuple"
        }
      ],
      "stateMutability": "view",
      "type": "function"
    },
    {
      "inputs": [],
      "name": "getVersion",
      "outputs": [
        {
          "internalType": "uint8[3]",
          "name": "version",
          "type": "uint8[3]"
        }
      ],
      "stateMutability": "pure",
      "type": "function"
    },
    {
      "inputs": [
        {
          "internalType": "bytes32",
          "name": "role",
          "type": "bytes32"
        },
        {
          "internalType": "address",
          "name": "account",
          "type": "address"
        }
      ],
      "name": "grantRole",
      "outputs": [],
      "stateMutability": "nonpayable",
      "type": "function"
    },
    {
      "inputs": [
        {
          "internalType": "address",
          "name": "sender",
          "type": "address"
        }
      ],
      "name": "hasAllowedUID",
      "outputs": [
        {
          "internalType": "bool",
          "name": "",
          "type": "bool"
        }
      ],
      "stateMutability": "view",
      "type": "function"
    },
    {
      "inputs": [
        {
          "internalType": "bytes32",
          "name": "role",
          "type": "bytes32"
        },
        {
          "internalType": "address",
          "name": "account",
          "type": "address"
        }
      ],
      "name": "hasRole",
      "outputs": [
        {
          "internalType": "bool",
          "name": "",
          "type": "bool"
        }
      ],
      "stateMutability": "view",
      "type": "function"
    },
    {
      "inputs": [
        {
          "internalType": "address",
          "name": "_config",
          "type": "address"
        },
        {
          "internalType": "address",
          "name": "_borrower",
          "type": "address"
        },
        {
          "internalType": "uint256",
          "name": "_juniorFeePercent",
          "type": "uint256"
        },
        {
          "internalType": "uint256",
          "name": "_limit",
          "type": "uint256"
        },
        {
          "internalType": "uint256",
          "name": "_interestApr",
          "type": "uint256"
        },
        {
          "internalType": "uint256",
          "name": "_paymentPeriodInDays",
          "type": "uint256"
        },
        {
          "internalType": "uint256",
          "name": "_termInDays",
          "type": "uint256"
        },
        {
          "internalType": "uint256",
          "name": "_lateFeeApr",
          "type": "uint256"
        },
        {
          "internalType": "uint256",
          "name": "_principalGracePeriodInDays",
          "type": "uint256"
        },
        {
          "internalType": "uint256",
          "name": "_fundableAt",
          "type": "uint256"
        },
        {
          "internalType": "uint256[]",
          "name": "_allowedUIDTypes",
          "type": "uint256[]"
        }
      ],
      "name": "initialize",
      "outputs": [],
      "stateMutability": "nonpayable",
      "type": "function"
    },
    {
      "inputs": [
        {
          "internalType": "uint256",
          "name": "_fundableAt",
          "type": "uint256"
        }
      ],
      "name": "initializeNextSlice",
      "outputs": [],
      "stateMutability": "nonpayable",
      "type": "function"
    },
    {
      "inputs": [],
      "name": "isAdmin",
      "outputs": [
        {
          "internalType": "bool",
          "name": "",
          "type": "bool"
        }
      ],
      "stateMutability": "view",
      "type": "function"
    },
    {
      "inputs": [],
      "name": "juniorFeePercent",
      "outputs": [
        {
          "internalType": "uint256",
          "name": "",
          "type": "uint256"
        }
      ],
      "stateMutability": "view",
      "type": "function"
    },
    {
      "inputs": [],
      "name": "lockJuniorCapital",
      "outputs": [],
      "stateMutability": "nonpayable",
      "type": "function"
    },
    {
      "inputs": [],
      "name": "lockPool",
      "outputs": [],
      "stateMutability": "nonpayable",
      "type": "function"
    },
    {
      "inputs": [
        {
          "internalType": "address",
          "name": "_borrower",
          "type": "address"
        },
        {
          "internalType": "uint256",
          "name": "_maxLimit",
          "type": "uint256"
        },
        {
          "internalType": "uint256",
          "name": "_interestApr",
          "type": "uint256"
        },
        {
          "internalType": "uint256",
          "name": "_paymentPeriodInDays",
          "type": "uint256"
        },
        {
          "internalType": "uint256",
          "name": "_termInDays",
          "type": "uint256"
        },
        {
          "internalType": "uint256",
          "name": "_lateFeeApr",
          "type": "uint256"
        },
        {
          "internalType": "uint256",
          "name": "_principalGracePeriodInDays",
          "type": "uint256"
        }
      ],
      "name": "migrateCreditLine",
      "outputs": [],
      "stateMutability": "nonpayable",
      "type": "function"
    },
    {
      "inputs": [],
      "name": "numSlices",
      "outputs": [
        {
          "internalType": "uint256",
          "name": "",
          "type": "uint256"
        }
      ],
      "stateMutability": "view",
      "type": "function"
    },
    {
      "inputs": [],
      "name": "pause",
      "outputs": [],
      "stateMutability": "nonpayable",
      "type": "function"
    },
    {
      "inputs": [],
      "name": "pauseDrawdowns",
      "outputs": [],
      "stateMutability": "nonpayable",
      "type": "function"
    },
    {
      "inputs": [],
      "name": "paused",
      "outputs": [
        {
          "internalType": "bool",
          "name": "",
          "type": "bool"
        }
      ],
      "stateMutability": "view",
      "type": "function"
    },
    {
      "inputs": [
        {
          "internalType": "uint256",
          "name": "amount",
          "type": "uint256"
        }
      ],
      "name": "pay",
      "outputs": [],
      "stateMutability": "nonpayable",
      "type": "function"
    },
    {
      "inputs": [
        {
          "internalType": "uint256",
          "name": "index",
          "type": "uint256"
        }
      ],
      "name": "poolSlices",
      "outputs": [
        {
          "components": [
            {
              "components": [
                {
                  "internalType": "uint256",
                  "name": "id",
                  "type": "uint256"
                },
                {
                  "internalType": "uint256",
                  "name": "principalDeposited",
                  "type": "uint256"
                },
                {
                  "internalType": "uint256",
                  "name": "principalSharePrice",
                  "type": "uint256"
                },
                {
                  "internalType": "uint256",
                  "name": "interestSharePrice",
                  "type": "uint256"
                },
                {
                  "internalType": "uint256",
                  "name": "lockedUntil",
                  "type": "uint256"
                }
              ],
              "internalType": "struct ITranchedPool.TrancheInfo",
              "name": "seniorTranche",
              "type": "tuple"
            },
            {
              "components": [
                {
                  "internalType": "uint256",
                  "name": "id",
                  "type": "uint256"
                },
                {
                  "internalType": "uint256",
                  "name": "principalDeposited",
                  "type": "uint256"
                },
                {
                  "internalType": "uint256",
                  "name": "principalSharePrice",
                  "type": "uint256"
                },
                {
                  "internalType": "uint256",
                  "name": "interestSharePrice",
                  "type": "uint256"
                },
                {
                  "internalType": "uint256",
                  "name": "lockedUntil",
                  "type": "uint256"
                }
              ],
              "internalType": "struct ITranchedPool.TrancheInfo",
              "name": "juniorTranche",
              "type": "tuple"
            },
            {
              "internalType": "uint256",
              "name": "totalInterestAccrued",
              "type": "uint256"
            },
            {
              "internalType": "uint256",
              "name": "principalDeployed",
              "type": "uint256"
            }
          ],
          "internalType": "struct ITranchedPool.PoolSlice",
          "name": "",
          "type": "tuple"
        }
      ],
      "stateMutability": "view",
      "type": "function"
    },
    {
      "inputs": [
        {
          "internalType": "bytes32",
          "name": "role",
          "type": "bytes32"
        },
        {
          "internalType": "address",
          "name": "account",
          "type": "address"
        }
      ],
      "name": "renounceRole",
      "outputs": [],
      "stateMutability": "nonpayable",
      "type": "function"
    },
    {
      "inputs": [
        {
          "internalType": "bytes32",
          "name": "role",
          "type": "bytes32"
        },
        {
          "internalType": "address",
          "name": "account",
          "type": "address"
        }
      ],
      "name": "revokeRole",
      "outputs": [],
      "stateMutability": "nonpayable",
      "type": "function"
    },
    {
      "inputs": [
        {
          "internalType": "uint256[]",
          "name": "ids",
          "type": "uint256[]"
        }
      ],
      "name": "setAllowedUIDTypes",
      "outputs": [],
      "stateMutability": "nonpayable",
      "type": "function"
    },
    {
      "inputs": [
        {
          "internalType": "uint256",
          "name": "newFundableAt",
          "type": "uint256"
        }
      ],
      "name": "setFundableAt",
      "outputs": [],
      "stateMutability": "nonpayable",
      "type": "function"
    },
    {
      "inputs": [
        {
          "internalType": "uint256",
          "name": "newAmount",
          "type": "uint256"
        }
      ],
      "name": "setLimit",
      "outputs": [],
      "stateMutability": "nonpayable",
      "type": "function"
    },
    {
      "inputs": [
        {
          "internalType": "uint256",
          "name": "newAmount",
          "type": "uint256"
        }
      ],
      "name": "setMaxLimit",
      "outputs": [],
      "stateMutability": "nonpayable",
      "type": "function"
    },
    {
      "inputs": [],
      "name": "totalDeployed",
      "outputs": [
        {
          "internalType": "uint256",
          "name": "",
          "type": "uint256"
        }
      ],
      "stateMutability": "view",
      "type": "function"
    },
    {
      "inputs": [],
      "name": "totalJuniorDeposits",
      "outputs": [
        {
          "internalType": "uint256",
          "name": "",
          "type": "uint256"
        }
      ],
      "stateMutability": "view",
      "type": "function"
    },
    {
      "inputs": [],
      "name": "unpause",
      "outputs": [],
      "stateMutability": "nonpayable",
      "type": "function"
    },
    {
      "inputs": [],
      "name": "unpauseDrawdowns",
      "outputs": [],
      "stateMutability": "nonpayable",
      "type": "function"
    },
    {
      "inputs": [
        {
          "internalType": "uint256",
          "name": "tokenId",
          "type": "uint256"
        },
        {
          "internalType": "uint256",
          "name": "amount",
          "type": "uint256"
        }
      ],
      "name": "withdraw",
      "outputs": [
        {
          "internalType": "uint256",
          "name": "",
          "type": "uint256"
        },
        {
          "internalType": "uint256",
          "name": "",
          "type": "uint256"
        }
      ],
      "stateMutability": "nonpayable",
      "type": "function"
    },
    {
      "inputs": [
        {
          "internalType": "uint256",
          "name": "tokenId",
          "type": "uint256"
        }
      ],
      "name": "withdrawMax",
      "outputs": [
        {
          "internalType": "uint256",
          "name": "interestWithdrawn",
          "type": "uint256"
        },
        {
          "internalType": "uint256",
          "name": "principalWithdrawn",
          "type": "uint256"
        }
      ],
      "stateMutability": "nonpayable",
      "type": "function"
    },
    {
      "inputs": [
        {
          "internalType": "uint256[]",
          "name": "tokenIds",
          "type": "uint256[]"
        },
        {
          "internalType": "uint256[]",
          "name": "amounts",
          "type": "uint256[]"
        }
      ],
      "name": "withdrawMultiple",
      "outputs": [],
      "stateMutability": "nonpayable",
      "type": "function"
    }
  ],
  "transactionHash": "0xdb3a4a4e34593b4af583ca25aafb9c040bbf13eb6db8922c8739c584e9080776",
  "args": [],
  "solcInputHash": "bf6f46dcbe6f600dbdc728698b461228",
  "bytecode": "0x608060405234801561001057600080fd5b506155ed80620000216000396000f3fe608060405234801561001057600080fd5b50600436106102ed5760003560e01c80639010d07c11610193578063c290d691116100e4578063dd0ec24111610092578063dd0ec241146105ee578063e2a657f9146105f6578063e2bbb15814610609578063e58378bb1461061c578063e63ab1e914610624578063f36213671461062c578063f94f5a1214610634576102ed565b8063c290d69114610570578063c77d569814610583578063c78bed861461058b578063ca15c873146105a0578063cf09e0d0146105b3578063d547741f146105bb578063d972e8ad146105ce576102ed565b8063a8f9c4fe11610141578063a8f9c4fe1461050c578063aa2a7c4c14610514578063ae6c857a14610527578063b6db75a01461053a578063b9317d8614610542578063bf6c87c714610555578063bf8bcee41461055d576102ed565b80639010d07c1461049d57806391d14854146104b05780639d110530146104c3578063a079a4dd146104d6578063a217fddf146104e9578063a6a25e88146104f1578063a8deac0e146104f9576102ed565b80634026478e1161024d5780635c975abb116101fb5780635c975abb146104425780635eb185a21461044a57806378bcd6041461045257806379502c55146104655780637976323d1461046d57806380b65431146104755780638456cb5914610495576102ed565b80634026478e146103ce578063441a3e70146103d657806344c08f23146103f757806347195e13146103ff5780634d02fe6f14610414578063515bc32314610427578063526d81f61461043a576102ed565b8063248a9ca3116102aa578063248a9ca31461036a57806327ea6f2b1461037d5780632ae754be146103905780632f2ff15d146103985780633403c2fc146103ab57806336568abe146103b35780633f4ba83a146103c6576102ed565b80630881806c146102f2578063097616a3146102fc5780630cfb14b01461030f5780630d8e6e2c1461032d57806317f76941146103425780631fe032be14610357575b600080fd5b6102fa610647565b005b6102fa61030a36600461488f565b6106c1565b6103176107f1565b6040516103249190614e5d565b60405180910390f35b6103356107f8565b6040516103249190614e1e565b61034a610815565b6040516103249190614e52565b6102fa610365366004614987565b61081f565b610317610378366004614aa4565b610be0565b6102fa61038b366004614aa4565b610bf5565b610317610c80565b6102fa6103a6366004614abc565b610c92565b6102fa610cd6565b6102fa6103c1366004614abc565b610ed2565b6102fa610f14565b6102fa610f52565b6103e96103e4366004614aeb565b610fb1565b604051610324929190614e80565b6103176110d9565b6104076110de565b6040516103249190614c9d565b6103e9610422366004614aa4565b6110ee565b610317610435366004614be8565b61124b565b6102fa6112e2565b61034a61136c565b610317611375565b6102fa610460366004614aa4565b61137c565b610407611592565b6103176115a2565b610488610483366004614aa4565b6115a9565b60405161032491906153f1565b6102fa61165d565b6104076104ab366004614aeb565b61169b565b61034a6104be366004614abc565b6116bc565b6102fa6104d1366004614a1b565b6116d4565b6102fa6104e4366004614aa4565b611736565b610317611d7d565b6102fa611d82565b6102fa6105073660046148c7565b611dad565b6102fa61210c565b6103e9610522366004614aa4565b61216b565b6102fa610535366004614aa4565b612332565b61034a61236c565b6102fa6105503660046149db565b61238d565b6102fa612451565b6102fa61056b366004614aa4565b6124ad565b6102fa61057e366004614aa4565b612502565b610317612573565b61059361257a565b6040516103249190614dda565b6103176105ae366004614aa4565b6125d3565b6103176125ea565b6102fa6105c9366004614abc565b6125f1565b6105e16105dc366004614aa4565b61262b565b6040516103249190615433565b61031761267b565b610317610604366004614aa4565b6126ba565b610317610617366004614aeb565b6126d9565b6103176129c2565b6103176129d4565b6103176129e6565b61034a61064236600461488f565b6129f8565b61065f600080516020615598833981519152336116bc565b6106845760405162461bcd60e51b815260040161067b906152df565b60405180910390fd5b60975460ff16156106a75760405162461bcd60e51b815260040161067b90615164565b6101cc546106bf906106ba906001612a90565b612ad2565b565b600054610100900460ff16806106da57506106da612b98565b806106e8575060005460ff16155b6107045760405162461bcd60e51b815260040161067b90615258565b600054610100900460ff1615801561072f576000805460ff1961ff0019909116610100171660011790555b6001600160a01b0382166107555760405162461bcd60e51b815260040161067b906151aa565b61075d612b9e565b610765612c1f565b61076d612cab565b61078560008051602061553883398151915283610ccc565b61079d60008051602061555883398151915283610ccc565b6107c3600080516020615558833981519152600080516020615538833981519152612d3a565b6107db60008051602061553883398151915280612d3a565b80156107ed576000805461ff00191690555b5050565b6101c95481565b6108006146d4565b60006040820181905260016020830152815290565b6101c75460ff1681565b61082761236c565b6108435760405162461bcd60e51b815260040161067b90615332565b6001600160a01b0387161580159061085a57508315155b801561086557508215155b6108815760405162461bcd60e51b815260040161067b90615039565b6101c3546001600160a01b031661089d88888888888888612d4f565b6101c3546040516312804a4d60e11b815273A8CaC9022164B3b7a6ab764227dBC38B8D47eef191632500949a916108e49185916001600160a01b0390911690600401614e66565b60006040518083038186803b1580156108fc57600080fd5b505af4158015610910573d6000803e3d6000fd5b50506040516303bafb3960e11b815273A8CaC9022164B3b7a6ab764227dBC38B8D47eef19250630775f672915061094b908490600401614c9d565b60006040518083038186803b15801561096357600080fd5b505af4158015610977573d6000803e3d6000fd5b505050506000816001600160a01b0316637df1f1b96040518163ffffffff1660e01b815260040160206040518083038186803b1580156109b657600080fd5b505afa1580156109ca573d6000803e3d6000fd5b505050506040513d601f19601f820116820180604052508101906109ee91906148ab565b905060006101c360009054906101000a90046001600160a01b03166001600160a01b0316637df1f1b96040518163ffffffff1660e01b815260040160206040518083038186803b158015610a4157600080fd5b505afa158015610a55573d6000803e3d6000fd5b505050506040513d601f19601f82011682018060405250810190610a7991906148ab565b9050806001600160a01b0316826001600160a01b031614610ac457610aac600080516020615598833981519152836125f1565b610ac460008051602061559883398151915282610c92565b6101c554600090610add906001600160a01b0316612e6c565b6001600160a01b03166370a08231856040518263ffffffff1660e01b8152600401610b089190614c9d565b60206040518083038186803b158015610b2057600080fd5b505afa158015610b34573d6000803e3d6000fd5b505050506040513d601f19601f82011682018060405250810190610b589190614b80565b90508015610b97576101c3546101c554610b979186916001600160a01b03918216918591610b869116612e6c565b6001600160a01b0316929190612e77565b6101c3546040516001600160a01b03918216918616907f987cdba0cba67c68d2c8aba6a4ba6545565eccfb3e2e5ff39579ffd94acaf9bb90600090a35050505050505050505050565b60009081526065602052604090206002015490565b610bfd61236c565b610c195760405162461bcd60e51b815260040161067b90615332565b6101c3546040516327ea6f2b60e01b81526001600160a01b03909116906327ea6f2b90610c4a908490600401614e5d565b600060405180830381600087803b158015610c6457600080fd5b505af1158015610c78573d6000803e3d6000fd5b505050505b50565b60008051602061557883398151915281565b600082815260656020526040902060020154610cb0906104be612e99565b610ccc5760405162461bcd60e51b815260040161067b90614f84565b6107ed8282612e9d565b610cde61236c565b610cfa5760405162461bcd60e51b815260040161067b90615332565b610d0261136c565b610d0e57610d0e61165d565b6101c554600090610d27906001600160a01b0316612e6c565b6101c554909150600090610d43906001600160a01b0316612f06565b90506000826001600160a01b03166370a08231306040518263ffffffff1660e01b8152600401610d739190614c9d565b60206040518083038186803b158015610d8b57600080fd5b505afa158015610d9f573d6000803e3d6000fd5b505050506040513d601f19601f82011682018060405250810190610dc39190614b80565b90508015610df9576101c554610df99083908390610de9906001600160a01b0316612e6c565b6001600160a01b03169190612f86565b6101c3546040516370a0823160e01b81526000916001600160a01b03808716926370a0823192610e2d921690600401614c9d565b60206040518083038186803b158015610e4557600080fd5b505afa158015610e59573d6000803e3d6000fd5b505050506040513d601f19601f82011682018060405250810190610e7d9190614b80565b90508015610ea1576101c354610ea1906001600160a01b0386811691168584612e77565b60405130907f1fc1e771236d2e93bb9541cdcb4654ba0fd3fb615b48d829b7b365f03998512690600090a250505050565b610eda612e99565b6001600160a01b0316816001600160a01b031614610f0a5760405162461bcd60e51b815260040161067b9061537d565b6107ed8282612fa1565b610f2e6000805160206155588339815191526104be612e99565b610f4a5760405162461bcd60e51b815260040161067b906152df565b6106bf61300a565b610f6a600080516020615598833981519152336116bc565b610f865760405162461bcd60e51b815260040161067b906152df565b60975460ff1615610fa95760405162461bcd60e51b815260040161067b90615164565b6106bf613076565b60c954600090819060ff16610fd85760405162461bcd60e51b815260040161067b906152fb565b60c9805460ff1916905560975460ff16156110055760405162461bcd60e51b815260040161067b90615164565b61100d6146f2565b6101c554611023906001600160a01b031661336b565b6001600160a01b0316638c7a63ae866040518263ffffffff1660e01b815260040161104e9190614e5d565b60a06040518083038186803b15801561106657600080fd5b505afa15801561107a573d6000803e3d6000fd5b505050506040513d601f19601f8201168201806040525081019061109e9190614b0c565b905060006110af8260200151613376565b90506110bd818388886134ed565b93509350505060c9805460ff1916600117905590939092509050565b600290565b6101c3546001600160a01b031681565b6000806110f96146f2565b6101c55461110f906001600160a01b031661336b565b6001600160a01b0316638c7a63ae856040518263ffffffff1660e01b815260040161113a9190614e5d565b60a06040518083038186803b15801561115257600080fd5b505afa158015611166573d6000803e3d6000fd5b505050506040513d601f19601f8201168201806040525081019061118a9190614b0c565b9050600061119b8260200151613376565b9050806004015442111561123c57604051637bfe125960e11b815273A8CaC9022164B3b7a6ab764227dBC38B8D47eef19063f7fc24b2906111e29084908690600401615492565b604080518083038186803b1580156111f957600080fd5b505af415801561120d573d6000803e3d6000fd5b505050506040513d601f19601f820116820180604052508101906112319190614b98565b935093505050611246565b6000809350935050505b915091565b6101c554600090611264906001600160a01b0316613866565b6001600160a01b031663d505accf333089898989896040518863ffffffff1660e01b815260040161129b9796959493929190614cb1565b600060405180830381600087803b1580156112b557600080fd5b505af11580156112c9573d6000803e3d6000fd5b505050506112d787876126d9565b979650505050505050565b600054610100900460ff16806112fb57506112fb612b98565b80611309575060005460ff16155b6113255760405162461bcd60e51b815260040161067b90615258565b600054610100900460ff16158015611350576000805460ff1961ff0019909116610100171660011790555b611358612c1f565b8015610c7d576000805461ff001916905550565b60975460ff1690565b6101ca5481565b611394600080516020615598833981519152336116bc565b6113b05760405162461bcd60e51b815260040161067b906152df565b60975460ff16156113d35760405162461bcd60e51b815260040161067b90615164565b6113db61387e565b6113f75760405162461bcd60e51b815260040161067b906152c3565b6101c360009054906101000a90046001600160a01b03166001600160a01b03166381c17a156040518163ffffffff1660e01b815260040160206040518083038186803b15801561144657600080fd5b505afa15801561145a573d6000803e3d6000fd5b505050506040513d601f19601f8201168201806040525081019061147e9190614a84565b1561149b5760405162461bcd60e51b815260040161067b9061523c565b6101c360009054906101000a90046001600160a01b03166001600160a01b031663457147a76040518163ffffffff1660e01b815260040160206040518083038186803b1580156114ea57600080fd5b505afa1580156114fe573d6000803e3d6000fd5b505050506040513d601f19601f820116820180604052508101906115229190614a84565b61153e5760405162461bcd60e51b815260040161067b906150f8565b611547816138ae565b6101cc5430907f3420dd9c54d6a8846edd2fb39a41c30c31e7bc95b43655dae59f47cc913b60d59061157a906001612a90565b6040516115879190614e5d565b60405180910390a250565b6101c5546001600160a01b031681565b6101cc5481565b6115b161472a565b5060009081526101cb602090815260409182902082516101208101845281546080808301918252600184015460a080850191909152600285015460c0850152600385015460e085015260048501546101008501529183528551918201865260058401548252600684015482860152600784015482870152600884015460608084019190915260098501549183019190915293820152600a82015493810193909352600b01549082015290565b6116776000805160206155588339815191526104be612e99565b6116935760405162461bcd60e51b815260040161067b906152df565b6106bf613958565b60008281526065602052604081206116b390836139b1565b90505b92915050565b60008281526065602052604081206116b390836139bd565b8281146116f35760405162461bcd60e51b815260040161067b906152a6565b60005b81811015610c785761172c85858381811061170d57fe5b9050602002013584848481811061172057fe5b90506020020135610fb1565b50506001016116f6565b61174e600080516020615598833981519152336116bc565b61176a5760405162461bcd60e51b815260040161067b906152df565b60975460ff161561178d5760405162461bcd60e51b815260040161067b90615164565b6101c75460ff16156117b15760405162461bcd60e51b815260040161067b9061501d565b6117b961387e565b6117c5576117c5613076565b6101cc546000190160009081526101cb6020526040808220600781015460068201549251630174b44960e01b815291939273A8CaC9022164B3b7a6ab764227dBC38B8D47eef192630174b44992611820929091600401614e80565b60206040518083038186803b15801561183857600080fd5b505af415801561184c573d6000803e3d6000fd5b505050506040513d601f19601f820116820180604052508101906118709190614b80565b60028301546001840154604051630174b44960e01b815292935061190d9273A8CaC9022164B3b7a6ab764227dBC38B8D47eef192630174b449926118b692600401614e80565b60206040518083038186803b1580156118ce57600080fd5b505af41580156118e2573d6000803e3d6000fd5b505050506040513d601f19601f820116820180604052508101906119069190614b80565b82906139d2565b90508083111561192f5760405162461bcd60e51b815260040161067b9061518e565b6101c35460405163a079a4dd60e01b81526001600160a01b039091169063a079a4dd90611960908690600401614e5d565b600060405180830381600087803b15801561197a57600080fd5b505af115801561198e573d6000803e3d6000fd5b5050505060006119a78483612a9090919063ffffffff16565b600784015460028501546040805160a081018252600588015481526006880154602082015280820184905260088801546060820152600988015460808201529051634ec167e960e11b81529394509192909173A8CaC9022164B3b7a6ab764227dBC38B8D47eef191639d82cfd291611a259187908a90600401615441565b60206040518083038186803b158015611a3d57600080fd5b505af4158015611a51573d6000803e3d6000fd5b505050506040513d601f19601f82011682018060405250810190611a759190614b80565b60078601556040805160a08101825286548152600187015460208201526002870154818301526003870154606082015260048088015460808301529151634ec167e960e11b815273A8CaC9022164B3b7a6ab764227dBC38B8D47eef192639d82cfd292611ae892909188918b9101615441565b60206040518083038186803b158015611b0057600080fd5b505af4158015611b14573d6000803e3d6000fd5b505050506040513d601f19601f82011682018060405250810190611b389190614b80565b6002860155600b850154611b4c90876139d2565b600b8601556101c954611b5f90876139d2565b6101c9556101c35460408051637df1f1b960e01b815290516000926001600160a01b031691637df1f1b9916004808301926020929190829003018186803b158015611ba957600080fd5b505afa158015611bbd573d6000803e3d6000fd5b505050506040513d601f19601f82011682018060405250810190611be191906148ab565b6101c554909150600090611bfd906001600160a01b03166139f7565b9050806001600160a01b031663e149ee8060016101cc54036040518263ffffffff1660e01b8152600401611c319190614e5d565b600060405180830381600087803b158015611c4b57600080fd5b505af1158015611c5f573d6000803e3d6000fd5b50506101c554611c83925030915084908b90610b86906001600160a01b0316612e6c565b816001600160a01b03167f7411b87a3c039bdfd8f3510b21e8bd0736265f53513735e1f4aa7b4f306b728d89604051611cbc9190614e5d565b60405180910390a26005870154600788015430907f42a55d7508b1c40b53524cf7cc2558b0f6bc7c4f262a3e929b65cd48bec2b68790611cfc8882612a90565b60088c0154604051611d159392600090810392916154f1565b60405180910390a38654600288015430907f42a55d7508b1c40b53524cf7cc2558b0f6bc7c4f262a3e929b65cd48bec2b68790611d528782612a90565b60038c0154604051611d6b9392600090810392916154f1565b60405180910390a35050505050505050565b600081565b60975460ff1615611da55760405162461bcd60e51b815260040161067b90615164565b6106bf613a0f565b600054610100900460ff1680611dc65750611dc6612b98565b80611dd4575060005460ff16155b611df05760405162461bcd60e51b815260040161067b90615258565b600054610100900460ff16158015611e1b576000805460ff1961ff0019909116610100171660011790555b6001600160a01b038d1615801590611e3b57506001600160a01b038c1615155b611e575760405162461bcd60e51b815260040161067b90615039565b8c6101c560006101000a8154816001600160a01b0302191690836001600160a01b031602179055506000611ea96101c560009054906101000a90046001600160a01b03166001600160a01b0316614007565b9050611eb4816106c1565b611ebd856138ae565b611ecc8d8c8c8c8c8c8c612d4f565b426101c4556101c68c905582611f9057611ee461475e565b60408051602081019091526101c5548190611f07906001600160a01b031661401f565b6001600160a01b0316639b56d7886040518163ffffffff1660e01b815260040160206040518083038186803b158015611f3f57600080fd5b505afa158015611f53573d6000803e3d6000fd5b505050506040513d601f19601f82011682018060405250810190611f779190614b80565b90529050611f896101c882600161477c565b5050611f9f565b611f9d6101c885856147c7565b505b611fb76000805160206155988339815191528e610ccc565b611fcf60008051602061559883398151915282610ccc565b611ff5600080516020615598833981519152600080516020615538833981519152612d3a565b61201b600080516020615578833981519152600080516020615538833981519152612d3a565b6101c55461204a9060008051602061557883398151915290612045906001600160a01b031661402a565b610ccc565b6101c554612060906001600160a01b0316612e6c565b6001600160a01b031663095ea7b3306000196040518363ffffffff1660e01b815260040161208f929190614cf2565b602060405180830381600087803b1580156120a957600080fd5b505af11580156120bd573d6000803e3d6000fd5b505050506040513d601f19601f820116820180604052508101906120e19190614a84565b6120ea57600080fd5b5080156120fd576000805461ff00191690555b50505050505050505050505050565b61211461236c565b6121305760405162461bcd60e51b815260040161067b90615332565b6101c7805460ff1916600117905560405130907f90d9b09c68a7e1312ce22801552b47265d77db9496383d51374b4058545447d790600090a2565b60c954600090819060ff166121925760405162461bcd60e51b815260040161067b906152fb565b60c9805460ff1916905560975460ff16156121bf5760405162461bcd60e51b815260040161067b90615164565b6121c76146f2565b6101c5546121dd906001600160a01b031661336b565b6001600160a01b0316638c7a63ae856040518263ffffffff1660e01b81526004016122089190614e5d565b60a06040518083038186803b15801561222057600080fd5b505afa158015612234573d6000803e3d6000fd5b505050506040513d601f19601f820116820180604052508101906122589190614b0c565b905060006122698260200151613376565b905060008073A8CaC9022164B3b7a6ab764227dBC38B8D47eef163f7fc24b284866040518363ffffffff1660e01b81526004016122a7929190615492565b604080518083038186803b1580156122be57600080fd5b505af41580156122d2573d6000803e3d6000fd5b505050506040513d601f19601f820116820180604052508101906122f69190614b98565b9092509050600061230783836139d2565b905061231584868a846134ed565b96509650505050505060c9805460ff191660011790559092909150565b61234a600080516020615598833981519152336116bc565b6123665760405162461bcd60e51b815260040161067b906152df565b6101ca55565b60006123886000805160206155388339815191526104be612e99565b905090565b6123a5600080516020615598833981519152336116bc565b6123c15760405162461bcd60e51b815260040161067b906152df565b600080526101cb6020527f7815f96d61162a6533de7fc4199513d6e939c8cbee1627dfd11ec1fe503f0bb9541580156124235750600080526101cb6020527f7815f96d61162a6533de7fc4199513d6e939c8cbee1627dfd11ec1fe503f0bb454155b61243f5760405162461bcd60e51b815260040161067b906150d3565b61244c6101c883836147c7565b505050565b61245961236c565b6124755760405162461bcd60e51b815260040161067b90615332565b6101c7805460ff1916905560405130907f7184039938737267597232635b117c924371ac877d4329f2dfa5ca674c5cc4a590600090a2565b6124b561236c565b6124d15760405162461bcd60e51b815260040161067b90615332565b6101c354604051632fe2f3b960e21b81526001600160a01b039091169063bf8bcee490610c4a908490600401614e5d565b60975460ff16156125255760405162461bcd60e51b815260040161067b90615164565b600081116125455760405162461bcd60e51b815260040161067b90615220565b6101c3546101c55461256b9133916001600160a01b03918216918591610b869116612e6c565b610c7d613a0f565b6101c65481565b60606101c88054806020026020016040519081016040528092919081815260200182805480156125c957602002820191906000526020600020905b8154815260200190600101908083116125b5575b5050505050905090565b60008181526065602052604081206116b690614035565b6101c45481565b60008281526065602052604090206002015461260f906104be612e99565b610f0a5760405162461bcd60e51b815260040161067b90615114565b612633614802565b61263c82613376565b6040805160a081018252825481526001830154602082015260028301549181019190915260038201546060820152600490910154608082015292915050565b60008060005b6101cc548110156126b45760008181526101cb60205260409020600601546126aa9083906139d2565b9150600101612681565b50905090565b6101c881815481106126c857fe5b600091825260209091200154905081565b60c95460009060ff166126fe5760405162461bcd60e51b815260040161067b906152fb565b60c9805460ff1916905560975460ff161561272b5760405162461bcd60e51b815260040161067b90615164565b600061273684613376565b9050806004015460001461275c5760405162461bcd60e51b815260040161067b9061508e565b6000831161277c5760405162461bcd60e51b815260040161067b90615220565b612785336129f8565b6127a15760405162461bcd60e51b815260040161067b906152df565b6101ca5442116127c35760405162461bcd60e51b815260040161067b90614f62565b80546040516337b1b00560e21b815273A8CaC9022164B3b7a6ab764227dBC38B8D47eef19163dec6c014916127fb9190600401614e5d565b60206040518083038186803b15801561281357600080fd5b505af4158015612827573d6000803e3d6000fd5b505050506040513d601f19601f8201168201806040525081019061284b9190614a84565b156128865761286a6000805160206155788339815191526104be612e99565b6128865760405162461bcd60e51b815260040161067b906152df565b600181015461289590846139d2565b60018201556101c5546000906128b3906001600160a01b031661336b565b6001600160a01b0316635be57b6a604051806040016040528087815260200188815250336040518363ffffffff1660e01b81526004016128f49291906153cc565b602060405180830381600087803b15801561290e57600080fd5b505af1158015612922573d6000803e3d6000fd5b505050506040513d601f19601f820116820180604052508101906129469190614b80565b6101c55490915061296990339030908790610b86906001600160a01b0316612e6c565b8085336001600160a01b03167fcb3ef4109dcd006671348924f00aac8398190a5ff283d6e470d74581513e1036876040516129a49190614e5d565b60405180910390a491505060c9805460ff1916600117905592915050565b60008051602061553883398151915281565b60008051602061555883398151915281565b60008051602061559883398151915281565b6101c554600090612a11906001600160a01b031661401f565b6001600160a01b0316631852f200836101c86040518363ffffffff1660e01b8152600401612a40929190614d7f565b60206040518083038186803b158015612a5857600080fd5b505afa158015612a6c573d6000803e3d6000fd5b505050506040513d601f19601f820116820180604052508101906116b69190614a84565b60006116b383836040518060400160405280601e81526020017f536166654d6174683a207375627472616374696f6e206f766572666c6f770000815250614040565b612ada61387e565b158015612af7575060008181526101cb6020526040902060090154155b612b135760405162461bcd60e51b815260040161067b9061508e565b60008181526101cb6020526040908190206101c5549151636e10dbd760e01b815273A8CaC9022164B3b7a6ab764227dBC38B8D47eef192636e10dbd792612b6c926005909101916001600160a01b0316906004016154da565b60006040518083038186803b158015612b8457600080fd5b505af4158015610c78573d6000803e3d6000fd5b303b1590565b600054610100900460ff1680612bb75750612bb7612b98565b80612bc5575060005460ff16155b612be15760405162461bcd60e51b815260040161067b90615258565b600054610100900460ff16158015611358576000805460ff1961ff0019909116610100171660011790558015610c7d576000805461ff001916905550565b600054610100900460ff1680612c385750612c38612b98565b80612c46575060005460ff16155b612c625760405162461bcd60e51b815260040161067b90615258565b600054610100900460ff16158015612c8d576000805460ff1961ff0019909116610100171660011790555b6097805460ff191690558015610c7d576000805461ff001916905550565b600054610100900460ff1680612cc45750612cc4612b98565b80612cd2575060005460ff16155b612cee5760405162461bcd60e51b815260040161067b90615258565b600054610100900460ff16158015612d19576000805460ff1961ff0019909116610100171660011790555b60c9805460ff191660011790558015610c7d576000805461ff001916905550565b60009182526065602052604090912060020155565b6101c554612d65906001600160a01b031661406c565b6001600160a01b03166301b215516040518163ffffffff1660e01b8152600401602060405180830381600087803b158015612d9f57600080fd5b505af1158015612db3573d6000803e3d6000fd5b505050506040513d601f19601f82011682018060405250810190612dd791906148ab565b6101c380546001600160a01b0319166001600160a01b0392831617908190556101c55460405163bb4a250960e01b81529183169263bb4a250992612e31929091169030908c908c908c908c908c908c908c90600401614d0b565b600060405180830381600087803b158015612e4b57600080fd5b505af1158015612e5f573d6000803e3d6000fd5b5050505050505050505050565b60006116b682613866565b612e938484848460405180602001604052806000815250614077565b50505050565b3390565b6000828152606560205260409020612eb5908261414c565b156107ed57612ec2612e99565b6001600160a01b0316816001600160a01b0316837f2f8788117e7eff1d82e926ec794901d17c78024a50270940304540a733656f0d60405160405180910390a45050565b60006001600160a01b03821663b93f9b0a60065b6040518263ffffffff1660e01b8152600401612f369190614e5d565b60206040518083038186803b158015612f4e57600080fd5b505afa158015612f62573d6000803e3d6000fd5b505050506040513d601f19601f820116820180604052508101906116b691906148ab565b61244c83838360405180602001604052806000815250614161565b6000828152606560205260409020612fb9908261422b565b156107ed57612fc6612e99565b6001600160a01b0316816001600160a01b0316837ff6391f5c32d9c69d2a47ea670b442974b53935d1edc7fd64eb21e047a839171b60405160405180910390a45050565b60975460ff1661302c5760405162461bcd60e51b815260040161067b90614fd3565b6097805460ff191690557f5db9ee0a495bf2e6ff9c91a7834c1ba4fdd244a5e8aa4e537bd38aeae4b073aa61305f612e99565b60405161306c9190614c9d565b60405180910390a1565b60006101cb600061309460016101cc54612a9090919063ffffffff16565b8152602001908152602001600020905060008160050160040154116130cb5760405162461bcd60e51b815260040161067b906152c3565b6004810154156130ed5760405162461bcd60e51b815260040161067b9061508e565b6001810154600682015460009161310491906139d2565b6101c3546040805163a4d66daf60e01b815290519293506001600160a01b03909116916327ea6f2b916132289161319c918691869163a4d66daf916004808301926020929190829003018186803b15801561315e57600080fd5b505afa158015613172573d6000803e3d6000fd5b505050506040513d601f19601f820116820180604052508101906131969190614b80565b906139d2565b6101c360009054906101000a90046001600160a01b03166001600160a01b0316631a861d266040518163ffffffff1660e01b815260040160206040518083038186803b1580156131eb57600080fd5b505afa1580156131ff573d6000803e3d6000fd5b505050506040513d601f19601f820116820180604052508101906132239190614b80565b614240565b6040518263ffffffff1660e01b81526004016132449190614e5d565b600060405180830381600087803b15801561325e57600080fd5b505af1158015613272573d6000803e3d6000fd5b50506101c554604051636e10dbd760e01b815273A8CaC9022164B3b7a6ab764227dBC38B8D47eef19350636e10dbd792506132c09160058701916001600160a01b03909116906004016154da565b60006040518083038186803b1580156132d857600080fd5b505af41580156132ec573d6000803e3d6000fd5b50506101c554604051636e10dbd760e01b815273A8CaC9022164B3b7a6ab764227dBC38B8D47eef19350636e10dbd792506133379186916001600160a01b03909116906004016154da565b60006040518083038186803b15801561334f57600080fd5b505af4158015613363573d6000803e3d6000fd5b505050505050565b60006116b682614256565b6000808211801561339557506101cc5461339190600261426e565b8211155b6133b15760405162461bcd60e51b815260040161067b906150aa565b604051630257abad60e01b815260009073A8CaC9022164B3b7a6ab764227dBC38B8D47eef190630257abad906133eb908690600401614e5d565b60206040518083038186803b15801561340357600080fd5b505af4158015613417573d6000803e3d6000fd5b505050506040513d601f19601f8201168201806040525081019061343b9190614b80565b60008181526101cb602052604080822090516337b1b00560e21b81529293509173A8CaC9022164B3b7a6ab764227dBC38B8D47eef19063dec6c01490613485908890600401614e5d565b60206040518083038186803b15801561349d57600080fd5b505af41580156134b1573d6000803e3d6000fd5b505050506040513d601f19601f820116820180604052508101906134d59190614a84565b6134e257816005016134e4565b815b95945050505050565b6101c5546000908190613508906001600160a01b031661336b565b6001600160a01b031663430c208133866040518363ffffffff1660e01b8152600401613535929190614cf2565b60206040518083038186803b15801561354d57600080fd5b505afa158015613561573d6000803e3d6000fd5b505050506040513d601f19601f820116820180604052508101906135859190614a84565b80156135955750613595336129f8565b6135b15760405162461bcd60e51b815260040161067b906152df565b600083116135d15760405162461bcd60e51b815260040161067b90615220565b60008073A8CaC9022164B3b7a6ab764227dBC38B8D47eef163f7fc24b289896040518363ffffffff1660e01b815260040161360d929190615492565b604080518083038186803b15801561362457600080fd5b505af4158015613638573d6000803e3d6000fd5b505050506040513d601f19601f8201168201806040525081019061365c9190614b98565b9092509050600061366d83836139d2565b90508086111561368f5760405162461bcd60e51b815260040161067b90615220565b886004015442116136b25760405162461bcd60e51b815260040161067b9061508e565b6000808a60040154600014156137535760018b01546136d19089612a90565b60018c0155506101c55487906136ef906001600160a01b031661336b565b6001600160a01b03166366cbb0378a836040518363ffffffff1660e01b815260040161371c929190614e80565b600060405180830381600087803b15801561373657600080fd5b505af115801561374a573d6000803e3d6000fd5b505050506137e8565b61375d8589614240565b915061376d846132238a85612a90565b6101c554909150613786906001600160a01b031661336b565b6001600160a01b031663b81922058a83856040518463ffffffff1660e01b81526004016137b59392919061550c565b600060405180830381600087803b1580156137cf57600080fd5b505af11580156137e3573d6000803e3d6000fd5b505050505b61380d30336137f784866139d2565b6101c554610b86906001600160a01b0316612e6c565b888a60200151336001600160a01b03167f92f2787b755dae547f1701582fe74c7abf277ec14db316dd01abc69cacf7a259858560405161384e929190614e80565b60405180910390a4909a909950975050505050505050565b60006001600160a01b03821663b93f9b0a6005612f1a565b60006101cc54600014806123885750506101cc546000190160009081526101cb6020526040902060040154151590565b60056101cc54106138d15760405162461bcd60e51b815260040161067b90615001565b6101cc54604051632788c17160e21b815273A8CaC9022164B3b7a6ab764227dBC38B8D47eef191639e2305c49161390e916101cb91600401614e80565b60006040518083038186803b15801561392657600080fd5b505af415801561393a573d6000803e3d6000fd5b50506101cc5461394e9250905060016139d2565b6101cc556101ca55565b60975460ff161561397b5760405162461bcd60e51b815260040161067b90615164565b6097805460ff191660011790557f62e78cea01bee320cd4e420270b5ea74000d11b0c9f74754ebdbfc544b05a25861305f612e99565b60006116b383836142a8565b60006116b3836001600160a01b0384166142ed565b6000828201838110156116b35760405162461bcd60e51b815260040161067b90615057565b60006001600160a01b03821663b93f9b0a6014612f1a565b613a1761387e565b613a335760405162461bcd60e51b815260040161067b906152c3565b6101c35460408051630735c92b60e21b815290516000926001600160a01b031691631cd724ac916004808301926020929190829003018186803b158015613a7957600080fd5b505afa158015613a8d573d6000803e3d6000fd5b505050506040513d601f19601f82011682018060405250810190613ab19190614b80565b905060008060006101c360009054906101000a90046001600160a01b03166001600160a01b031663a6a25e886040518163ffffffff1660e01b8152600401606060405180830381600087803b158015613b0957600080fd5b505af1158015613b1d573d6000803e3d6000fd5b505050506040513d601f19601f82011682018060405250810190613b419190614bbb565b925092509250613bd8846101c360009054906101000a90046001600160a01b03166001600160a01b0316631cd724ac6040518163ffffffff1660e01b815260040160206040518083038186803b158015613b9a57600080fd5b505afa158015613bae573d6000803e3d6000fd5b505050506040513d601f19601f82011682018060405250810190613bd29190614b80565b90612a90565b935060606101cc5467ffffffffffffffff81118015613bf657600080fd5b50604051908082528060200260200182016040528015613c20578160200160208202803683370190505b50905060005b6101cc54811015613dc95760008181526101cb6020526040808220600b01546101c95491516333b8e3b960e21b815273A8CaC9022164B3b7a6ab764227dBC38B8D47eef19263cee38ee492613c80928c929060040161550c565b60206040518083038186803b158015613c9857600080fd5b505af4158015613cac573d6000803e3d6000fd5b505050506040513d601f19601f82011682018060405250810190613cd09190614b80565b60008381526101cb602052604090819020600b01546101c95491516333b8e3b960e21b815292935073A8CaC9022164B3b7a6ab764227dBC38B8D47eef19263cee38ee492613d2592899290919060040161550c565b60206040518083038186803b158015613d3d57600080fd5b505af4158015613d51573d6000803e3d6000fd5b505050506040513d601f19601f82011682018060405250810190613d759190614b80565b838381518110613d8157fe5b60209081029190910181019190915260008381526101cb90915260409020600a0154613dad90826139d2565b60008381526101cb60205260409020600a015550600101613c26565b506000831180613dd95750600082115b15613fd5576101c354600090613e02906001600160a01b031685613dfd86896139d2565b614305565b905060005b6101cc54811015613e9a57613e4f838281518110613e2157fe5b60200260200101516101cb6000848152602001908152602001600020600b0154612a9090919063ffffffff16565b60008281526101cb60205260409020600b01558251613e8e90849083908110613e7457fe5b60200260200101516101c954612a9090919063ffffffff16565b6101c955600101613e07565b506101c554613eb1906001600160a01b0316614479565b6001600160a01b03166328fc33c7856040518263ffffffff1660e01b8152600401613edc9190614e5d565b600060405180830381600087803b158015613ef657600080fd5b505af1158015613f0a573d6000803e3d6000fd5b50506101c35460408051637df1f1b960e01b815290513094506001600160a01b039092169250637df1f1b9916004808301926020929190829003018186803b158015613f5557600080fd5b505afa158015613f69573d6000803e3d6000fd5b505050506040513d601f19601f82011682018060405250810190613f8d91906148ab565b6001600160a01b03167fd1055dc2c2a003a83dfacb1c38db776eab5ef89d77a8f05a3512e8cf57f953ce86868986604051613fcb94939291906154f1565b60405180910390a3505b60405130907fa2380b088ee4df06f20f2bbd1971331d0a68504a9f120cc3b029aeb934f87b3c90600090a25050505050565b60006001600160a01b03821663b93f9b0a6007612f1a565b60006116b682614484565b60006116b68261449c565b60006116b6826144b4565b600081848411156140645760405162461bcd60e51b815260040161067b9190614ecd565b505050900390565b60006116b6826144b8565b6001600160a01b03831661409d5760405162461bcd60e51b815260040161067b90615039565b6040516323b872dd60e01b81526000906001600160a01b038716906323b872dd906140d090889088908890600401614d5b565b602060405180830381600087803b1580156140ea57600080fd5b505af11580156140fe573d6000803e3d6000fd5b505050506040513d601f19601f820116820180604052508101906141229190614a84565b905081816141435760405162461bcd60e51b815260040161067b9190614ecd565b50505050505050565b60006116b3836001600160a01b0384166144d0565b6001600160a01b0383166141875760405162461bcd60e51b815260040161067b90615039565b60405163a9059cbb60e01b81526000906001600160a01b0386169063a9059cbb906141b89087908790600401614cf2565b602060405180830381600087803b1580156141d257600080fd5b505af11580156141e6573d6000803e3d6000fd5b505050506040513d601f19601f8201168201806040525081019061420a9190614a84565b905081816133635760405162461bcd60e51b815260040161067b9190614ecd565b60006116b3836001600160a01b03841661451a565b600081831061424f57816116b3565b5090919050565b60006001600160a01b03821663b93f9b0a600c612f1a565b60008261427d575060006116b6565b8282028284828161428a57fe5b04146116b35760405162461bcd60e51b815260040161067b906151df565b815460009082106142cb5760405162461bcd60e51b815260040161067b90614f20565b8260000182815481106142da57fe5b9060005260206000200154905092915050565b60009081526001919091016020526040902054151590565b60008073A8CaC9022164B3b7a6ab764227dBC38B8D47eef16373665c3c6101cb6101cc54878761435e6143566101c560009054906101000a90046001600160a01b03166001600160a01b03166145e0565b606490614660565b6101c9546101c3546101c6546040516001600160e01b031960e08b901b16815261439b989796959493926001600160a01b03169190600401614e8e565b60206040518083038186803b1580156143b357600080fd5b505af41580156143c7573d6000803e3d6000fd5b505050506040513d601f19601f820116820180604052508101906143eb9190614b80565b90506143fc85306137f786886139d2565b6101c554614430903090614418906001600160a01b0316612f06565b6101c5548490610b86906001600160a01b0316612e6c565b306001600160a01b03167ff3583f178a8d4f8888c3683f8e948faf9b6eb701c4f1fab265a6ecad1a1ddebb826040516144699190614e5d565b60405180910390a2949350505050565b60006116b6826139f7565b60006001600160a01b03821663b93f9b0a6013612f1a565b60006001600160a01b03821663b93f9b0a600e612f1a565b5490565b60006001600160a01b03821663b93f9b0a6002612f1a565b60006144dc83836142ed565b614512575081546001818101845560008481526020808220909301849055845484825282860190935260409020919091556116b6565b5060006116b6565b600081815260018301602052604081205480156145d6578354600019808301919081019060009087908390811061454d57fe5b906000526020600020015490508087600001848154811061456a57fe5b60009182526020808320909101929092558281526001898101909252604090209084019055865487908061459a57fe5b600190038181906000526020600020016000905590558660010160008781526020019081526020016000206000905560019450505050506116b6565b60009150506116b6565b604051631f8ac6cb60e31b81526000906001600160a01b0383169063fc5636589061461090600390600401614e5d565b60206040518083038186803b15801561462857600080fd5b505afa15801561463c573d6000803e3d6000fd5b505050506040513d601f19601f820116820180604052508101906116b69190614b80565b60006116b383836040518060400160405280601a81526020017f536166654d6174683a206469766973696f6e206279207a65726f000000000000815250600081836146be5760405162461bcd60e51b815260040161067b9190614ecd565b5060008385816146ca57fe5b0495945050505050565b60405180606001604052806003906020820280368337509192915050565b6040518060a0016040528060006001600160a01b03168152602001600081526020016000815260200160008152602001600081525090565b604051806080016040528061473d614802565b815260200161474a614802565b815260200160008152602001600081525090565b60405180602001604052806001906020820280368337509192915050565b8280548282559060005260206000209081019282156147b7579160200282015b828111156147b757825182559160200191906001019061479c565b506147c3929150614831565b5090565b8280548282559060005260206000209081019282156147b7579160200282015b828111156147b75782358255916020019190600101906147e7565b6040518060a0016040528060008152602001600081526020016000815260200160008152602001600081525090565b5b808211156147c35760008155600101614832565b60008083601f840112614857578182fd5b50813567ffffffffffffffff81111561486e578182fd5b602083019150836020808302850101111561488857600080fd5b9250929050565b6000602082840312156148a0578081fd5b81356116b381615522565b6000602082840312156148bc578081fd5b81516116b381615522565b6000806000806000806000806000806000806101608d8f0312156148e9578788fd5b6148f38d35615522565b8c359b5061490460208e0135615522565b60208d01359a5060408d0135995060608d0135985060808d0135975060a08d0135965060c08d0135955060e08d013594506101008d013593506101208d0135925067ffffffffffffffff6101408e0135111561495e578081fd5b61496f8e6101408f01358f01614846565b81935080925050509295989b509295989b509295989b565b600080600080600080600060e0888a0312156149a1578283fd5b87356149ac81615522565b9960208901359950604089013598606081013598506080810135975060a0810135965060c00135945092505050565b600080602083850312156149ed578182fd5b823567ffffffffffffffff811115614a03578283fd5b614a0f85828601614846565b90969095509350505050565b60008060008060408587031215614a30578384fd5b843567ffffffffffffffff80821115614a47578586fd5b614a5388838901614846565b90965094506020870135915080821115614a6b578384fd5b50614a7887828801614846565b95989497509550505050565b600060208284031215614a95578081fd5b815180151581146116b3578182fd5b600060208284031215614ab5578081fd5b5035919050565b60008060408385031215614ace578182fd5b823591506020830135614ae081615522565b809150509250929050565b60008060408385031215614afd578182fd5b50508035926020909101359150565b600060a08284031215614b1d578081fd5b60405160a0810181811067ffffffffffffffff82111715614b3c578283fd5b6040528251614b4a81615522565b80825250602083015160208201526040830151604082015260608301516060820152608083015160808201528091505092915050565b600060208284031215614b91578081fd5b5051919050565b60008060408385031215614baa578182fd5b505080516020909101519092909150565b600080600060608486031215614bcf578081fd5b8351925060208401519150604084015190509250925092565b60008060008060008060c08789031215614c00578384fd5b863595506020870135945060408701359350606087013560ff81168114614c25578283fd5b9598949750929560808101359460a0909101359350915050565b80518252602081015160208301526040810151604083015260608101516060830152608081015160808301525050565b8054825260018101546020830152600281015460408301526003810154606083015260040154608090910152565b6001600160a01b0391909116815260200190565b6001600160a01b0397881681529590961660208601526040850193909352606084019190915260ff16608083015260a082015260c081019190915260e00190565b6001600160a01b03929092168252602082015260400190565b6001600160a01b03998a16815297891660208901529590971660408701526060860193909352608085019190915260a084015260c083015260e08201929092526101008101919091526101200190565b6001600160a01b039384168152919092166020820152604081019190915260600190565b6001600160a01b0383168152604060208083018290528354918301829052600084815281812090929091906060850190845b81811015614dcd57845483526001948501949284019201614db1565b5090979650505050505050565b6020808252825182820181905260009190848201906040850190845b81811015614e1257835183529284019291840191600101614df6565b50909695505050505050565b60608101818360005b6003811015614e4957815160ff16835260209283019290910190600101614e27565b50505092915050565b901515815260200190565b90815260200190565b6001600160a01b0392831681529116602082015260400190565b918252602082015260400190565b978852602088019690965260408701949094526060860192909252608085015260a08401526001600160a01b031660c083015260e08201526101000190565b6000602080835283518082850152825b81811015614ef957858101830151858201604001528201614edd565b81811115614f0a5783604083870101525b50601f01601f1916929092016040019392505050565b60208082526022908201527f456e756d657261626c655365743a20696e646578206f7574206f6620626f756e604082015261647360f01b606082015260800190565b6020808252600890820152672737ba1037b832b760c11b604082015260600190565b6020808252602f908201527f416363657373436f6e74726f6c3a2073656e646572206d75737420626520616e60408201526e0818591b5a5b881d1bc819dc985b9d608a1b606082015260800190565b60208082526014908201527314185d5cd8589b194e881b9bdd081c185d5cd95960621b604082015260600190565b60208082526002908201526114d360f21b604082015260600190565b602080825260029082015261044560f41b604082015260600190565b6020808252600490820152635a45524f60e01b604082015260600190565b6020808252601b908201527f536166654d6174683a206164646974696f6e206f766572666c6f770000000000604082015260600190565b602080825260029082015261151360f21b604082015260600190565b6020808252600f908201526e696e76616c6964207472616e63686560881b604082015260600190565b6020808252600b908201526a6861732062616c616e636560a81b604082015260600190565b602080825260029082015261047560f41b604082015260600190565b60208082526030908201527f416363657373436f6e74726f6c3a2073656e646572206d75737420626520616e60408201526f2061646d696e20746f207265766f6b6560801b606082015260800190565b60208082526010908201526f14185d5cd8589b194e881c185d5cd95960821b604082015260600190565b60208082526002908201526124a360f11b604082015260600190565b6020808252818101527f4f776e65722063616e6e6f7420626520746865207a65726f2061646472657373604082015260600190565b60208082526021908201527f536166654d6174683a206d756c7469706c69636174696f6e206f766572666c6f6040820152607760f81b606082015260800190565b602080825260029082015261494160f01b604082015260600190565b60208082526002908201526104c560f41b604082015260600190565b6020808252602e908201527f436f6e747261637420696e7374616e63652068617320616c726561647920626560408201526d195b881a5b9a5d1a585b1a5e995960921b606082015260800190565b6020808252600390820152622622a760e91b604082015260600190565b602080825260029082015261139360f21b604082015260600190565b6020808252600290820152614e4160f01b604082015260600190565b6020808252601f908201527f5265656e7472616e637947756172643a207265656e7472616e742063616c6c00604082015260600190565b6020808252602b908201527f4d75737420686176652061646d696e20726f6c6520746f20706572666f726d2060408201526a3a3434b99030b1ba34b7b760a91b606082015260800190565b6020808252602f908201527f416363657373436f6e74726f6c3a2063616e206f6e6c792072656e6f756e636560408201526e103937b632b9903337b91039b2b63360891b606082015260800190565b82518152602092830151928101929092526001600160a01b0316604082015260600190565b600061018082019050615405828451614c3f565b602083015161541760a0840182614c3f565b5060408301516101408301526060909201516101609091015290565b60a081016116b68284614c3f565b61024081016154508286614c3f565b8360a083015261546360c0830184614c6f565b615474610160830160058501614c6f565b600a830154610200830152600b830154610220830152949350505050565b91825280516001600160a01b0316602080840191909152810151604080840191909152810151606080840191909152810151608080840191909152015160a082015260c00190565b9182526001600160a01b0316602082015260400190565b93845260208401929092526040830152606082015260800190565b9283526020830191909152604082015260600190565b6001600160a01b0381168114610c7d57600080fdfeb19546dff01e856fb3f010c267a7b1c60363cf8a4664e21cc89c26224620214e65d7a28e3265b37a6474929f336521b332c1681b933f6cb9f3376673440d862a956624bfbe09c0e98e645d61eba0de4ce88e8cceabdb00fead208d19a8e1209baf9a8bb3cbd6b84fbccefa71ff73e26e798553c6914585a84886212a46a90279a26469706673582212206b21b841db2211ea873dc4d54cd191c75ba8ea44984c7366e2d6603a9a9ae89964736f6c634300060c0033",
  "deployedBytecode": "0x608060405234801561001057600080fd5b50600436106102ed5760003560e01c80639010d07c11610193578063c290d691116100e4578063dd0ec24111610092578063dd0ec241146105ee578063e2a657f9146105f6578063e2bbb15814610609578063e58378bb1461061c578063e63ab1e914610624578063f36213671461062c578063f94f5a1214610634576102ed565b8063c290d69114610570578063c77d569814610583578063c78bed861461058b578063ca15c873146105a0578063cf09e0d0146105b3578063d547741f146105bb578063d972e8ad146105ce576102ed565b8063a8f9c4fe11610141578063a8f9c4fe1461050c578063aa2a7c4c14610514578063ae6c857a14610527578063b6db75a01461053a578063b9317d8614610542578063bf6c87c714610555578063bf8bcee41461055d576102ed565b80639010d07c1461049d57806391d14854146104b05780639d110530146104c3578063a079a4dd146104d6578063a217fddf146104e9578063a6a25e88146104f1578063a8deac0e146104f9576102ed565b80634026478e1161024d5780635c975abb116101fb5780635c975abb146104425780635eb185a21461044a57806378bcd6041461045257806379502c55146104655780637976323d1461046d57806380b65431146104755780638456cb5914610495576102ed565b80634026478e146103ce578063441a3e70146103d657806344c08f23146103f757806347195e13146103ff5780634d02fe6f14610414578063515bc32314610427578063526d81f61461043a576102ed565b8063248a9ca3116102aa578063248a9ca31461036a57806327ea6f2b1461037d5780632ae754be146103905780632f2ff15d146103985780633403c2fc146103ab57806336568abe146103b35780633f4ba83a146103c6576102ed565b80630881806c146102f2578063097616a3146102fc5780630cfb14b01461030f5780630d8e6e2c1461032d57806317f76941146103425780631fe032be14610357575b600080fd5b6102fa610647565b005b6102fa61030a36600461488f565b6106c1565b6103176107f1565b6040516103249190614e5d565b60405180910390f35b6103356107f8565b6040516103249190614e1e565b61034a610815565b6040516103249190614e52565b6102fa610365366004614987565b61081f565b610317610378366004614aa4565b610be0565b6102fa61038b366004614aa4565b610bf5565b610317610c80565b6102fa6103a6366004614abc565b610c92565b6102fa610cd6565b6102fa6103c1366004614abc565b610ed2565b6102fa610f14565b6102fa610f52565b6103e96103e4366004614aeb565b610fb1565b604051610324929190614e80565b6103176110d9565b6104076110de565b6040516103249190614c9d565b6103e9610422366004614aa4565b6110ee565b610317610435366004614be8565b61124b565b6102fa6112e2565b61034a61136c565b610317611375565b6102fa610460366004614aa4565b61137c565b610407611592565b6103176115a2565b610488610483366004614aa4565b6115a9565b60405161032491906153f1565b6102fa61165d565b6104076104ab366004614aeb565b61169b565b61034a6104be366004614abc565b6116bc565b6102fa6104d1366004614a1b565b6116d4565b6102fa6104e4366004614aa4565b611736565b610317611d7d565b6102fa611d82565b6102fa6105073660046148c7565b611dad565b6102fa61210c565b6103e9610522366004614aa4565b61216b565b6102fa610535366004614aa4565b612332565b61034a61236c565b6102fa6105503660046149db565b61238d565b6102fa612451565b6102fa61056b366004614aa4565b6124ad565b6102fa61057e366004614aa4565b612502565b610317612573565b61059361257a565b6040516103249190614dda565b6103176105ae366004614aa4565b6125d3565b6103176125ea565b6102fa6105c9366004614abc565b6125f1565b6105e16105dc366004614aa4565b61262b565b6040516103249190615433565b61031761267b565b610317610604366004614aa4565b6126ba565b610317610617366004614aeb565b6126d9565b6103176129c2565b6103176129d4565b6103176129e6565b61034a61064236600461488f565b6129f8565b61065f600080516020615598833981519152336116bc565b6106845760405162461bcd60e51b815260040161067b906152df565b60405180910390fd5b60975460ff16156106a75760405162461bcd60e51b815260040161067b90615164565b6101cc546106bf906106ba906001612a90565b612ad2565b565b600054610100900460ff16806106da57506106da612b98565b806106e8575060005460ff16155b6107045760405162461bcd60e51b815260040161067b90615258565b600054610100900460ff1615801561072f576000805460ff1961ff0019909116610100171660011790555b6001600160a01b0382166107555760405162461bcd60e51b815260040161067b906151aa565b61075d612b9e565b610765612c1f565b61076d612cab565b61078560008051602061553883398151915283610ccc565b61079d60008051602061555883398151915283610ccc565b6107c3600080516020615558833981519152600080516020615538833981519152612d3a565b6107db60008051602061553883398151915280612d3a565b80156107ed576000805461ff00191690555b5050565b6101c95481565b6108006146d4565b60006040820181905260016020830152815290565b6101c75460ff1681565b61082761236c565b6108435760405162461bcd60e51b815260040161067b90615332565b6001600160a01b0387161580159061085a57508315155b801561086557508215155b6108815760405162461bcd60e51b815260040161067b90615039565b6101c3546001600160a01b031661089d88888888888888612d4f565b6101c3546040516312804a4d60e11b815273__$07e8ed413e81d51a5dfb2d8e1b1fa75af5$__91632500949a916108e49185916001600160a01b0390911690600401614e66565b60006040518083038186803b1580156108fc57600080fd5b505af4158015610910573d6000803e3d6000fd5b50506040516303bafb3960e11b815273__$07e8ed413e81d51a5dfb2d8e1b1fa75af5$__9250630775f672915061094b908490600401614c9d565b60006040518083038186803b15801561096357600080fd5b505af4158015610977573d6000803e3d6000fd5b505050506000816001600160a01b0316637df1f1b96040518163ffffffff1660e01b815260040160206040518083038186803b1580156109b657600080fd5b505afa1580156109ca573d6000803e3d6000fd5b505050506040513d601f19601f820116820180604052508101906109ee91906148ab565b905060006101c360009054906101000a90046001600160a01b03166001600160a01b0316637df1f1b96040518163ffffffff1660e01b815260040160206040518083038186803b158015610a4157600080fd5b505afa158015610a55573d6000803e3d6000fd5b505050506040513d601f19601f82011682018060405250810190610a7991906148ab565b9050806001600160a01b0316826001600160a01b031614610ac457610aac600080516020615598833981519152836125f1565b610ac460008051602061559883398151915282610c92565b6101c554600090610add906001600160a01b0316612e6c565b6001600160a01b03166370a08231856040518263ffffffff1660e01b8152600401610b089190614c9d565b60206040518083038186803b158015610b2057600080fd5b505afa158015610b34573d6000803e3d6000fd5b505050506040513d601f19601f82011682018060405250810190610b589190614b80565b90508015610b97576101c3546101c554610b979186916001600160a01b03918216918591610b869116612e6c565b6001600160a01b0316929190612e77565b6101c3546040516001600160a01b03918216918616907f987cdba0cba67c68d2c8aba6a4ba6545565eccfb3e2e5ff39579ffd94acaf9bb90600090a35050505050505050505050565b60009081526065602052604090206002015490565b610bfd61236c565b610c195760405162461bcd60e51b815260040161067b90615332565b6101c3546040516327ea6f2b60e01b81526001600160a01b03909116906327ea6f2b90610c4a908490600401614e5d565b600060405180830381600087803b158015610c6457600080fd5b505af1158015610c78573d6000803e3d6000fd5b505050505b50565b60008051602061557883398151915281565b600082815260656020526040902060020154610cb0906104be612e99565b610ccc5760405162461bcd60e51b815260040161067b90614f84565b6107ed8282612e9d565b610cde61236c565b610cfa5760405162461bcd60e51b815260040161067b90615332565b610d0261136c565b610d0e57610d0e61165d565b6101c554600090610d27906001600160a01b0316612e6c565b6101c554909150600090610d43906001600160a01b0316612f06565b90506000826001600160a01b03166370a08231306040518263ffffffff1660e01b8152600401610d739190614c9d565b60206040518083038186803b158015610d8b57600080fd5b505afa158015610d9f573d6000803e3d6000fd5b505050506040513d601f19601f82011682018060405250810190610dc39190614b80565b90508015610df9576101c554610df99083908390610de9906001600160a01b0316612e6c565b6001600160a01b03169190612f86565b6101c3546040516370a0823160e01b81526000916001600160a01b03808716926370a0823192610e2d921690600401614c9d565b60206040518083038186803b158015610e4557600080fd5b505afa158015610e59573d6000803e3d6000fd5b505050506040513d601f19601f82011682018060405250810190610e7d9190614b80565b90508015610ea1576101c354610ea1906001600160a01b0386811691168584612e77565b60405130907f1fc1e771236d2e93bb9541cdcb4654ba0fd3fb615b48d829b7b365f03998512690600090a250505050565b610eda612e99565b6001600160a01b0316816001600160a01b031614610f0a5760405162461bcd60e51b815260040161067b9061537d565b6107ed8282612fa1565b610f2e6000805160206155588339815191526104be612e99565b610f4a5760405162461bcd60e51b815260040161067b906152df565b6106bf61300a565b610f6a600080516020615598833981519152336116bc565b610f865760405162461bcd60e51b815260040161067b906152df565b60975460ff1615610fa95760405162461bcd60e51b815260040161067b90615164565b6106bf613076565b60c954600090819060ff16610fd85760405162461bcd60e51b815260040161067b906152fb565b60c9805460ff1916905560975460ff16156110055760405162461bcd60e51b815260040161067b90615164565b61100d6146f2565b6101c554611023906001600160a01b031661336b565b6001600160a01b0316638c7a63ae866040518263ffffffff1660e01b815260040161104e9190614e5d565b60a06040518083038186803b15801561106657600080fd5b505afa15801561107a573d6000803e3d6000fd5b505050506040513d601f19601f8201168201806040525081019061109e9190614b0c565b905060006110af8260200151613376565b90506110bd818388886134ed565b93509350505060c9805460ff1916600117905590939092509050565b600290565b6101c3546001600160a01b031681565b6000806110f96146f2565b6101c55461110f906001600160a01b031661336b565b6001600160a01b0316638c7a63ae856040518263ffffffff1660e01b815260040161113a9190614e5d565b60a06040518083038186803b15801561115257600080fd5b505afa158015611166573d6000803e3d6000fd5b505050506040513d601f19601f8201168201806040525081019061118a9190614b0c565b9050600061119b8260200151613376565b9050806004015442111561123c57604051637bfe125960e11b815273__$07e8ed413e81d51a5dfb2d8e1b1fa75af5$__9063f7fc24b2906111e29084908690600401615492565b604080518083038186803b1580156111f957600080fd5b505af415801561120d573d6000803e3d6000fd5b505050506040513d601f19601f820116820180604052508101906112319190614b98565b935093505050611246565b6000809350935050505b915091565b6101c554600090611264906001600160a01b0316613866565b6001600160a01b031663d505accf333089898989896040518863ffffffff1660e01b815260040161129b9796959493929190614cb1565b600060405180830381600087803b1580156112b557600080fd5b505af11580156112c9573d6000803e3d6000fd5b505050506112d787876126d9565b979650505050505050565b600054610100900460ff16806112fb57506112fb612b98565b80611309575060005460ff16155b6113255760405162461bcd60e51b815260040161067b90615258565b600054610100900460ff16158015611350576000805460ff1961ff0019909116610100171660011790555b611358612c1f565b8015610c7d576000805461ff001916905550565b60975460ff1690565b6101ca5481565b611394600080516020615598833981519152336116bc565b6113b05760405162461bcd60e51b815260040161067b906152df565b60975460ff16156113d35760405162461bcd60e51b815260040161067b90615164565b6113db61387e565b6113f75760405162461bcd60e51b815260040161067b906152c3565b6101c360009054906101000a90046001600160a01b03166001600160a01b03166381c17a156040518163ffffffff1660e01b815260040160206040518083038186803b15801561144657600080fd5b505afa15801561145a573d6000803e3d6000fd5b505050506040513d601f19601f8201168201806040525081019061147e9190614a84565b1561149b5760405162461bcd60e51b815260040161067b9061523c565b6101c360009054906101000a90046001600160a01b03166001600160a01b031663457147a76040518163ffffffff1660e01b815260040160206040518083038186803b1580156114ea57600080fd5b505afa1580156114fe573d6000803e3d6000fd5b505050506040513d601f19601f820116820180604052508101906115229190614a84565b61153e5760405162461bcd60e51b815260040161067b906150f8565b611547816138ae565b6101cc5430907f3420dd9c54d6a8846edd2fb39a41c30c31e7bc95b43655dae59f47cc913b60d59061157a906001612a90565b6040516115879190614e5d565b60405180910390a250565b6101c5546001600160a01b031681565b6101cc5481565b6115b161472a565b5060009081526101cb602090815260409182902082516101208101845281546080808301918252600184015460a080850191909152600285015460c0850152600385015460e085015260048501546101008501529183528551918201865260058401548252600684015482860152600784015482870152600884015460608084019190915260098501549183019190915293820152600a82015493810193909352600b01549082015290565b6116776000805160206155588339815191526104be612e99565b6116935760405162461bcd60e51b815260040161067b906152df565b6106bf613958565b60008281526065602052604081206116b390836139b1565b90505b92915050565b60008281526065602052604081206116b390836139bd565b8281146116f35760405162461bcd60e51b815260040161067b906152a6565b60005b81811015610c785761172c85858381811061170d57fe5b9050602002013584848481811061172057fe5b90506020020135610fb1565b50506001016116f6565b61174e600080516020615598833981519152336116bc565b61176a5760405162461bcd60e51b815260040161067b906152df565b60975460ff161561178d5760405162461bcd60e51b815260040161067b90615164565b6101c75460ff16156117b15760405162461bcd60e51b815260040161067b9061501d565b6117b961387e565b6117c5576117c5613076565b6101cc546000190160009081526101cb6020526040808220600781015460068201549251630174b44960e01b815291939273__$07e8ed413e81d51a5dfb2d8e1b1fa75af5$__92630174b44992611820929091600401614e80565b60206040518083038186803b15801561183857600080fd5b505af415801561184c573d6000803e3d6000fd5b505050506040513d601f19601f820116820180604052508101906118709190614b80565b60028301546001840154604051630174b44960e01b815292935061190d9273__$07e8ed413e81d51a5dfb2d8e1b1fa75af5$__92630174b449926118b692600401614e80565b60206040518083038186803b1580156118ce57600080fd5b505af41580156118e2573d6000803e3d6000fd5b505050506040513d601f19601f820116820180604052508101906119069190614b80565b82906139d2565b90508083111561192f5760405162461bcd60e51b815260040161067b9061518e565b6101c35460405163a079a4dd60e01b81526001600160a01b039091169063a079a4dd90611960908690600401614e5d565b600060405180830381600087803b15801561197a57600080fd5b505af115801561198e573d6000803e3d6000fd5b5050505060006119a78483612a9090919063ffffffff16565b600784015460028501546040805160a081018252600588015481526006880154602082015280820184905260088801546060820152600988015460808201529051634ec167e960e11b81529394509192909173__$07e8ed413e81d51a5dfb2d8e1b1fa75af5$__91639d82cfd291611a259187908a90600401615441565b60206040518083038186803b158015611a3d57600080fd5b505af4158015611a51573d6000803e3d6000fd5b505050506040513d601f19601f82011682018060405250810190611a759190614b80565b60078601556040805160a08101825286548152600187015460208201526002870154818301526003870154606082015260048088015460808301529151634ec167e960e11b815273__$07e8ed413e81d51a5dfb2d8e1b1fa75af5$__92639d82cfd292611ae892909188918b9101615441565b60206040518083038186803b158015611b0057600080fd5b505af4158015611b14573d6000803e3d6000fd5b505050506040513d601f19601f82011682018060405250810190611b389190614b80565b6002860155600b850154611b4c90876139d2565b600b8601556101c954611b5f90876139d2565b6101c9556101c35460408051637df1f1b960e01b815290516000926001600160a01b031691637df1f1b9916004808301926020929190829003018186803b158015611ba957600080fd5b505afa158015611bbd573d6000803e3d6000fd5b505050506040513d601f19601f82011682018060405250810190611be191906148ab565b6101c554909150600090611bfd906001600160a01b03166139f7565b9050806001600160a01b031663e149ee8060016101cc54036040518263ffffffff1660e01b8152600401611c319190614e5d565b600060405180830381600087803b158015611c4b57600080fd5b505af1158015611c5f573d6000803e3d6000fd5b50506101c554611c83925030915084908b90610b86906001600160a01b0316612e6c565b816001600160a01b03167f7411b87a3c039bdfd8f3510b21e8bd0736265f53513735e1f4aa7b4f306b728d89604051611cbc9190614e5d565b60405180910390a26005870154600788015430907f42a55d7508b1c40b53524cf7cc2558b0f6bc7c4f262a3e929b65cd48bec2b68790611cfc8882612a90565b60088c0154604051611d159392600090810392916154f1565b60405180910390a38654600288015430907f42a55d7508b1c40b53524cf7cc2558b0f6bc7c4f262a3e929b65cd48bec2b68790611d528782612a90565b60038c0154604051611d6b9392600090810392916154f1565b60405180910390a35050505050505050565b600081565b60975460ff1615611da55760405162461bcd60e51b815260040161067b90615164565b6106bf613a0f565b600054610100900460ff1680611dc65750611dc6612b98565b80611dd4575060005460ff16155b611df05760405162461bcd60e51b815260040161067b90615258565b600054610100900460ff16158015611e1b576000805460ff1961ff0019909116610100171660011790555b6001600160a01b038d1615801590611e3b57506001600160a01b038c1615155b611e575760405162461bcd60e51b815260040161067b90615039565b8c6101c560006101000a8154816001600160a01b0302191690836001600160a01b031602179055506000611ea96101c560009054906101000a90046001600160a01b03166001600160a01b0316614007565b9050611eb4816106c1565b611ebd856138ae565b611ecc8d8c8c8c8c8c8c612d4f565b426101c4556101c68c905582611f9057611ee461475e565b60408051602081019091526101c5548190611f07906001600160a01b031661401f565b6001600160a01b0316639b56d7886040518163ffffffff1660e01b815260040160206040518083038186803b158015611f3f57600080fd5b505afa158015611f53573d6000803e3d6000fd5b505050506040513d601f19601f82011682018060405250810190611f779190614b80565b90529050611f896101c882600161477c565b5050611f9f565b611f9d6101c885856147c7565b505b611fb76000805160206155988339815191528e610ccc565b611fcf60008051602061559883398151915282610ccc565b611ff5600080516020615598833981519152600080516020615538833981519152612d3a565b61201b600080516020615578833981519152600080516020615538833981519152612d3a565b6101c55461204a9060008051602061557883398151915290612045906001600160a01b031661402a565b610ccc565b6101c554612060906001600160a01b0316612e6c565b6001600160a01b031663095ea7b3306000196040518363ffffffff1660e01b815260040161208f929190614cf2565b602060405180830381600087803b1580156120a957600080fd5b505af11580156120bd573d6000803e3d6000fd5b505050506040513d601f19601f820116820180604052508101906120e19190614a84565b6120ea57600080fd5b5080156120fd576000805461ff00191690555b50505050505050505050505050565b61211461236c565b6121305760405162461bcd60e51b815260040161067b90615332565b6101c7805460ff1916600117905560405130907f90d9b09c68a7e1312ce22801552b47265d77db9496383d51374b4058545447d790600090a2565b60c954600090819060ff166121925760405162461bcd60e51b815260040161067b906152fb565b60c9805460ff1916905560975460ff16156121bf5760405162461bcd60e51b815260040161067b90615164565b6121c76146f2565b6101c5546121dd906001600160a01b031661336b565b6001600160a01b0316638c7a63ae856040518263ffffffff1660e01b81526004016122089190614e5d565b60a06040518083038186803b15801561222057600080fd5b505afa158015612234573d6000803e3d6000fd5b505050506040513d601f19601f820116820180604052508101906122589190614b0c565b905060006122698260200151613376565b905060008073__$07e8ed413e81d51a5dfb2d8e1b1fa75af5$__63f7fc24b284866040518363ffffffff1660e01b81526004016122a7929190615492565b604080518083038186803b1580156122be57600080fd5b505af41580156122d2573d6000803e3d6000fd5b505050506040513d601f19601f820116820180604052508101906122f69190614b98565b9092509050600061230783836139d2565b905061231584868a846134ed565b96509650505050505060c9805460ff191660011790559092909150565b61234a600080516020615598833981519152336116bc565b6123665760405162461bcd60e51b815260040161067b906152df565b6101ca55565b60006123886000805160206155388339815191526104be612e99565b905090565b6123a5600080516020615598833981519152336116bc565b6123c15760405162461bcd60e51b815260040161067b906152df565b600080526101cb6020527f7815f96d61162a6533de7fc4199513d6e939c8cbee1627dfd11ec1fe503f0bb9541580156124235750600080526101cb6020527f7815f96d61162a6533de7fc4199513d6e939c8cbee1627dfd11ec1fe503f0bb454155b61243f5760405162461bcd60e51b815260040161067b906150d3565b61244c6101c883836147c7565b505050565b61245961236c565b6124755760405162461bcd60e51b815260040161067b90615332565b6101c7805460ff1916905560405130907f7184039938737267597232635b117c924371ac877d4329f2dfa5ca674c5cc4a590600090a2565b6124b561236c565b6124d15760405162461bcd60e51b815260040161067b90615332565b6101c354604051632fe2f3b960e21b81526001600160a01b039091169063bf8bcee490610c4a908490600401614e5d565b60975460ff16156125255760405162461bcd60e51b815260040161067b90615164565b600081116125455760405162461bcd60e51b815260040161067b90615220565b6101c3546101c55461256b9133916001600160a01b03918216918591610b869116612e6c565b610c7d613a0f565b6101c65481565b60606101c88054806020026020016040519081016040528092919081815260200182805480156125c957602002820191906000526020600020905b8154815260200190600101908083116125b5575b5050505050905090565b60008181526065602052604081206116b690614035565b6101c45481565b60008281526065602052604090206002015461260f906104be612e99565b610f0a5760405162461bcd60e51b815260040161067b90615114565b612633614802565b61263c82613376565b6040805160a081018252825481526001830154602082015260028301549181019190915260038201546060820152600490910154608082015292915050565b60008060005b6101cc548110156126b45760008181526101cb60205260409020600601546126aa9083906139d2565b9150600101612681565b50905090565b6101c881815481106126c857fe5b600091825260209091200154905081565b60c95460009060ff166126fe5760405162461bcd60e51b815260040161067b906152fb565b60c9805460ff1916905560975460ff161561272b5760405162461bcd60e51b815260040161067b90615164565b600061273684613376565b9050806004015460001461275c5760405162461bcd60e51b815260040161067b9061508e565b6000831161277c5760405162461bcd60e51b815260040161067b90615220565b612785336129f8565b6127a15760405162461bcd60e51b815260040161067b906152df565b6101ca5442116127c35760405162461bcd60e51b815260040161067b90614f62565b80546040516337b1b00560e21b815273__$07e8ed413e81d51a5dfb2d8e1b1fa75af5$__9163dec6c014916127fb9190600401614e5d565b60206040518083038186803b15801561281357600080fd5b505af4158015612827573d6000803e3d6000fd5b505050506040513d601f19601f8201168201806040525081019061284b9190614a84565b156128865761286a6000805160206155788339815191526104be612e99565b6128865760405162461bcd60e51b815260040161067b906152df565b600181015461289590846139d2565b60018201556101c5546000906128b3906001600160a01b031661336b565b6001600160a01b0316635be57b6a604051806040016040528087815260200188815250336040518363ffffffff1660e01b81526004016128f49291906153cc565b602060405180830381600087803b15801561290e57600080fd5b505af1158015612922573d6000803e3d6000fd5b505050506040513d601f19601f820116820180604052508101906129469190614b80565b6101c55490915061296990339030908790610b86906001600160a01b0316612e6c565b8085336001600160a01b03167fcb3ef4109dcd006671348924f00aac8398190a5ff283d6e470d74581513e1036876040516129a49190614e5d565b60405180910390a491505060c9805460ff1916600117905592915050565b60008051602061553883398151915281565b60008051602061555883398151915281565b60008051602061559883398151915281565b6101c554600090612a11906001600160a01b031661401f565b6001600160a01b0316631852f200836101c86040518363ffffffff1660e01b8152600401612a40929190614d7f565b60206040518083038186803b158015612a5857600080fd5b505afa158015612a6c573d6000803e3d6000fd5b505050506040513d601f19601f820116820180604052508101906116b69190614a84565b60006116b383836040518060400160405280601e81526020017f536166654d6174683a207375627472616374696f6e206f766572666c6f770000815250614040565b612ada61387e565b158015612af7575060008181526101cb6020526040902060090154155b612b135760405162461bcd60e51b815260040161067b9061508e565b60008181526101cb6020526040908190206101c5549151636e10dbd760e01b815273__$07e8ed413e81d51a5dfb2d8e1b1fa75af5$__92636e10dbd792612b6c926005909101916001600160a01b0316906004016154da565b60006040518083038186803b158015612b8457600080fd5b505af4158015610c78573d6000803e3d6000fd5b303b1590565b600054610100900460ff1680612bb75750612bb7612b98565b80612bc5575060005460ff16155b612be15760405162461bcd60e51b815260040161067b90615258565b600054610100900460ff16158015611358576000805460ff1961ff0019909116610100171660011790558015610c7d576000805461ff001916905550565b600054610100900460ff1680612c385750612c38612b98565b80612c46575060005460ff16155b612c625760405162461bcd60e51b815260040161067b90615258565b600054610100900460ff16158015612c8d576000805460ff1961ff0019909116610100171660011790555b6097805460ff191690558015610c7d576000805461ff001916905550565b600054610100900460ff1680612cc45750612cc4612b98565b80612cd2575060005460ff16155b612cee5760405162461bcd60e51b815260040161067b90615258565b600054610100900460ff16158015612d19576000805460ff1961ff0019909116610100171660011790555b60c9805460ff191660011790558015610c7d576000805461ff001916905550565b60009182526065602052604090912060020155565b6101c554612d65906001600160a01b031661406c565b6001600160a01b03166301b215516040518163ffffffff1660e01b8152600401602060405180830381600087803b158015612d9f57600080fd5b505af1158015612db3573d6000803e3d6000fd5b505050506040513d601f19601f82011682018060405250810190612dd791906148ab565b6101c380546001600160a01b0319166001600160a01b0392831617908190556101c55460405163bb4a250960e01b81529183169263bb4a250992612e31929091169030908c908c908c908c908c908c908c90600401614d0b565b600060405180830381600087803b158015612e4b57600080fd5b505af1158015612e5f573d6000803e3d6000fd5b5050505050505050505050565b60006116b682613866565b612e938484848460405180602001604052806000815250614077565b50505050565b3390565b6000828152606560205260409020612eb5908261414c565b156107ed57612ec2612e99565b6001600160a01b0316816001600160a01b0316837f2f8788117e7eff1d82e926ec794901d17c78024a50270940304540a733656f0d60405160405180910390a45050565b60006001600160a01b03821663b93f9b0a60065b6040518263ffffffff1660e01b8152600401612f369190614e5d565b60206040518083038186803b158015612f4e57600080fd5b505afa158015612f62573d6000803e3d6000fd5b505050506040513d601f19601f820116820180604052508101906116b691906148ab565b61244c83838360405180602001604052806000815250614161565b6000828152606560205260409020612fb9908261422b565b156107ed57612fc6612e99565b6001600160a01b0316816001600160a01b0316837ff6391f5c32d9c69d2a47ea670b442974b53935d1edc7fd64eb21e047a839171b60405160405180910390a45050565b60975460ff1661302c5760405162461bcd60e51b815260040161067b90614fd3565b6097805460ff191690557f5db9ee0a495bf2e6ff9c91a7834c1ba4fdd244a5e8aa4e537bd38aeae4b073aa61305f612e99565b60405161306c9190614c9d565b60405180910390a1565b60006101cb600061309460016101cc54612a9090919063ffffffff16565b8152602001908152602001600020905060008160050160040154116130cb5760405162461bcd60e51b815260040161067b906152c3565b6004810154156130ed5760405162461bcd60e51b815260040161067b9061508e565b6001810154600682015460009161310491906139d2565b6101c3546040805163a4d66daf60e01b815290519293506001600160a01b03909116916327ea6f2b916132289161319c918691869163a4d66daf916004808301926020929190829003018186803b15801561315e57600080fd5b505afa158015613172573d6000803e3d6000fd5b505050506040513d601f19601f820116820180604052508101906131969190614b80565b906139d2565b6101c360009054906101000a90046001600160a01b03166001600160a01b0316631a861d266040518163ffffffff1660e01b815260040160206040518083038186803b1580156131eb57600080fd5b505afa1580156131ff573d6000803e3d6000fd5b505050506040513d601f19601f820116820180604052508101906132239190614b80565b614240565b6040518263ffffffff1660e01b81526004016132449190614e5d565b600060405180830381600087803b15801561325e57600080fd5b505af1158015613272573d6000803e3d6000fd5b50506101c554604051636e10dbd760e01b815273__$07e8ed413e81d51a5dfb2d8e1b1fa75af5$__9350636e10dbd792506132c09160058701916001600160a01b03909116906004016154da565b60006040518083038186803b1580156132d857600080fd5b505af41580156132ec573d6000803e3d6000fd5b50506101c554604051636e10dbd760e01b815273__$07e8ed413e81d51a5dfb2d8e1b1fa75af5$__9350636e10dbd792506133379186916001600160a01b03909116906004016154da565b60006040518083038186803b15801561334f57600080fd5b505af4158015613363573d6000803e3d6000fd5b505050505050565b60006116b682614256565b6000808211801561339557506101cc5461339190600261426e565b8211155b6133b15760405162461bcd60e51b815260040161067b906150aa565b604051630257abad60e01b815260009073__$07e8ed413e81d51a5dfb2d8e1b1fa75af5$__90630257abad906133eb908690600401614e5d565b60206040518083038186803b15801561340357600080fd5b505af4158015613417573d6000803e3d6000fd5b505050506040513d601f19601f8201168201806040525081019061343b9190614b80565b60008181526101cb602052604080822090516337b1b00560e21b81529293509173__$07e8ed413e81d51a5dfb2d8e1b1fa75af5$__9063dec6c01490613485908890600401614e5d565b60206040518083038186803b15801561349d57600080fd5b505af41580156134b1573d6000803e3d6000fd5b505050506040513d601f19601f820116820180604052508101906134d59190614a84565b6134e257816005016134e4565b815b95945050505050565b6101c5546000908190613508906001600160a01b031661336b565b6001600160a01b031663430c208133866040518363ffffffff1660e01b8152600401613535929190614cf2565b60206040518083038186803b15801561354d57600080fd5b505afa158015613561573d6000803e3d6000fd5b505050506040513d601f19601f820116820180604052508101906135859190614a84565b80156135955750613595336129f8565b6135b15760405162461bcd60e51b815260040161067b906152df565b600083116135d15760405162461bcd60e51b815260040161067b90615220565b60008073__$07e8ed413e81d51a5dfb2d8e1b1fa75af5$__63f7fc24b289896040518363ffffffff1660e01b815260040161360d929190615492565b604080518083038186803b15801561362457600080fd5b505af4158015613638573d6000803e3d6000fd5b505050506040513d601f19601f8201168201806040525081019061365c9190614b98565b9092509050600061366d83836139d2565b90508086111561368f5760405162461bcd60e51b815260040161067b90615220565b886004015442116136b25760405162461bcd60e51b815260040161067b9061508e565b6000808a60040154600014156137535760018b01546136d19089612a90565b60018c0155506101c55487906136ef906001600160a01b031661336b565b6001600160a01b03166366cbb0378a836040518363ffffffff1660e01b815260040161371c929190614e80565b600060405180830381600087803b15801561373657600080fd5b505af115801561374a573d6000803e3d6000fd5b505050506137e8565b61375d8589614240565b915061376d846132238a85612a90565b6101c554909150613786906001600160a01b031661336b565b6001600160a01b031663b81922058a83856040518463ffffffff1660e01b81526004016137b59392919061550c565b600060405180830381600087803b1580156137cf57600080fd5b505af11580156137e3573d6000803e3d6000fd5b505050505b61380d30336137f784866139d2565b6101c554610b86906001600160a01b0316612e6c565b888a60200151336001600160a01b03167f92f2787b755dae547f1701582fe74c7abf277ec14db316dd01abc69cacf7a259858560405161384e929190614e80565b60405180910390a4909a909950975050505050505050565b60006001600160a01b03821663b93f9b0a6005612f1a565b60006101cc54600014806123885750506101cc546000190160009081526101cb6020526040902060040154151590565b60056101cc54106138d15760405162461bcd60e51b815260040161067b90615001565b6101cc54604051632788c17160e21b815273__$07e8ed413e81d51a5dfb2d8e1b1fa75af5$__91639e2305c49161390e916101cb91600401614e80565b60006040518083038186803b15801561392657600080fd5b505af415801561393a573d6000803e3d6000fd5b50506101cc5461394e9250905060016139d2565b6101cc556101ca55565b60975460ff161561397b5760405162461bcd60e51b815260040161067b90615164565b6097805460ff191660011790557f62e78cea01bee320cd4e420270b5ea74000d11b0c9f74754ebdbfc544b05a25861305f612e99565b60006116b383836142a8565b60006116b3836001600160a01b0384166142ed565b6000828201838110156116b35760405162461bcd60e51b815260040161067b90615057565b60006001600160a01b03821663b93f9b0a6014612f1a565b613a1761387e565b613a335760405162461bcd60e51b815260040161067b906152c3565b6101c35460408051630735c92b60e21b815290516000926001600160a01b031691631cd724ac916004808301926020929190829003018186803b158015613a7957600080fd5b505afa158015613a8d573d6000803e3d6000fd5b505050506040513d601f19601f82011682018060405250810190613ab19190614b80565b905060008060006101c360009054906101000a90046001600160a01b03166001600160a01b031663a6a25e886040518163ffffffff1660e01b8152600401606060405180830381600087803b158015613b0957600080fd5b505af1158015613b1d573d6000803e3d6000fd5b505050506040513d601f19601f82011682018060405250810190613b419190614bbb565b925092509250613bd8846101c360009054906101000a90046001600160a01b03166001600160a01b0316631cd724ac6040518163ffffffff1660e01b815260040160206040518083038186803b158015613b9a57600080fd5b505afa158015613bae573d6000803e3d6000fd5b505050506040513d601f19601f82011682018060405250810190613bd29190614b80565b90612a90565b935060606101cc5467ffffffffffffffff81118015613bf657600080fd5b50604051908082528060200260200182016040528015613c20578160200160208202803683370190505b50905060005b6101cc54811015613dc95760008181526101cb6020526040808220600b01546101c95491516333b8e3b960e21b815273__$07e8ed413e81d51a5dfb2d8e1b1fa75af5$__9263cee38ee492613c80928c929060040161550c565b60206040518083038186803b158015613c9857600080fd5b505af4158015613cac573d6000803e3d6000fd5b505050506040513d601f19601f82011682018060405250810190613cd09190614b80565b60008381526101cb602052604090819020600b01546101c95491516333b8e3b960e21b815292935073__$07e8ed413e81d51a5dfb2d8e1b1fa75af5$__9263cee38ee492613d2592899290919060040161550c565b60206040518083038186803b158015613d3d57600080fd5b505af4158015613d51573d6000803e3d6000fd5b505050506040513d601f19601f82011682018060405250810190613d759190614b80565b838381518110613d8157fe5b60209081029190910181019190915260008381526101cb90915260409020600a0154613dad90826139d2565b60008381526101cb60205260409020600a015550600101613c26565b506000831180613dd95750600082115b15613fd5576101c354600090613e02906001600160a01b031685613dfd86896139d2565b614305565b905060005b6101cc54811015613e9a57613e4f838281518110613e2157fe5b60200260200101516101cb6000848152602001908152602001600020600b0154612a9090919063ffffffff16565b60008281526101cb60205260409020600b01558251613e8e90849083908110613e7457fe5b60200260200101516101c954612a9090919063ffffffff16565b6101c955600101613e07565b506101c554613eb1906001600160a01b0316614479565b6001600160a01b03166328fc33c7856040518263ffffffff1660e01b8152600401613edc9190614e5d565b600060405180830381600087803b158015613ef657600080fd5b505af1158015613f0a573d6000803e3d6000fd5b50506101c35460408051637df1f1b960e01b815290513094506001600160a01b039092169250637df1f1b9916004808301926020929190829003018186803b158015613f5557600080fd5b505afa158015613f69573d6000803e3d6000fd5b505050506040513d601f19601f82011682018060405250810190613f8d91906148ab565b6001600160a01b03167fd1055dc2c2a003a83dfacb1c38db776eab5ef89d77a8f05a3512e8cf57f953ce86868986604051613fcb94939291906154f1565b60405180910390a3505b60405130907fa2380b088ee4df06f20f2bbd1971331d0a68504a9f120cc3b029aeb934f87b3c90600090a25050505050565b60006001600160a01b03821663b93f9b0a6007612f1a565b60006116b682614484565b60006116b68261449c565b60006116b6826144b4565b600081848411156140645760405162461bcd60e51b815260040161067b9190614ecd565b505050900390565b60006116b6826144b8565b6001600160a01b03831661409d5760405162461bcd60e51b815260040161067b90615039565b6040516323b872dd60e01b81526000906001600160a01b038716906323b872dd906140d090889088908890600401614d5b565b602060405180830381600087803b1580156140ea57600080fd5b505af11580156140fe573d6000803e3d6000fd5b505050506040513d601f19601f820116820180604052508101906141229190614a84565b905081816141435760405162461bcd60e51b815260040161067b9190614ecd565b50505050505050565b60006116b3836001600160a01b0384166144d0565b6001600160a01b0383166141875760405162461bcd60e51b815260040161067b90615039565b60405163a9059cbb60e01b81526000906001600160a01b0386169063a9059cbb906141b89087908790600401614cf2565b602060405180830381600087803b1580156141d257600080fd5b505af11580156141e6573d6000803e3d6000fd5b505050506040513d601f19601f8201168201806040525081019061420a9190614a84565b905081816133635760405162461bcd60e51b815260040161067b9190614ecd565b60006116b3836001600160a01b03841661451a565b600081831061424f57816116b3565b5090919050565b60006001600160a01b03821663b93f9b0a600c612f1a565b60008261427d575060006116b6565b8282028284828161428a57fe5b04146116b35760405162461bcd60e51b815260040161067b906151df565b815460009082106142cb5760405162461bcd60e51b815260040161067b90614f20565b8260000182815481106142da57fe5b9060005260206000200154905092915050565b60009081526001919091016020526040902054151590565b60008073__$07e8ed413e81d51a5dfb2d8e1b1fa75af5$__6373665c3c6101cb6101cc54878761435e6143566101c560009054906101000a90046001600160a01b03166001600160a01b03166145e0565b606490614660565b6101c9546101c3546101c6546040516001600160e01b031960e08b901b16815261439b989796959493926001600160a01b03169190600401614e8e565b60206040518083038186803b1580156143b357600080fd5b505af41580156143c7573d6000803e3d6000fd5b505050506040513d601f19601f820116820180604052508101906143eb9190614b80565b90506143fc85306137f786886139d2565b6101c554614430903090614418906001600160a01b0316612f06565b6101c5548490610b86906001600160a01b0316612e6c565b306001600160a01b03167ff3583f178a8d4f8888c3683f8e948faf9b6eb701c4f1fab265a6ecad1a1ddebb826040516144699190614e5d565b60405180910390a2949350505050565b60006116b6826139f7565b60006001600160a01b03821663b93f9b0a6013612f1a565b60006001600160a01b03821663b93f9b0a600e612f1a565b5490565b60006001600160a01b03821663b93f9b0a6002612f1a565b60006144dc83836142ed565b614512575081546001818101845560008481526020808220909301849055845484825282860190935260409020919091556116b6565b5060006116b6565b600081815260018301602052604081205480156145d6578354600019808301919081019060009087908390811061454d57fe5b906000526020600020015490508087600001848154811061456a57fe5b60009182526020808320909101929092558281526001898101909252604090209084019055865487908061459a57fe5b600190038181906000526020600020016000905590558660010160008781526020019081526020016000206000905560019450505050506116b6565b60009150506116b6565b604051631f8ac6cb60e31b81526000906001600160a01b0383169063fc5636589061461090600390600401614e5d565b60206040518083038186803b15801561462857600080fd5b505afa15801561463c573d6000803e3d6000fd5b505050506040513d601f19601f820116820180604052508101906116b69190614b80565b60006116b383836040518060400160405280601a81526020017f536166654d6174683a206469766973696f6e206279207a65726f000000000000815250600081836146be5760405162461bcd60e51b815260040161067b9190614ecd565b5060008385816146ca57fe5b0495945050505050565b60405180606001604052806003906020820280368337509192915050565b6040518060a0016040528060006001600160a01b03168152602001600081526020016000815260200160008152602001600081525090565b604051806080016040528061473d614802565b815260200161474a614802565b815260200160008152602001600081525090565b60405180602001604052806001906020820280368337509192915050565b8280548282559060005260206000209081019282156147b7579160200282015b828111156147b757825182559160200191906001019061479c565b506147c3929150614831565b5090565b8280548282559060005260206000209081019282156147b7579160200282015b828111156147b75782358255916020019190600101906147e7565b6040518060a0016040528060008152602001600081526020016000815260200160008152602001600081525090565b5b808211156147c35760008155600101614832565b60008083601f840112614857578182fd5b50813567ffffffffffffffff81111561486e578182fd5b602083019150836020808302850101111561488857600080fd5b9250929050565b6000602082840312156148a0578081fd5b81356116b381615522565b6000602082840312156148bc578081fd5b81516116b381615522565b6000806000806000806000806000806000806101608d8f0312156148e9578788fd5b6148f38d35615522565b8c359b5061490460208e0135615522565b60208d01359a5060408d0135995060608d0135985060808d0135975060a08d0135965060c08d0135955060e08d013594506101008d013593506101208d0135925067ffffffffffffffff6101408e0135111561495e578081fd5b61496f8e6101408f01358f01614846565b81935080925050509295989b509295989b509295989b565b600080600080600080600060e0888a0312156149a1578283fd5b87356149ac81615522565b9960208901359950604089013598606081013598506080810135975060a0810135965060c00135945092505050565b600080602083850312156149ed578182fd5b823567ffffffffffffffff811115614a03578283fd5b614a0f85828601614846565b90969095509350505050565b60008060008060408587031215614a30578384fd5b843567ffffffffffffffff80821115614a47578586fd5b614a5388838901614846565b90965094506020870135915080821115614a6b578384fd5b50614a7887828801614846565b95989497509550505050565b600060208284031215614a95578081fd5b815180151581146116b3578182fd5b600060208284031215614ab5578081fd5b5035919050565b60008060408385031215614ace578182fd5b823591506020830135614ae081615522565b809150509250929050565b60008060408385031215614afd578182fd5b50508035926020909101359150565b600060a08284031215614b1d578081fd5b60405160a0810181811067ffffffffffffffff82111715614b3c578283fd5b6040528251614b4a81615522565b80825250602083015160208201526040830151604082015260608301516060820152608083015160808201528091505092915050565b600060208284031215614b91578081fd5b5051919050565b60008060408385031215614baa578182fd5b505080516020909101519092909150565b600080600060608486031215614bcf578081fd5b8351925060208401519150604084015190509250925092565b60008060008060008060c08789031215614c00578384fd5b863595506020870135945060408701359350606087013560ff81168114614c25578283fd5b9598949750929560808101359460a0909101359350915050565b80518252602081015160208301526040810151604083015260608101516060830152608081015160808301525050565b8054825260018101546020830152600281015460408301526003810154606083015260040154608090910152565b6001600160a01b0391909116815260200190565b6001600160a01b0397881681529590961660208601526040850193909352606084019190915260ff16608083015260a082015260c081019190915260e00190565b6001600160a01b03929092168252602082015260400190565b6001600160a01b03998a16815297891660208901529590971660408701526060860193909352608085019190915260a084015260c083015260e08201929092526101008101919091526101200190565b6001600160a01b039384168152919092166020820152604081019190915260600190565b6001600160a01b0383168152604060208083018290528354918301829052600084815281812090929091906060850190845b81811015614dcd57845483526001948501949284019201614db1565b5090979650505050505050565b6020808252825182820181905260009190848201906040850190845b81811015614e1257835183529284019291840191600101614df6565b50909695505050505050565b60608101818360005b6003811015614e4957815160ff16835260209283019290910190600101614e27565b50505092915050565b901515815260200190565b90815260200190565b6001600160a01b0392831681529116602082015260400190565b918252602082015260400190565b978852602088019690965260408701949094526060860192909252608085015260a08401526001600160a01b031660c083015260e08201526101000190565b6000602080835283518082850152825b81811015614ef957858101830151858201604001528201614edd565b81811115614f0a5783604083870101525b50601f01601f1916929092016040019392505050565b60208082526022908201527f456e756d657261626c655365743a20696e646578206f7574206f6620626f756e604082015261647360f01b606082015260800190565b6020808252600890820152672737ba1037b832b760c11b604082015260600190565b6020808252602f908201527f416363657373436f6e74726f6c3a2073656e646572206d75737420626520616e60408201526e0818591b5a5b881d1bc819dc985b9d608a1b606082015260800190565b60208082526014908201527314185d5cd8589b194e881b9bdd081c185d5cd95960621b604082015260600190565b60208082526002908201526114d360f21b604082015260600190565b602080825260029082015261044560f41b604082015260600190565b6020808252600490820152635a45524f60e01b604082015260600190565b6020808252601b908201527f536166654d6174683a206164646974696f6e206f766572666c6f770000000000604082015260600190565b602080825260029082015261151360f21b604082015260600190565b6020808252600f908201526e696e76616c6964207472616e63686560881b604082015260600190565b6020808252600b908201526a6861732062616c616e636560a81b604082015260600190565b602080825260029082015261047560f41b604082015260600190565b60208082526030908201527f416363657373436f6e74726f6c3a2073656e646572206d75737420626520616e60408201526f2061646d696e20746f207265766f6b6560801b606082015260800190565b60208082526010908201526f14185d5cd8589b194e881c185d5cd95960821b604082015260600190565b60208082526002908201526124a360f11b604082015260600190565b6020808252818101527f4f776e65722063616e6e6f7420626520746865207a65726f2061646472657373604082015260600190565b60208082526021908201527f536166654d6174683a206d756c7469706c69636174696f6e206f766572666c6f6040820152607760f81b606082015260800190565b602080825260029082015261494160f01b604082015260600190565b60208082526002908201526104c560f41b604082015260600190565b6020808252602e908201527f436f6e747261637420696e7374616e63652068617320616c726561647920626560408201526d195b881a5b9a5d1a585b1a5e995960921b606082015260800190565b6020808252600390820152622622a760e91b604082015260600190565b602080825260029082015261139360f21b604082015260600190565b6020808252600290820152614e4160f01b604082015260600190565b6020808252601f908201527f5265656e7472616e637947756172643a207265656e7472616e742063616c6c00604082015260600190565b6020808252602b908201527f4d75737420686176652061646d696e20726f6c6520746f20706572666f726d2060408201526a3a3434b99030b1ba34b7b760a91b606082015260800190565b6020808252602f908201527f416363657373436f6e74726f6c3a2063616e206f6e6c792072656e6f756e636560408201526e103937b632b9903337b91039b2b63360891b606082015260800190565b82518152602092830151928101929092526001600160a01b0316604082015260600190565b600061018082019050615405828451614c3f565b602083015161541760a0840182614c3f565b5060408301516101408301526060909201516101609091015290565b60a081016116b68284614c3f565b61024081016154508286614c3f565b8360a083015261546360c0830184614c6f565b615474610160830160058501614c6f565b600a830154610200830152600b830154610220830152949350505050565b91825280516001600160a01b0316602080840191909152810151604080840191909152810151606080840191909152810151608080840191909152015160a082015260c00190565b9182526001600160a01b0316602082015260400190565b93845260208401929092526040830152606082015260800190565b9283526020830191909152604082015260600190565b6001600160a01b0381168114610c7d57600080fdfeb19546dff01e856fb3f010c267a7b1c60363cf8a4664e21cc89c26224620214e65d7a28e3265b37a6474929f336521b332c1681b933f6cb9f3376673440d862a956624bfbe09c0e98e645d61eba0de4ce88e8cceabdb00fead208d19a8e1209baf9a8bb3cbd6b84fbccefa71ff73e26e798553c6914585a84886212a46a90279a26469706673582212206b21b841db2211ea873dc4d54cd191c75ba8ea44984c7366e2d6603a9a9ae89964736f6c634300060c0033",
  "libraries": {
    "TranchingLogic": "0xA8CaC9022164B3b7a6ab764227dBC38B8D47eef1"
  },
  "devdoc": {
    "kind": "dev",
    "methods": {
      "availableToWithdraw(uint256)": {
        "params": {
          "tokenId": "The token representing the position"
        },
        "returns": {
          "_0": "interestRedeemable The interest available to redeem",
          "_1": "principalRedeemable The principal available to redeem"
        }
      },
      "deposit(uint256,uint256)": {
        "params": {
          "amount": "The USDC amount to tranfer from the caller to the pool",
          "tranche": "The number representing the tranche to deposit into"
        },
        "returns": {
          "_0": "tokenId The tokenId of the NFT"
        }
      },
      "drawdown(uint256)": {
        "params": {
          "amount": "The amount to drawdown from the creditline (must be < limit)"
        }
      },
      "getRoleAdmin(bytes32)": {
        "details": "Returns the admin role that controls `role`. See {grantRole} and {revokeRole}. To change a role's admin, use {_setRoleAdmin}."
      },
      "getRoleMember(bytes32,uint256)": {
        "details": "Returns one of the accounts that have `role`. `index` must be a value between 0 and {getRoleMemberCount}, non-inclusive. Role bearers are not sorted in any particular way, and their ordering may change at any point. WARNING: When using {getRoleMember} and {getRoleMemberCount}, make sure you perform all queries on the same block. See the following https://forum.openzeppelin.com/t/iterating-over-elements-on-enumerableset-in-openzeppelin-contracts/2296[forum post] for more information."
      },
      "getRoleMemberCount(bytes32)": {
        "details": "Returns the number of accounts that have `role`. Can be used together with {getRoleMember} to enumerate all bearers of a role."
      },
      "grantRole(bytes32,address)": {
        "details": "Grants `role` to `account`. If `account` had not been already granted `role`, emits a {RoleGranted} event. Requirements: - the caller must have ``role``'s admin role."
      },
      "hasRole(bytes32,address)": {
        "details": "Returns `true` if `account` has been granted `role`."
      },
      "migrateCreditLine(address,uint256,uint256,uint256,uint256,uint256,uint256)": {
        "params": {
          "_borrower": "The borrower address",
          "_interestApr": "The new interest APR",
          "_lateFeeApr": "The new late fee APR",
          "_maxLimit": "The new max limit",
          "_paymentPeriodInDays": "The new payment period in days",
          "_termInDays": "The new term in days"
        }
      },
      "pause()": {
        "details": "Pauses all functions guarded by Pause See {Pausable-_pause}. Requirements: - the caller must have the PAUSER_ROLE."
      },
      "paused()": {
        "details": "Returns true if the contract is paused, and false otherwise."
      },
      "pay(uint256)": {
        "params": {
          "amount": "The amount to repay"
        }
      },
      "renounceRole(bytes32,address)": {
        "details": "Revokes `role` from the calling account. Roles are often managed via {grantRole} and {revokeRole}: this function's purpose is to provide a mechanism for accounts to lose their privileges if they are compromised (such as when a trusted device is misplaced). If the calling account had been granted `role`, emits a {RoleRevoked} event. Requirements: - the caller must be `account`."
      },
      "revokeRole(bytes32,address)": {
        "details": "Revokes `role` from `account`. If `account` had been granted `role`, emits a {RoleRevoked} event. Requirements: - the caller must have ``role``'s admin role."
      },
      "totalJuniorDeposits()": {
        "returns": {
          "_0": "The total USDC amount deposited into all junior tranches"
        }
      },
      "unpause()": {
        "details": "Unpauses the contract See {Pausable-_unpause}. Requirements: - the caller must have the Pauser role"
      },
      "withdraw(uint256,uint256)": {
        "params": {
          "amount": "The amount to withdraw (must be <= interest+principal currently available to withdraw)",
          "tokenId": "The NFT representing the position"
        },
        "returns": {
          "_0": "interestWithdrawn The interest amount that was withdrawn",
          "_1": "principalWithdrawn The principal amount that was withdrawn"
        }
      },
      "withdrawMax(uint256)": {
        "params": {
          "tokenId": "The NFT representing the position"
        },
        "returns": {
          "interestWithdrawn": "The interest amount that was withdrawn",
          "principalWithdrawn": "The principal amount that was withdrawn"
        }
      },
      "withdrawMultiple(uint256[],uint256[])": {
        "params": {
          "amounts": "An array of amounts to withdraw from the corresponding tokenIds",
          "tokenIds": "An array of tokens ids representing the position"
        }
      }
    },
    "version": 1
  },
  "userdoc": {
    "kind": "user",
    "methods": {
      "assess()": {
        "notice": "Triggers an assessment of the creditline and the applies the payments according the tranche waterfall"
      },
      "availableToWithdraw(uint256)": {
        "notice": "Determines the amount of interest and principal redeemable by a particular tokenId"
      },
      "deposit(uint256,uint256)": {
        "notice": "Deposit a USDC amount into the pool for a tranche. Mints an NFT to the caller representing the position"
      },
      "drawdown(uint256)": {
        "notice": "Draws down the funds (and locks the pool) to the borrower address. Can only be called by the borrower"
      },
      "emergencyShutdown()": {
        "notice": "Pauses the pool and sweeps any remaining funds to the treasury reserve."
      },
      "getVersion()": {
        "notice": "Returns the version triplet `[major, minor, patch]`"
      },
      "lockJuniorCapital()": {
        "notice": "Locks the junior tranche, preventing more junior deposits. Gives time for the senior to determine how much to invest (ensure leverage ratio cannot change for the period)"
      },
      "lockPool()": {
        "notice": "Locks the pool (locks both senior and junior tranches and starts the drawdown period). Beyond the drawdown period, any unused capital is available to withdraw by all depositors"
      },
      "migrateCreditLine(address,uint256,uint256,uint256,uint256,uint256,uint256)": {
        "notice": "Migrates the accounting variables from the current creditline to a brand new one"
      },
      "pauseDrawdowns()": {
        "notice": "Pauses all drawdowns (but not deposits/withdraws)"
      },
      "pay(uint256)": {
        "notice": "Allows repaying the creditline. Collects the USDC amount from the sender and triggers an assess"
      },
      "totalJuniorDeposits()": {
        "notice": "Returns the total junior capital deposited"
      },
      "unpauseDrawdowns()": {
        "notice": "Unpause drawdowns"
      },
      "withdraw(uint256,uint256)": {
        "notice": "Withdraw an already deposited amount if the funds are available"
      },
      "withdrawMax(uint256)": {
        "notice": "Similar to withdraw but will withdraw all available funds"
      },
      "withdrawMultiple(uint256[],uint256[])": {
        "notice": "Withdraw from many tokens (that the sender owns) in a single transaction"
      }
    },
    "version": 1
  },
  "storageLayout": {
    "storage": [
      {
        "astId": 50,
        "contract": "contracts/protocol/core/TranchedPool.sol:TranchedPool",
        "label": "initialized",
        "offset": 0,
        "slot": "0",
        "type": "t_bool"
      },
      {
        "astId": 53,
        "contract": "contracts/protocol/core/TranchedPool.sol:TranchedPool",
        "label": "initializing",
        "offset": 1,
        "slot": "0",
        "type": "t_bool"
      },
      {
        "astId": 118,
        "contract": "contracts/protocol/core/TranchedPool.sol:TranchedPool",
        "label": "______gap",
        "offset": 0,
        "slot": "1",
        "type": "t_array(t_uint256)50_storage"
      },
      {
        "astId": 43,
        "contract": "contracts/protocol/core/TranchedPool.sol:TranchedPool",
        "label": "__gap",
        "offset": 0,
        "slot": "51",
        "type": "t_array(t_uint256)50_storage"
      },
      {
        "astId": 163,
        "contract": "contracts/protocol/core/TranchedPool.sol:TranchedPool",
        "label": "_roles",
        "offset": 0,
        "slot": "101",
        "type": "t_mapping(t_bytes32,t_struct(RoleData)159_storage)"
      },
      {
        "astId": 408,
        "contract": "contracts/protocol/core/TranchedPool.sol:TranchedPool",
        "label": "__gap",
        "offset": 0,
        "slot": "102",
        "type": "t_array(t_uint256)49_storage"
      },
      {
        "astId": 3207,
        "contract": "contracts/protocol/core/TranchedPool.sol:TranchedPool",
        "label": "_paused",
        "offset": 0,
        "slot": "151",
        "type": "t_bool"
      },
      {
        "astId": 3296,
        "contract": "contracts/protocol/core/TranchedPool.sol:TranchedPool",
        "label": "__gap",
        "offset": 0,
        "slot": "152",
        "type": "t_array(t_uint256)49_storage"
      },
      {
        "astId": 3305,
        "contract": "contracts/protocol/core/TranchedPool.sol:TranchedPool",
        "label": "_notEntered",
        "offset": 0,
        "slot": "201",
        "type": "t_bool"
      },
      {
        "astId": 3346,
        "contract": "contracts/protocol/core/TranchedPool.sol:TranchedPool",
        "label": "__gap",
        "offset": 0,
        "slot": "202",
        "type": "t_array(t_uint256)49_storage"
      },
      {
        "astId": 12077,
        "contract": "contracts/protocol/core/TranchedPool.sol:TranchedPool",
        "label": "__gap1",
        "offset": 0,
        "slot": "251",
        "type": "t_array(t_uint256)50_storage"
      },
      {
        "astId": 12081,
        "contract": "contracts/protocol/core/TranchedPool.sol:TranchedPool",
        "label": "__gap2",
        "offset": 0,
        "slot": "301",
        "type": "t_array(t_uint256)50_storage"
      },
      {
        "astId": 12085,
        "contract": "contracts/protocol/core/TranchedPool.sol:TranchedPool",
        "label": "__gap3",
        "offset": 0,
        "slot": "351",
        "type": "t_array(t_uint256)50_storage"
      },
      {
        "astId": 12089,
        "contract": "contracts/protocol/core/TranchedPool.sol:TranchedPool",
        "label": "__gap4",
        "offset": 0,
        "slot": "401",
        "type": "t_array(t_uint256)50_storage"
      },
      {
        "astId": 10396,
        "contract": "contracts/protocol/core/TranchedPool.sol:TranchedPool",
        "label": "creditLine",
        "offset": 0,
        "slot": "451",
        "type": "t_contract(IV2CreditLine)10701"
      },
      {
        "astId": 10398,
        "contract": "contracts/protocol/core/TranchedPool.sol:TranchedPool",
        "label": "createdAt",
        "offset": 0,
        "slot": "452",
        "type": "t_uint256"
      },
      {
        "astId": 19120,
        "contract": "contracts/protocol/core/TranchedPool.sol:TranchedPool",
        "label": "config",
        "offset": 0,
        "slot": "453",
        "type": "t_contract(GoldfinchConfig)15934"
      },
      {
        "astId": 19153,
        "contract": "contracts/protocol/core/TranchedPool.sol:TranchedPool",
        "label": "juniorFeePercent",
        "offset": 0,
        "slot": "454",
        "type": "t_uint256"
      },
      {
        "astId": 19155,
        "contract": "contracts/protocol/core/TranchedPool.sol:TranchedPool",
        "label": "drawdownsPaused",
        "offset": 0,
        "slot": "455",
        "type": "t_bool"
      },
      {
        "astId": 19158,
        "contract": "contracts/protocol/core/TranchedPool.sol:TranchedPool",
        "label": "allowedUIDTypes",
        "offset": 0,
        "slot": "456",
        "type": "t_array(t_uint256)dyn_storage"
      },
      {
        "astId": 19160,
        "contract": "contracts/protocol/core/TranchedPool.sol:TranchedPool",
        "label": "totalDeployed",
        "offset": 0,
        "slot": "457",
        "type": "t_uint256"
      },
      {
        "astId": 19162,
        "contract": "contracts/protocol/core/TranchedPool.sol:TranchedPool",
        "label": "fundableAt",
        "offset": 0,
        "slot": "458",
        "type": "t_uint256"
      },
      {
        "astId": 19166,
        "contract": "contracts/protocol/core/TranchedPool.sol:TranchedPool",
        "label": "_poolSlices",
        "offset": 0,
        "slot": "459",
        "type": "t_mapping(t_uint256,t_struct(PoolSlice)10422_storage)"
      },
      {
        "astId": 19169,
        "contract": "contracts/protocol/core/TranchedPool.sol:TranchedPool",
        "label": "numSlices",
        "offset": 0,
        "slot": "460",
        "type": "t_uint256"
      }
    ],
    "types": {
      "t_array(t_bytes32)dyn_storage": {
        "base": "t_bytes32",
        "encoding": "dynamic_array",
        "label": "bytes32[]",
        "numberOfBytes": "32"
      },
      "t_array(t_uint256)49_storage": {
        "base": "t_uint256",
        "encoding": "inplace",
        "label": "uint256[49]",
        "numberOfBytes": "1568"
      },
      "t_array(t_uint256)50_storage": {
        "base": "t_uint256",
        "encoding": "inplace",
        "label": "uint256[50]",
        "numberOfBytes": "1600"
      },
      "t_array(t_uint256)dyn_storage": {
        "base": "t_uint256",
        "encoding": "dynamic_array",
        "label": "uint256[]",
        "numberOfBytes": "32"
      },
      "t_bool": {
        "encoding": "inplace",
        "label": "bool",
        "numberOfBytes": "1"
      },
      "t_bytes32": {
        "encoding": "inplace",
        "label": "bytes32",
        "numberOfBytes": "32"
      },
      "t_contract(GoldfinchConfig)15934": {
        "encoding": "inplace",
        "label": "contract GoldfinchConfig",
        "numberOfBytes": "20"
      },
      "t_contract(IV2CreditLine)10701": {
        "encoding": "inplace",
        "label": "contract IV2CreditLine",
        "numberOfBytes": "20"
      },
      "t_mapping(t_bytes32,t_struct(RoleData)159_storage)": {
        "encoding": "mapping",
        "key": "t_bytes32",
        "label": "mapping(bytes32 => struct AccessControlUpgradeSafe.RoleData)",
        "numberOfBytes": "32",
        "value": "t_struct(RoleData)159_storage"
      },
      "t_mapping(t_bytes32,t_uint256)": {
        "encoding": "mapping",
        "key": "t_bytes32",
        "label": "mapping(bytes32 => uint256)",
        "numberOfBytes": "32",
        "value": "t_uint256"
      },
      "t_mapping(t_uint256,t_struct(PoolSlice)10422_storage)": {
        "encoding": "mapping",
        "key": "t_uint256",
        "label": "mapping(uint256 => struct ITranchedPool.PoolSlice)",
        "numberOfBytes": "32",
        "value": "t_struct(PoolSlice)10422_storage"
      },
      "t_struct(AddressSet)2982_storage": {
        "encoding": "inplace",
        "label": "struct EnumerableSet.AddressSet",
        "members": [
          {
            "astId": 2981,
            "contract": "contracts/protocol/core/TranchedPool.sol:TranchedPool",
            "label": "_inner",
            "offset": 0,
            "slot": "0",
            "type": "t_struct(Set)2802_storage"
          }
        ],
        "numberOfBytes": "64"
      },
      "t_struct(PoolSlice)10422_storage": {
        "encoding": "inplace",
        "label": "struct ITranchedPool.PoolSlice",
        "members": [
          {
            "astId": 10415,
            "contract": "contracts/protocol/core/TranchedPool.sol:TranchedPool",
            "label": "seniorTranche",
            "offset": 0,
            "slot": "0",
            "type": "t_struct(TrancheInfo)10413_storage"
          },
          {
            "astId": 10417,
            "contract": "contracts/protocol/core/TranchedPool.sol:TranchedPool",
            "label": "juniorTranche",
            "offset": 0,
            "slot": "5",
            "type": "t_struct(TrancheInfo)10413_storage"
          },
          {
            "astId": 10419,
            "contract": "contracts/protocol/core/TranchedPool.sol:TranchedPool",
            "label": "totalInterestAccrued",
            "offset": 0,
            "slot": "10",
            "type": "t_uint256"
          },
          {
            "astId": 10421,
            "contract": "contracts/protocol/core/TranchedPool.sol:TranchedPool",
            "label": "principalDeployed",
            "offset": 0,
            "slot": "11",
            "type": "t_uint256"
          }
        ],
        "numberOfBytes": "384"
      },
      "t_struct(RoleData)159_storage": {
        "encoding": "inplace",
        "label": "struct AccessControlUpgradeSafe.RoleData",
        "members": [
          {
            "astId": 156,
            "contract": "contracts/protocol/core/TranchedPool.sol:TranchedPool",
            "label": "members",
            "offset": 0,
            "slot": "0",
            "type": "t_struct(AddressSet)2982_storage"
          },
          {
            "astId": 158,
            "contract": "contracts/protocol/core/TranchedPool.sol:TranchedPool",
            "label": "adminRole",
            "offset": 0,
            "slot": "2",
            "type": "t_bytes32"
          }
        ],
        "numberOfBytes": "96"
      },
      "t_struct(Set)2802_storage": {
        "encoding": "inplace",
        "label": "struct EnumerableSet.Set",
        "members": [
          {
            "astId": 2797,
            "contract": "contracts/protocol/core/TranchedPool.sol:TranchedPool",
            "label": "_values",
            "offset": 0,
            "slot": "0",
            "type": "t_array(t_bytes32)dyn_storage"
          },
          {
            "astId": 2801,
            "contract": "contracts/protocol/core/TranchedPool.sol:TranchedPool",
            "label": "_indexes",
            "offset": 0,
            "slot": "1",
            "type": "t_mapping(t_bytes32,t_uint256)"
          }
        ],
        "numberOfBytes": "64"
      },
      "t_struct(TrancheInfo)10413_storage": {
        "encoding": "inplace",
        "label": "struct ITranchedPool.TrancheInfo",
        "members": [
          {
            "astId": 10404,
            "contract": "contracts/protocol/core/TranchedPool.sol:TranchedPool",
            "label": "id",
            "offset": 0,
            "slot": "0",
            "type": "t_uint256"
          },
          {
            "astId": 10406,
            "contract": "contracts/protocol/core/TranchedPool.sol:TranchedPool",
            "label": "principalDeposited",
            "offset": 0,
            "slot": "1",
            "type": "t_uint256"
          },
          {
            "astId": 10408,
            "contract": "contracts/protocol/core/TranchedPool.sol:TranchedPool",
            "label": "principalSharePrice",
            "offset": 0,
            "slot": "2",
            "type": "t_uint256"
          },
          {
            "astId": 10410,
            "contract": "contracts/protocol/core/TranchedPool.sol:TranchedPool",
            "label": "interestSharePrice",
            "offset": 0,
            "slot": "3",
            "type": "t_uint256"
          },
          {
            "astId": 10412,
            "contract": "contracts/protocol/core/TranchedPool.sol:TranchedPool",
            "label": "lockedUntil",
            "offset": 0,
            "slot": "4",
            "type": "t_uint256"
          }
        ],
        "numberOfBytes": "160"
      },
      "t_uint256": {
        "encoding": "inplace",
        "label": "uint256",
        "numberOfBytes": "32"
      }
    }
  }
}